{"abi":[{"type":"constructor","inputs":[],"stateMutability":"nonpayable"},{"type":"function","name":"UPGRADE_INTERFACE_VERSION","inputs":[],"outputs":[{"name":"","type":"string","internalType":"string"}],"stateMutability":"view"},{"type":"function","name":"deposit","inputs":[{"name":"token","type":"address","internalType":"contract IERC20"},{"name":"amount","type":"uint256","internalType":"uint256"}],"outputs":[],"stateMutability":"nonpayable"},{"type":"function","name":"flashloan","inputs":[{"name":"receiverAddress","type":"address","internalType":"address"},{"name":"token","type":"address","internalType":"contract IERC20"},{"name":"amount","type":"uint256","internalType":"uint256"},{"name":"params","type":"bytes","internalType":"bytes"}],"outputs":[],"stateMutability":"nonpayable"},{"type":"function","name":"getAssetFromToken","inputs":[{"name":"token","type":"address","internalType":"contract IERC20"}],"outputs":[{"name":"","type":"address","internalType":"contract AssetToken"}],"stateMutability":"view"},{"type":"function","name":"getCalculatedFee","inputs":[{"name":"token","type":"address","internalType":"contract IERC20"},{"name":"amount","type":"uint256","internalType":"uint256"}],"outputs":[{"name":"fee","type":"uint256","internalType":"uint256"}],"stateMutability":"view"},{"type":"function","name":"getFee","inputs":[],"outputs":[{"name":"","type":"uint256","internalType":"uint256"}],"stateMutability":"view"},{"type":"function","name":"getFeePrecision","inputs":[],"outputs":[{"name":"","type":"uint256","internalType":"uint256"}],"stateMutability":"view"},{"type":"function","name":"getPoolFactoryAddress","inputs":[],"outputs":[{"name":"","type":"address","internalType":"address"}],"stateMutability":"view"},{"type":"function","name":"getPrice","inputs":[{"name":"token","type":"address","internalType":"address"}],"outputs":[{"name":"","type":"uint256","internalType":"uint256"}],"stateMutability":"view"},{"type":"function","name":"getPriceInWeth","inputs":[{"name":"token","type":"address","internalType":"address"}],"outputs":[{"name":"","type":"uint256","internalType":"uint256"}],"stateMutability":"view"},{"type":"function","name":"initialize","inputs":[{"name":"tswapAddress","type":"address","internalType":"address"}],"outputs":[],"stateMutability":"nonpayable"},{"type":"function","name":"isAllowedToken","inputs":[{"name":"token","type":"address","internalType":"contract IERC20"}],"outputs":[{"name":"","type":"bool","internalType":"bool"}],"stateMutability":"view"},{"type":"function","name":"isCurrentlyFlashLoaning","inputs":[{"name":"token","type":"address","internalType":"contract IERC20"}],"outputs":[{"name":"","type":"bool","internalType":"bool"}],"stateMutability":"view"},{"type":"function","name":"owner","inputs":[],"outputs":[{"name":"","type":"address","internalType":"address"}],"stateMutability":"view"},{"type":"function","name":"proxiableUUID","inputs":[],"outputs":[{"name":"","type":"bytes32","internalType":"bytes32"}],"stateMutability":"view"},{"type":"function","name":"redeem","inputs":[{"name":"token","type":"address","internalType":"contract IERC20"},{"name":"amountOfAssetToken","type":"uint256","internalType":"uint256"}],"outputs":[],"stateMutability":"nonpayable"},{"type":"function","name":"renounceOwnership","inputs":[],"outputs":[],"stateMutability":"nonpayable"},{"type":"function","name":"repay","inputs":[{"name":"token","type":"address","internalType":"contract IERC20"},{"name":"amount","type":"uint256","internalType":"uint256"}],"outputs":[],"stateMutability":"nonpayable"},{"type":"function","name":"s_tokenToAssetToken","inputs":[{"name":"","type":"address","internalType":"contract IERC20"}],"outputs":[{"name":"","type":"address","internalType":"contract AssetToken"}],"stateMutability":"view"},{"type":"function","name":"setAllowedToken","inputs":[{"name":"token","type":"address","internalType":"contract IERC20"},{"name":"allowed","type":"bool","internalType":"bool"}],"outputs":[{"name":"","type":"address","internalType":"contract AssetToken"}],"stateMutability":"nonpayable"},{"type":"function","name":"transferOwnership","inputs":[{"name":"newOwner","type":"address","internalType":"address"}],"outputs":[],"stateMutability":"nonpayable"},{"type":"function","name":"updateFlashLoanFee","inputs":[{"name":"newFee","type":"uint256","internalType":"uint256"}],"outputs":[],"stateMutability":"nonpayable"},{"type":"function","name":"upgradeToAndCall","inputs":[{"name":"newImplementation","type":"address","internalType":"address"},{"name":"data","type":"bytes","internalType":"bytes"}],"outputs":[],"stateMutability":"payable"},{"type":"event","name":"AllowedTokenSet","inputs":[{"name":"token","type":"address","indexed":true,"internalType":"contract IERC20"},{"name":"asset","type":"address","indexed":true,"internalType":"contract AssetToken"},{"name":"allowed","type":"bool","indexed":false,"internalType":"bool"}],"anonymous":false},{"type":"event","name":"Deposit","inputs":[{"name":"account","type":"address","indexed":true,"internalType":"address"},{"name":"token","type":"address","indexed":true,"internalType":"contract IERC20"},{"name":"amount","type":"uint256","indexed":false,"internalType":"uint256"}],"anonymous":false},{"type":"event","name":"FlashLoan","inputs":[{"name":"receiverAddress","type":"address","indexed":true,"internalType":"address"},{"name":"token","type":"address","indexed":true,"internalType":"contract IERC20"},{"name":"amount","type":"uint256","indexed":false,"internalType":"uint256"},{"name":"fee","type":"uint256","indexed":false,"internalType":"uint256"},{"name":"params","type":"bytes","indexed":false,"internalType":"bytes"}],"anonymous":false},{"type":"event","name":"Initialized","inputs":[{"name":"version","type":"uint64","indexed":false,"internalType":"uint64"}],"anonymous":false},{"type":"event","name":"OwnershipTransferred","inputs":[{"name":"previousOwner","type":"address","indexed":true,"internalType":"address"},{"name":"newOwner","type":"address","indexed":true,"internalType":"address"}],"anonymous":false},{"type":"event","name":"Redeemed","inputs":[{"name":"account","type":"address","indexed":true,"internalType":"address"},{"name":"token","type":"address","indexed":true,"internalType":"contract IERC20"},{"name":"amountOfAssetToken","type":"uint256","indexed":false,"internalType":"uint256"},{"name":"amountOfUnderlying","type":"uint256","indexed":false,"internalType":"uint256"}],"anonymous":false},{"type":"event","name":"Upgraded","inputs":[{"name":"implementation","type":"address","indexed":true,"internalType":"address"}],"anonymous":false},{"type":"error","name":"AddressEmptyCode","inputs":[{"name":"target","type":"address","internalType":"address"}]},{"type":"error","name":"AddressInsufficientBalance","inputs":[{"name":"account","type":"address","internalType":"address"}]},{"type":"error","name":"ERC1967InvalidImplementation","inputs":[{"name":"implementation","type":"address","internalType":"address"}]},{"type":"error","name":"ERC1967NonPayable","inputs":[]},{"type":"error","name":"FailedInnerCall","inputs":[]},{"type":"error","name":"InvalidInitialization","inputs":[]},{"type":"error","name":"NotInitializing","inputs":[]},{"type":"error","name":"OwnableInvalidOwner","inputs":[{"name":"owner","type":"address","internalType":"address"}]},{"type":"error","name":"OwnableUnauthorizedAccount","inputs":[{"name":"account","type":"address","internalType":"address"}]},{"type":"error","name":"SafeERC20FailedOperation","inputs":[{"name":"token","type":"address","internalType":"address"}]},{"type":"error","name":"ThunderLoan__AlreadyAllowed","inputs":[]},{"type":"error","name":"ThunderLoan__BadNewFee","inputs":[]},{"type":"error","name":"ThunderLoan__CallerIsNotContract","inputs":[]},{"type":"error","name":"ThunderLoan__CantBeZero","inputs":[]},{"type":"error","name":"ThunderLoan__ExhangeRateCanOnlyIncrease","inputs":[]},{"type":"error","name":"ThunderLoan__NotAllowedToken","inputs":[{"name":"token","type":"address","internalType":"contract IERC20"}]},{"type":"error","name":"ThunderLoan__NotCurrentlyFlashLoaning","inputs":[]},{"type":"error","name":"ThunderLoan__NotEnoughTokenBalance","inputs":[{"name":"startingBalance","type":"uint256","internalType":"uint256"},{"name":"amount","type":"uint256","internalType":"uint256"}]},{"type":"error","name":"ThunderLoan__NotPaidBack","inputs":[{"name":"expectedEndingBalance","type":"uint256","internalType":"uint256"},{"name":"endingBalance","type":"uint256","internalType":"uint256"}]},{"type":"error","name":"UUPSUnauthorizedCallContext","inputs":[]},{"type":"error","name":"UUPSUnsupportedProxiableUUID","inputs":[{"name":"slot","type":"bytes32","internalType":"bytes32"}]}],"bytecode":{"object":"0x60a06040523060805234801561001457600080fd5b5061001d610022565b6100d4565b7ff0c57e16840df040f15088dc2f81fe391c3923bec73e23a9662efc9c229c6a00805468010000000000000000900460ff16156100725760405163f92ee8a960e01b815260040160405180910390fd5b80546001600160401b03908116146100d15780546001600160401b0319166001600160401b0390811782556040519081527fc7f505b2f371ae2175ee4913f4499e1f2633a7b5936321eed1cdaeb6115181d29060200160405180910390a15b50565b6080516132a3620000fe60003960008181611589015281816115b3015261170301526132a36000f3fe6080604052600436106200015b5760003560e01c806367ebd73811620000c5578063ad3cb1cc1162000078578063ad3cb1cc1462000433578063c4d66de81462000475578063cbe230c3146200049a578063ced72f8714620004d9578063d856687414620004f0578063f2fde38b146200051557600080fd5b806367ebd738146200033857806370a1ed891462000372578063715018a614620003975780638aaa228414620003af5780638da5cb5b14620003d45780638f3443cb146200041357600080fd5b806341976e09116200011e57806341976e09146200024457806346638b10146200026957806347e7ef2414620002bf5780634f1ef28614620002e457806352d1902d14620002fb57806363ad2c41146200031357600080fd5b80631e9a6950146200016057806322867d7814620001875780632537d32414620001ac5780632d85a7db14620001d1578063396ecd7814620001f6575b600080fd5b3480156200016d57600080fd5b50620001856200017f36600462001bf7565b6200053a565b005b3480156200019457600080fd5b5062000185620001a636600462001bf7565b62000834565b348015620001b957600080fd5b506002545b6040519081526020015b60405180910390f35b348015620001de57600080fd5b50620001be620001f036600462001bf7565b6200089f565b3480156200020357600080fd5b50620002336200021536600462001c26565b6001600160a01b031660009081526004602052604090205460ff1690565b6040519015158152602001620001c8565b3480156200025157600080fd5b50620001be6200026336600462001c26565b620008f1565b3480156200027657600080fd5b50620002a66200028836600462001c26565b6001600160a01b039081166000908152600160205260409020541690565b6040516001600160a01b039091168152602001620001c8565b348015620002cc57600080fd5b5062000185620002de36600462001bf7565b62000904565b62000185620002f536600462001cbb565b62000bae565b3480156200030857600080fd5b50620001be62000bd3565b3480156200032057600080fd5b50620001856200033236600462001d58565b62000bf3565b3480156200034557600080fd5b50620002a66200035736600462001c26565b6001602052600090815260409020546001600160a01b031681565b3480156200037f57600080fd5b50620001be6200039136600462001c26565b62000fd0565b348015620003a457600080fd5b5062000185620010b0565b348015620003bc57600080fd5b50620002a6620003ce36600462001e0f565b620010c8565b348015620003e157600080fd5b507f9016d09d72d40fdae2fd8ceac6b6234c7706214fd39c1cd1e609a0528c199300546001600160a01b0316620002a6565b3480156200042057600080fd5b506000546001600160a01b0316620002a6565b3480156200044057600080fd5b5062000466604051806040016040528060058152602001640352e302e360dc1b81525081565b604051620001c8919062001ea1565b3480156200048257600080fd5b50620001856200049436600462001c26565b62001361565b348015620004a757600080fd5b5062000233620004b936600462001c26565b6001600160a01b0390811660009081526001602052604090205416151590565b348015620004e657600080fd5b50600354620001be565b348015620004fd57600080fd5b50620001856200050f36600462001eb6565b620014a5565b3480156200052257600080fd5b50620001856200053436600462001c26565b620014d8565b80806000036200055d57604051631b7db47f60e21b815260040160405180910390fd5b6001600160a01b03808416600090815260016020526040902054849116620005a8576040516383ebfce760e01b81526001600160a01b03821660048201526024015b60405180910390fd5b6001600160a01b0380851660009081526001602090815260408083205481516339aa885b60e21b81529151941693849263e6aa216c92600480820193918290030181865afa158015620005ff573d6000803e3d6000fd5b505050506040513d601f19601f8201168201806040525081019062000625919062001ed0565b905060001985036200069f576040516370a0823160e01b81523360048201526001600160a01b038316906370a0823190602401602060405180830381865afa15801562000676573d6000803e3d6000fd5b505050506040513d601f19601f820116820180604052508101906200069c919062001ed0565b94505b6000826001600160a01b0316633a01b9646040518163ffffffff1660e01b8152600401602060405180830381865afa158015620006e0573d6000803e3d6000fd5b505050506040513d601f19601f8201168201806040525081019062000706919062001ed0565b62000712838862001f00565b6200071e919062001f1a565b60408051888152602081018390529192506001600160a01b0389169133917f5cdf07ad0fc222442720b108e3ed4c4640f0fadc2ab2253e66f259a0fea83480910160405180910390a3604051632770a7eb60e21b8152336004820152602481018790526001600160a01b03841690639dc29fac90604401600060405180830381600087803b158015620007b057600080fd5b505af1158015620007c5573d6000803e3d6000fd5b5050604051634efecaa560e01b8152336004820152602481018490526001600160a01b0386169250634efecaa59150604401600060405180830381600087803b1580156200081257600080fd5b505af115801562000827573d6000803e3d6000fd5b5050505050505050505050565b6001600160a01b03821660009081526004602052604090205460ff166200086e576040516339dd70c360e01b815260040160405180910390fd5b6001600160a01b03808316600081815260016020526040902054909116906200089a903383856200151c565b505050565b600080600254620008b08562000fd0565b620008bc908562001f00565b620008c8919062001f1a565b905060025460035482620008dd919062001f00565b620008e9919062001f1a565b949350505050565b6000620008fe8262000fd0565b92915050565b80806000036200092757604051631b7db47f60e21b815260040160405180910390fd5b6001600160a01b038084166000908152600160205260409020548491166200096e576040516383ebfce760e01b81526001600160a01b03821660048201526024016200059f565b6001600160a01b0380851660009081526001602090815260408083205481516339aa885b60e21b81529151941693849263e6aa216c92600480820193918290030181865afa158015620009c5573d6000803e3d6000fd5b505050506040513d601f19601f82011682018060405250810190620009eb919062001ed0565b9050600081836001600160a01b0316633a01b9646040518163ffffffff1660e01b8152600401602060405180830381865afa15801562000a2f573d6000803e3d6000fd5b505050506040513d601f19601f8201168201806040525081019062000a55919062001ed0565b62000a61908862001f00565b62000a6d919062001f1a565b9050866001600160a01b0316336001600160a01b03167f5548c837ab068cf56a2c2479df0882a4922fd203edb7517321831d95078c5f628860405162000ab591815260200190565b60405180910390a36040516340c10f1960e01b8152336004820152602481018290526001600160a01b038416906340c10f1990604401600060405180830381600087803b15801562000b0657600080fd5b505af115801562000b1b573d6000803e3d6000fd5b50505050600062000b2d88886200089f565b604051635cf102d760e11b8152600481018290529091506001600160a01b0385169063b9e205ae90602401600060405180830381600087803b15801562000b7357600080fd5b505af115801562000b88573d6000803e3d6000fd5b5062000ba4925050506001600160a01b03891633868a6200151c565b5050505050505050565b62000bb86200157e565b62000bc38262001627565b62000bcf828262001631565b5050565b600062000bdf620016f8565b506000805160206200324e83398151915290565b828060000362000c1657604051631b7db47f60e21b815260040160405180910390fd5b6001600160a01b0380861660009081526001602052604090205486911662000c5d576040516383ebfce760e01b81526001600160a01b03821660048201526024016200059f565b6001600160a01b038681166000818152600160205260408082205490516370a0823160e01b8152931660048401819052929091906370a0823190602401602060405180830381865afa15801562000cb8573d6000803e3d6000fd5b505050506040513d601f19601f8201168201806040525081019062000cde919062001ed0565b90508087111562000d0d5760405163374fa73360e01b815260048101829052602481018890526044016200059f565b886001600160a01b03163b60000362000d3957604051639e70e7c560e01b815260040160405180910390fd5b600062000d4789896200089f565b604051635cf102d760e11b8152600481018290529091506001600160a01b0384169063b9e205ae90602401600060405180830381600087803b15801562000d8d57600080fd5b505af115801562000da2573d6000803e3d6000fd5b50505050886001600160a01b03168a6001600160a01b03167fbeeba37359a9db8ffa59be6f1cb1fed1e2a24b099a4799630876ddb8c87eedb98a848b8b60405162000df1949392919062001f66565b60405180910390a36001600160a01b03808a16600090815260046020819052604091829020805460ff191660011790559051634efecaa560e01b815291851691634efecaa59162000e5a918e918d91016001600160a01b03929092168252602082015260400190565b600060405180830381600087803b15801562000e7557600080fd5b505af115801562000e8a573d6000803e3d6000fd5b5050505062000eea898983338b8b60405160240162000eaf9695949392919062001f88565b60408051601f198184030181529190526020810180516001600160e01b0316631b11d0ff60e01b1790526001600160a01b038c169062001742565b506040516370a0823160e01b81526001600160a01b038481166004830152600091908b16906370a0823190602401602060405180830381865afa15801562000f36573d6000803e3d6000fd5b505050506040513d601f19601f8201168201806040525081019062000f5c919062001ed0565b905062000f6a828462001fd1565b81101562000fa35762000f7e828462001fd1565b60405163020665a760e61b81526004810191909152602481018290526044016200059f565b5050506001600160a01b039096166000908152600460205260409020805460ff1916905550505050505050565b6000805460405163bbe4f6db60e01b81526001600160a01b0384811660048301528392169063bbe4f6db90602401602060405180830381865afa1580156200101c573d6000803e3d6000fd5b505050506040513d601f19601f8201168201806040525081019062001042919062001fe7565b9050806001600160a01b031663b7e7fdcc6040518163ffffffff1660e01b8152600401602060405180830381865afa15801562001083573d6000803e3d6000fd5b505050506040513d601f19601f82011682018060405250810190620010a9919062001ed0565b9392505050565b620010ba62001752565b620010c66000620017b0565b565b6000620010d462001752565b8115620012ed576001600160a01b0383811660009081526001602052604090205416156200111557604051633cf2777d60e21b815260040160405180910390fd5b6000836001600160a01b03166306fdde036040518163ffffffff1660e01b8152600401600060405180830381865afa15801562001156573d6000803e3d6000fd5b505050506040513d6000823e601f3d908101601f1916820160405262001180919081019062002007565b6040516020016200119291906200207e565b60405160208183030381529060405290506000846001600160a01b03166395d89b416040518163ffffffff1660e01b8152600401600060405180830381865afa158015620011e4573d6000803e3d6000fd5b505050506040513d6000823e601f3d908101601f191682016040526200120e919081019062002007565b604051602001620012209190620020b4565b6040516020818303038152906040529050600030868484604051620012459062001bd3565b620012549493929190620020e0565b604051809103906000f08015801562001271573d6000803e3d6000fd5b506001600160a01b038088166000818152600160205260409081902080549385166001600160a01b0319909416841790555192935090917fe4af36088768226b78a1f394c84aec456100e7ca2b04e36783f8e9a7cc79a0c290620012da90891515815260200190565b60405180910390a39250620008fe915050565b6001600160a01b038084166000818152600160205260409081902080546001600160a01b0319811690915590519216918291907fe4af36088768226b78a1f394c84aec456100e7ca2b04e36783f8e9a7cc79a0c2906200135290871515815260200190565b60405180910390a39392505050565b7ff0c57e16840df040f15088dc2f81fe391c3923bec73e23a9662efc9c229c6a008054600160401b810460ff16159067ffffffffffffffff16600081158015620013a85750825b905060008267ffffffffffffffff166001148015620013c65750303b155b905081158015620013d5575080155b15620013f45760405163f92ee8a960e01b815260040160405180910390fd5b845467ffffffffffffffff1916600117855583156200141f57845460ff60401b1916600160401b1785555b6200142a3362001821565b6200143462001836565b6200143f8662001840565b670de0b6b3a7640000600255660aa87bee53800060035583156200149d57845460ff60401b19168555604051600181527fc7f505b2f371ae2175ee4913f4499e1f2633a7b5936321eed1cdaeb6115181d29060200160405180910390a15b505050505050565b620014af62001752565b600254811115620014d35760405163958939ad60e01b815260040160405180910390fd5b600355565b620014e262001752565b6001600160a01b0381166200150e57604051631e4fbdf760e01b8152600060048201526024016200059f565b6200151981620017b0565b50565b604080516001600160a01b0385811660248301528416604482015260648082018490528251808303909101815260849091019091526020810180516001600160e01b03166323b872dd60e01b1790526200157890859062001855565b50505050565b306001600160a01b037f00000000000000000000000000000000000000000000000000000000000000001614806200160857507f00000000000000000000000000000000000000000000000000000000000000006001600160a01b0316620015fc6000805160206200324e833981519152546001600160a01b031690565b6001600160a01b031614155b15620010c65760405163703e46dd60e11b815260040160405180910390fd5b6200151962001752565b816001600160a01b03166352d1902d6040518163ffffffff1660e01b8152600401602060405180830381865afa9250505080156200168e575060408051601f3d908101601f191682019092526200168b9181019062001ed0565b60015b620016b857604051634c9c8ce360e01b81526001600160a01b03831660048201526024016200059f565b6000805160206200324e8339815191528114620016ec57604051632a87526960e21b8152600481018290526024016200059f565b6200089a8383620018bf565b306001600160a01b037f00000000000000000000000000000000000000000000000000000000000000001614620010c65760405163703e46dd60e11b815260040160405180910390fd5b6060620010a9838360006200191c565b33620017857f9016d09d72d40fdae2fd8ceac6b6234c7706214fd39c1cd1e609a0528c199300546001600160a01b031690565b6001600160a01b031614620010c65760405163118cdaa760e01b81523360048201526024016200059f565b7f9016d09d72d40fdae2fd8ceac6b6234c7706214fd39c1cd1e609a0528c19930080546001600160a01b031981166001600160a01b03848116918217845560405192169182907f8be0079c531659141344cd1fd0a4f28419497f9722a3daafe3b4186f6b6457e090600090a3505050565b6200182b620019c1565b620015198162001a0b565b620010c6620019c1565b6200184a620019c1565b620015198162001a15565b60006200186c6001600160a01b0384168362001742565b90508051600014158015620018945750808060200190518101906200189291906200212d565b155b156200089a57604051635274afe760e01b81526001600160a01b03841660048201526024016200059f565b620018ca8262001a41565b6040516001600160a01b038316907fbc7cd75a20ee27fd9adebab32041f755214dbc6bffa90cc0225b39da2e5c2d3b90600090a280511562001912576200089a828262001aa9565b62000bcf62001b25565b606081471015620019435760405163cd78605960e01b81523060048201526024016200059f565b600080856001600160a01b031684866040516200196191906200214d565b60006040518083038185875af1925050503d8060008114620019a0576040519150601f19603f3d011682016040523d82523d6000602084013e620019a5565b606091505b5091509150620019b786838362001b45565b9695505050505050565b7ff0c57e16840df040f15088dc2f81fe391c3923bec73e23a9662efc9c229c6a0054600160401b900460ff16620010c657604051631afcd79f60e31b815260040160405180910390fd5b620014e2620019c1565b62001a1f620019c1565b600080546001600160a01b0319166001600160a01b0392909216919091179055565b806001600160a01b03163b60000362001a7957604051634c9c8ce360e01b81526001600160a01b03821660048201526024016200059f565b6000805160206200324e83398151915280546001600160a01b0319166001600160a01b0392909216919091179055565b6060600080846001600160a01b03168460405162001ac891906200214d565b600060405180830381855af49150503d806000811462001b05576040519150601f19603f3d011682016040523d82523d6000602084013e62001b0a565b606091505b509150915062001b1c85838362001b45565b95945050505050565b3415620010c65760405163b398979f60e01b815260040160405180910390fd5b60608262001b5e5762001b588262001ba9565b620010a9565b815115801562001b7657506001600160a01b0384163b155b1562001ba157604051639996b31560e01b81526001600160a01b03851660048201526024016200059f565b5080620010a9565b80511562001bba5780518082602001fd5b604051630a12f52160e11b815260040160405180910390fd5b6110e2806200216c83390190565b6001600160a01b03811681146200151957600080fd5b6000806040838503121562001c0b57600080fd5b823562001c188162001be1565b946020939093013593505050565b60006020828403121562001c3957600080fd5b8135620010a98162001be1565b634e487b7160e01b600052604160045260246000fd5b604051601f8201601f1916810167ffffffffffffffff8111828210171562001c885762001c8862001c46565b604052919050565b600067ffffffffffffffff82111562001cad5762001cad62001c46565b50601f01601f191660200190565b6000806040838503121562001ccf57600080fd5b823562001cdc8162001be1565b9150602083013567ffffffffffffffff81111562001cf957600080fd5b8301601f8101851362001d0b57600080fd5b803562001d2262001d1c8262001c90565b62001c5c565b81815286602083850101111562001d3857600080fd5b816020840160208301376000602083830101528093505050509250929050565b60008060008060006080868803121562001d7157600080fd5b853562001d7e8162001be1565b9450602086013562001d908162001be1565b935060408601359250606086013567ffffffffffffffff8082111562001db557600080fd5b818801915088601f83011262001dca57600080fd5b81358181111562001dda57600080fd5b89602082850101111562001ded57600080fd5b9699959850939650602001949392505050565b80151581146200151957600080fd5b6000806040838503121562001e2357600080fd5b823562001e308162001be1565b9150602083013562001e428162001e00565b809150509250929050565b60005b8381101562001e6a57818101518382015260200162001e50565b50506000910152565b6000815180845262001e8d81602086016020860162001e4d565b601f01601f19169290920160200192915050565b602081526000620010a9602083018462001e73565b60006020828403121562001ec957600080fd5b5035919050565b60006020828403121562001ee357600080fd5b5051919050565b634e487b7160e01b600052601160045260246000fd5b8082028115828204841417620008fe57620008fe62001eea565b60008262001f3857634e487b7160e01b600052601260045260246000fd5b500490565b81835281816020850137506000828201602090810191909152601f909101601f19169091010190565b848152836020820152606060408201526000620019b760608301848662001f3d565b6001600160a01b03878116825260208201879052604082018690528416606082015260a06080820181905260009062001fc5908301848662001f3d565b98975050505050505050565b80820180821115620008fe57620008fe62001eea565b60006020828403121562001ffa57600080fd5b8151620010a98162001be1565b6000602082840312156200201a57600080fd5b815167ffffffffffffffff8111156200203257600080fd5b8201601f810184136200204457600080fd5b80516200205562001d1c8262001c90565b8181528560208385010111156200206b57600080fd5b62001b1c82602083016020860162001e4d565b6b02a343ab73232b92637b0b7160a51b815260008251620020a781600c85016020870162001e4d565b91909101600c0192915050565b611d1b60f21b815260008251620020d381600285016020870162001e4d565b9190910160020192915050565b6001600160a01b038581168252841660208201526080604082018190526000906200210e9083018562001e73565b828103606084015262002122818562001e73565b979650505050505050565b6000602082840312156200214057600080fd5b8151620010a98162001e00565b600082516200216181846020870162001e4d565b919091019291505056fe60c06040523480156200001157600080fd5b50604051620010e2380380620010e28339810160408190526200003491620001af565b81816003620000448382620002d3565b506004620000538282620002d3565b50859150506001600160a01b0381166200008057604051639f1301a560e01b815260040160405180910390fd5b836001600160a01b038116620000a957604051639f1301a560e01b815260040160405180910390fd5b5050506001600160a01b0392831660a0525016608052670de0b6b3a76400006005556200039f565b6001600160a01b0381168114620000e757600080fd5b50565b634e487b7160e01b600052604160045260246000fd5b600082601f8301126200011257600080fd5b81516001600160401b03808211156200012f576200012f620000ea565b604051601f8301601f19908116603f011681019082821181831017156200015a576200015a620000ea565b816040528381526020925086838588010111156200017757600080fd5b600091505b838210156200019b57858201830151818301840152908201906200017c565b600093810190920192909252949350505050565b60008060008060808587031215620001c657600080fd5b8451620001d381620000d1565b6020860151909450620001e681620000d1565b60408601519093506001600160401b03808211156200020457600080fd5b620002128883890162000100565b935060608701519150808211156200022957600080fd5b50620002388782880162000100565b91505092959194509250565b600181811c908216806200025957607f821691505b6020821081036200027a57634e487b7160e01b600052602260045260246000fd5b50919050565b601f821115620002ce57600081815260208120601f850160051c81016020861015620002a95750805b601f850160051c820191505b81811015620002ca57828155600101620002b5565b5050505b505050565b81516001600160401b03811115620002ef57620002ef620000ea565b620003078162000300845462000244565b8462000280565b602080601f8311600181146200033f5760008415620003265750858301515b600019600386901b1c1916600185901b178555620002ca565b600085815260208120601f198616915b8281101562000370578886015182559484019460019091019084016200034f565b50858210156200038f5787850151600019600388901b60f8161c191681555b5050505050600190811b01905550565b60805160a051610d01620003e160003960008181610370015281816103c70152818161045301526104b40152600081816101ef01526104120152610d016000f3fe608060405234801561001057600080fd5b50600436106101005760003560e01c806370a0823111610097578063a9059cbb11610066578063a9059cbb1461022c578063b9e205ae1461023f578063dd62ed3e14610252578063e6aa216c1461028b57600080fd5b806370a08231146101b157806395d89b41146101da5780639816f473146101e25780639dc29fac1461021957600080fd5b8063313ce567116100d3578063313ce5671461016b5780633a01b9641461017a57806340c10f19146101895780634efecaa51461019e57600080fd5b806306fdde0314610105578063095ea7b31461012357806318160ddd1461014657806323b872dd14610158575b600080fd5b61010d610293565b60405161011a9190610ad5565b60405180910390f35b610136610131366004610b24565b610325565b604051901515815260200161011a565b6002545b60405190815260200161011a565b610136610166366004610b4e565b61033f565b6040516012815260200161011a565b61014a670de0b6b3a764000081565b61019c610197366004610b24565b610365565b005b61019c6101ac366004610b24565b6103bc565b61014a6101bf366004610b8a565b6001600160a01b031660009081526020819052604090205490565b61010d610439565b6040516001600160a01b037f000000000000000000000000000000000000000000000000000000000000000016815260200161011a565b61019c610227366004610b24565b610448565b61013661023a366004610b24565b61049b565b61019c61024d366004610ba5565b6104a9565b61014a610260366004610bbe565b6001600160a01b03918216600090815260016020908152604080832093909416825291909152205490565b60055461014a565b6060600380546102a290610bf1565b80601f01602080910402602001604051908101604052809291908181526020018280546102ce90610bf1565b801561031b5780601f106102f05761010080835404028352916020019161031b565b820191906000526020600020905b8154815290600101906020018083116102fe57829003601f168201915b5050505050905090565b60003361033381858561059b565b60019150505b92915050565b60003361034d8582856105ad565b61035885858561062b565b60019150505b9392505050565b336001600160a01b037f000000000000000000000000000000000000000000000000000000000000000016146103ae5760405163148a1bb160e21b815260040160405180910390fd5b6103b8828261068a565b5050565b336001600160a01b037f000000000000000000000000000000000000000000000000000000000000000016146104055760405163148a1bb160e21b815260040160405180910390fd5b6103b86001600160a01b037f00000000000000000000000000000000000000000000000000000000000000001683836106c0565b6060600480546102a290610bf1565b336001600160a01b037f000000000000000000000000000000000000000000000000000000000000000016146104915760405163148a1bb160e21b815260040160405180910390fd5b6103b88282610712565b60003361033381858561062b565b336001600160a01b037f000000000000000000000000000000000000000000000000000000000000000016146104f25760405163148a1bb160e21b815260040160405180910390fd5b60006104fd60025490565b8261050760025490565b6105119190610c41565b60055461051e9190610c54565b6105289190610c6b565b9050600554811161055f57600554604051630b05a25f60e21b81526004810191909152602481018290526044015b60405180910390fd5b60058190556040518181527f388f446e9526fe5c9af20a5919b342370c8a7c0cb05245afe1e545658fa3cdba9060200160405180910390a15050565b6105a88383836001610748565b505050565b6001600160a01b038381166000908152600160209081526040808320938616835292905220546000198114610625578181101561061657604051637dc7a0d960e11b81526001600160a01b03841660048201526024810182905260448101839052606401610556565b61062584848484036000610748565b50505050565b6001600160a01b03831661065557604051634b637e8f60e11b815260006004820152602401610556565b6001600160a01b03821661067f5760405163ec442f0560e01b815260006004820152602401610556565b6105a883838361081d565b6001600160a01b0382166106b45760405163ec442f0560e01b815260006004820152602401610556565b6103b86000838361081d565b604080516001600160a01b038416602482015260448082018490528251808303909101815260649091019091526020810180516001600160e01b031663a9059cbb60e01b1790526105a8908490610947565b6001600160a01b03821661073c57604051634b637e8f60e11b815260006004820152602401610556565b6103b88260008361081d565b6001600160a01b0384166107725760405163e602df0560e01b815260006004820152602401610556565b6001600160a01b03831661079c57604051634a1406b160e11b815260006004820152602401610556565b6001600160a01b038085166000908152600160209081526040808320938716835292905220829055801561062557826001600160a01b0316846001600160a01b03167f8c5be1e5ebec7d5bd14f71427d1e84f3dd0314c0f7b2291e5b200ac8c7c3b9258460405161080f91815260200190565b60405180910390a350505050565b6001600160a01b03831661084857806002600082825461083d9190610c41565b909155506108ba9050565b6001600160a01b0383166000908152602081905260409020548181101561089b5760405163391434e360e21b81526001600160a01b03851660048201526024810182905260448101839052606401610556565b6001600160a01b03841660009081526020819052604090209082900390555b6001600160a01b0382166108d6576002805482900390556108f5565b6001600160a01b03821660009081526020819052604090208054820190555b816001600160a01b0316836001600160a01b03167fddf252ad1be2c89b69c2b068fc378daa952ba7f163c4a11628f55a4df523b3ef8360405161093a91815260200190565b60405180910390a3505050565b600061095c6001600160a01b038416836109aa565b9050805160001415801561098157508080602001905181019061097f9190610c8d565b155b156105a857604051635274afe760e01b81526001600160a01b0384166004820152602401610556565b606061035e8383600084600080856001600160a01b031684866040516109d09190610caf565b60006040518083038185875af1925050503d8060008114610a0d576040519150601f19603f3d011682016040523d82523d6000602084013e610a12565b606091505b5091509150610a22868383610a2c565b9695505050505050565b606082610a4157610a3c82610a88565b61035e565b8151158015610a5857506001600160a01b0384163b155b15610a8157604051639996b31560e01b81526001600160a01b0385166004820152602401610556565b508061035e565b805115610a985780518082602001fd5b604051630a12f52160e11b815260040160405180910390fd5b60005b83811015610acc578181015183820152602001610ab4565b50506000910152565b6020815260008251806020840152610af4816040850160208701610ab1565b601f01601f19169190910160400192915050565b80356001600160a01b0381168114610b1f57600080fd5b919050565b60008060408385031215610b3757600080fd5b610b4083610b08565b946020939093013593505050565b600080600060608486031215610b6357600080fd5b610b6c84610b08565b9250610b7a60208501610b08565b9150604084013590509250925092565b600060208284031215610b9c57600080fd5b61035e82610b08565b600060208284031215610bb757600080fd5b5035919050565b60008060408385031215610bd157600080fd5b610bda83610b08565b9150610be860208401610b08565b90509250929050565b600181811c90821680610c0557607f821691505b602082108103610c2557634e487b7160e01b600052602260045260246000fd5b50919050565b634e487b7160e01b600052601160045260246000fd5b8082018082111561033957610339610c2b565b808202811582820484141761033957610339610c2b565b600082610c8857634e487b7160e01b600052601260045260246000fd5b500490565b600060208284031215610c9f57600080fd5b8151801515811461035e57600080fd5b60008251610cc1818460208701610ab1565b919091019291505056fea26469706673582212206ac032168befc9cc390924e8c0301578a5dead3cb91ca937b1ad0d1ab0a85b7c64736f6c63430008140033360894a13ba1a3210667c828492db98dca3e2076cc3735a920a3ca505d382bbca264697066735822122019d99841ca60a8bf9bbc03da6ad47a685214ba99f3ec81efb7cd5d9bb3ec2c2f64736f6c63430008140033","linkReferences":{}},"methodIdentifiers":{"UPGRADE_INTERFACE_VERSION()":"ad3cb1cc","deposit(address,uint256)":"47e7ef24","flashloan(address,address,uint256,bytes)":"63ad2c41","getAssetFromToken(address)":"46638b10","getCalculatedFee(address,uint256)":"2d85a7db","getFee()":"ced72f87","getFeePrecision()":"2537d324","getPoolFactoryAddress()":"8f3443cb","getPrice(address)":"41976e09","getPriceInWeth(address)":"70a1ed89","initialize(address)":"c4d66de8","isAllowedToken(address)":"cbe230c3","isCurrentlyFlashLoaning(address)":"396ecd78","owner()":"8da5cb5b","proxiableUUID()":"52d1902d","redeem(address,uint256)":"1e9a6950","renounceOwnership()":"715018a6","repay(address,uint256)":"22867d78","s_tokenToAssetToken(address)":"67ebd738","setAllowedToken(address,bool)":"8aaa2284","transferOwnership(address)":"f2fde38b","updateFlashLoanFee(uint256)":"d8566874","upgradeToAndCall(address,bytes)":"4f1ef286"},"id":22}