{"src/upgradedProtocol/ThunderLoanUpgraded.sol":{"ThunderLoanUpgraded":{"abi":[{"type":"constructor","inputs":[],"stateMutability":"nonpayable"},{"type":"function","name":"FEE_PRECISION","inputs":[],"outputs":[{"name":"","type":"uint256","internalType":"uint256"}],"stateMutability":"view"},{"type":"function","name":"UPGRADE_INTERFACE_VERSION","inputs":[],"outputs":[{"name":"","type":"string","internalType":"string"}],"stateMutability":"view"},{"type":"function","name":"deposit","inputs":[{"name":"token","type":"address","internalType":"contract IERC20"},{"name":"amount","type":"uint256","internalType":"uint256"}],"outputs":[],"stateMutability":"nonpayable"},{"type":"function","name":"flashloan","inputs":[{"name":"receiverAddress","type":"address","internalType":"address"},{"name":"token","type":"address","internalType":"contract IERC20"},{"name":"amount","type":"uint256","internalType":"uint256"},{"name":"params","type":"bytes","internalType":"bytes"}],"outputs":[],"stateMutability":"nonpayable"},{"type":"function","name":"getAssetFromToken","inputs":[{"name":"token","type":"address","internalType":"contract IERC20"}],"outputs":[{"name":"","type":"address","internalType":"contract AssetToken"}],"stateMutability":"view"},{"type":"function","name":"getCalculatedFee","inputs":[{"name":"token","type":"address","internalType":"contract IERC20"},{"name":"amount","type":"uint256","internalType":"uint256"}],"outputs":[{"name":"fee","type":"uint256","internalType":"uint256"}],"stateMutability":"view"},{"type":"function","name":"getFee","inputs":[],"outputs":[{"name":"","type":"uint256","internalType":"uint256"}],"stateMutability":"view"},{"type":"function","name":"getPoolFactoryAddress","inputs":[],"outputs":[{"name":"","type":"address","internalType":"address"}],"stateMutability":"view"},{"type":"function","name":"getPrice","inputs":[{"name":"token","type":"address","internalType":"address"}],"outputs":[{"name":"","type":"uint256","internalType":"uint256"}],"stateMutability":"view"},{"type":"function","name":"getPriceInWeth","inputs":[{"name":"token","type":"address","internalType":"address"}],"outputs":[{"name":"","type":"uint256","internalType":"uint256"}],"stateMutability":"view"},{"type":"function","name":"initialize","inputs":[{"name":"tswapAddress","type":"address","internalType":"address"}],"outputs":[],"stateMutability":"nonpayable"},{"type":"function","name":"isAllowedToken","inputs":[{"name":"token","type":"address","internalType":"contract IERC20"}],"outputs":[{"name":"","type":"bool","internalType":"bool"}],"stateMutability":"view"},{"type":"function","name":"isCurrentlyFlashLoaning","inputs":[{"name":"token","type":"address","internalType":"contract IERC20"}],"outputs":[{"name":"","type":"bool","internalType":"bool"}],"stateMutability":"view"},{"type":"function","name":"owner","inputs":[],"outputs":[{"name":"","type":"address","internalType":"address"}],"stateMutability":"view"},{"type":"function","name":"proxiableUUID","inputs":[],"outputs":[{"name":"","type":"bytes32","internalType":"bytes32"}],"stateMutability":"view"},{"type":"function","name":"redeem","inputs":[{"name":"token","type":"address","internalType":"contract IERC20"},{"name":"amountOfAssetToken","type":"uint256","internalType":"uint256"}],"outputs":[],"stateMutability":"nonpayable"},{"type":"function","name":"renounceOwnership","inputs":[],"outputs":[],"stateMutability":"nonpayable"},{"type":"function","name":"repay","inputs":[{"name":"token","type":"address","internalType":"contract IERC20"},{"name":"amount","type":"uint256","internalType":"uint256"}],"outputs":[],"stateMutability":"nonpayable"},{"type":"function","name":"s_tokenToAssetToken","inputs":[{"name":"","type":"address","internalType":"contract IERC20"}],"outputs":[{"name":"","type":"address","internalType":"contract AssetToken"}],"stateMutability":"view"},{"type":"function","name":"setAllowedToken","inputs":[{"name":"token","type":"address","internalType":"contract IERC20"},{"name":"allowed","type":"bool","internalType":"bool"}],"outputs":[{"name":"","type":"address","internalType":"contract AssetToken"}],"stateMutability":"nonpayable"},{"type":"function","name":"transferOwnership","inputs":[{"name":"newOwner","type":"address","internalType":"address"}],"outputs":[],"stateMutability":"nonpayable"},{"type":"function","name":"updateFlashLoanFee","inputs":[{"name":"newFee","type":"uint256","internalType":"uint256"}],"outputs":[],"stateMutability":"nonpayable"},{"type":"function","name":"upgradeToAndCall","inputs":[{"name":"newImplementation","type":"address","internalType":"address"},{"name":"data","type":"bytes","internalType":"bytes"}],"outputs":[],"stateMutability":"payable"},{"type":"event","name":"AllowedTokenSet","inputs":[{"name":"token","type":"address","indexed":true,"internalType":"contract IERC20"},{"name":"asset","type":"address","indexed":true,"internalType":"contract AssetToken"},{"name":"allowed","type":"bool","indexed":false,"internalType":"bool"}],"anonymous":false},{"type":"event","name":"Deposit","inputs":[{"name":"account","type":"address","indexed":true,"internalType":"address"},{"name":"token","type":"address","indexed":true,"internalType":"contract IERC20"},{"name":"amount","type":"uint256","indexed":false,"internalType":"uint256"}],"anonymous":false},{"type":"event","name":"FlashLoan","inputs":[{"name":"receiverAddress","type":"address","indexed":true,"internalType":"address"},{"name":"token","type":"address","indexed":true,"internalType":"contract IERC20"},{"name":"amount","type":"uint256","indexed":false,"internalType":"uint256"},{"name":"fee","type":"uint256","indexed":false,"internalType":"uint256"},{"name":"params","type":"bytes","indexed":false,"internalType":"bytes"}],"anonymous":false},{"type":"event","name":"Initialized","inputs":[{"name":"version","type":"uint64","indexed":false,"internalType":"uint64"}],"anonymous":false},{"type":"event","name":"OwnershipTransferred","inputs":[{"name":"previousOwner","type":"address","indexed":true,"internalType":"address"},{"name":"newOwner","type":"address","indexed":true,"internalType":"address"}],"anonymous":false},{"type":"event","name":"Redeemed","inputs":[{"name":"account","type":"address","indexed":true,"internalType":"address"},{"name":"token","type":"address","indexed":true,"internalType":"contract IERC20"},{"name":"amountOfAssetToken","type":"uint256","indexed":false,"internalType":"uint256"},{"name":"amountOfUnderlying","type":"uint256","indexed":false,"internalType":"uint256"}],"anonymous":false},{"type":"event","name":"Upgraded","inputs":[{"name":"implementation","type":"address","indexed":true,"internalType":"address"}],"anonymous":false},{"type":"error","name":"AddressEmptyCode","inputs":[{"name":"target","type":"address","internalType":"address"}]},{"type":"error","name":"AddressInsufficientBalance","inputs":[{"name":"account","type":"address","internalType":"address"}]},{"type":"error","name":"ERC1967InvalidImplementation","inputs":[{"name":"implementation","type":"address","internalType":"address"}]},{"type":"error","name":"ERC1967NonPayable","inputs":[]},{"type":"error","name":"FailedInnerCall","inputs":[]},{"type":"error","name":"InvalidInitialization","inputs":[]},{"type":"error","name":"NotInitializing","inputs":[]},{"type":"error","name":"OwnableInvalidOwner","inputs":[{"name":"owner","type":"address","internalType":"address"}]},{"type":"error","name":"OwnableUnauthorizedAccount","inputs":[{"name":"account","type":"address","internalType":"address"}]},{"type":"error","name":"SafeERC20FailedOperation","inputs":[{"name":"token","type":"address","internalType":"address"}]},{"type":"error","name":"ThunderLoan__AlreadyAllowed","inputs":[]},{"type":"error","name":"ThunderLoan__BadNewFee","inputs":[]},{"type":"error","name":"ThunderLoan__CallerIsNotContract","inputs":[]},{"type":"error","name":"ThunderLoan__CantBeZero","inputs":[]},{"type":"error","name":"ThunderLoan__ExhangeRateCanOnlyIncrease","inputs":[]},{"type":"error","name":"ThunderLoan__NotAllowedToken","inputs":[{"name":"token","type":"address","internalType":"contract IERC20"}]},{"type":"error","name":"ThunderLoan__NotCurrentlyFlashLoaning","inputs":[]},{"type":"error","name":"ThunderLoan__NotEnoughTokenBalance","inputs":[{"name":"startingBalance","type":"uint256","internalType":"uint256"},{"name":"amount","type":"uint256","internalType":"uint256"}]},{"type":"error","name":"ThunderLoan__NotPaidBack","inputs":[{"name":"expectedEndingBalance","type":"uint256","internalType":"uint256"},{"name":"endingBalance","type":"uint256","internalType":"uint256"}]},{"type":"error","name":"UUPSUnauthorizedCallContext","inputs":[]},{"type":"error","name":"UUPSUnsupportedProxiableUUID","inputs":[{"name":"slot","type":"bytes32","internalType":"bytes32"}]}],"userdoc":{},"devdoc":{},"evm":{"bytecode":{"object":"60a06040523060805234801561001457600080fd5b5061001d610022565b6100d4565b7ff0c57e16840df040f15088dc2f81fe391c3923bec73e23a9662efc9c229c6a00805468010000000000000000900460ff16156100725760405163f92ee8a960e01b815260040160405180910390fd5b80546001600160401b03908116146100d15780546001600160401b0319166001600160401b0390811782556040519081527fc7f505b2f371ae2175ee4913f4499e1f2633a7b5936321eed1cdaeb6115181d29060200160405180910390a15b50565b6080516132a1620000fe60003960008181611587015281816115b1015261170101526132a16000f3fe6080604052600436106200015b5760003560e01c806370a1ed8911620000c5578063c4d66de81162000078578063c4d66de81462000463578063cbe230c31462000488578063ced72f8714620004c7578063d856687414620004de578063e63a391f1462000503578063f2fde38b146200052157600080fd5b806370a1ed891462000360578063715018a614620003855780638aaa2284146200039d5780638da5cb5b14620003c25780638f3443cb1462000401578063ad3cb1cc146200042157600080fd5b806346638b10116200011e57806346638b10146200025757806347e7ef2414620002ad5780634f1ef28614620002d257806352d1902d14620002e957806363ad2c41146200030157806367ebd738146200032657600080fd5b80631e9a6950146200016057806322867d7814620001875780632d85a7db14620001ac578063396ecd7814620001e457806341976e091462000232575b600080fd5b3480156200016d57600080fd5b50620001856200017f36600462001bf5565b62000546565b005b3480156200019457600080fd5b5062000185620001a636600462001bf5565b62000840565b348015620001b957600080fd5b50620001d1620001cb36600462001bf5565b620008ab565b6040519081526020015b60405180910390f35b348015620001f157600080fd5b50620002216200020336600462001c24565b6001600160a01b031660009081526003602052604090205460ff1690565b6040519015158152602001620001db565b3480156200023f57600080fd5b50620001d16200025136600462001c24565b62000909565b3480156200026457600080fd5b50620002946200027636600462001c24565b6001600160a01b039081166000908152600160205260409020541690565b6040516001600160a01b039091168152602001620001db565b348015620002ba57600080fd5b5062000185620002cc36600462001bf5565b6200091c565b62000185620002e336600462001cb9565b62000bc6565b348015620002f657600080fd5b50620001d162000beb565b3480156200030e57600080fd5b50620001856200032036600462001d56565b62000c0b565b3480156200033357600080fd5b50620002946200034536600462001c24565b6001602052600090815260409020546001600160a01b031681565b3480156200036d57600080fd5b50620001d16200037f36600462001c24565b62000fd4565b3480156200039257600080fd5b5062000185620010b4565b348015620003aa57600080fd5b5062000294620003bc36600462001e0d565b620010cc565b348015620003cf57600080fd5b507f9016d09d72d40fdae2fd8ceac6b6234c7706214fd39c1cd1e609a0528c199300546001600160a01b031662000294565b3480156200040e57600080fd5b506000546001600160a01b031662000294565b3480156200042e57600080fd5b5062000454604051806040016040528060058152602001640352e302e360dc1b81525081565b604051620001db919062001e9f565b3480156200047057600080fd5b50620001856200048236600462001c24565b62001365565b3480156200049557600080fd5b5062000221620004a736600462001c24565b6001600160a01b0390811660009081526001602052604090205416151590565b348015620004d457600080fd5b50600254620001d1565b348015620004eb57600080fd5b5062000185620004fd36600462001eb4565b6200149d565b3480156200051057600080fd5b50620001d1670de0b6b3a764000081565b3480156200052e57600080fd5b50620001856200054036600462001c24565b620014d6565b80806000036200056957604051631b7db47f60e21b815260040160405180910390fd5b6001600160a01b03808416600090815260016020526040902054849116620005b4576040516383ebfce760e01b81526001600160a01b03821660048201526024015b60405180910390fd5b6001600160a01b0380851660009081526001602090815260408083205481516339aa885b60e21b81529151941693849263e6aa216c92600480820193918290030181865afa1580156200060b573d6000803e3d6000fd5b505050506040513d601f19601f8201168201806040525081019062000631919062001ece565b90506000198503620006ab576040516370a0823160e01b81523360048201526001600160a01b038316906370a0823190602401602060405180830381865afa15801562000682573d6000803e3d6000fd5b505050506040513d601f19601f82011682018060405250810190620006a8919062001ece565b94505b6000826001600160a01b0316633a01b9646040518163ffffffff1660e01b8152600401602060405180830381865afa158015620006ec573d6000803e3d6000fd5b505050506040513d601f19601f8201168201806040525081019062000712919062001ece565b6200071e838862001efe565b6200072a919062001f18565b60408051888152602081018390529192506001600160a01b0389169133917f5cdf07ad0fc222442720b108e3ed4c4640f0fadc2ab2253e66f259a0fea83480910160405180910390a3604051632770a7eb60e21b8152336004820152602481018790526001600160a01b03841690639dc29fac90604401600060405180830381600087803b158015620007bc57600080fd5b505af1158015620007d1573d6000803e3d6000fd5b5050604051634efecaa560e01b8152336004820152602481018490526001600160a01b0386169250634efecaa59150604401600060405180830381600087803b1580156200081e57600080fd5b505af115801562000833573d6000803e3d6000fd5b5050505050505050505050565b6001600160a01b03821660009081526003602052604090205460ff166200087a576040516339dd70c360e01b815260040160405180910390fd5b6001600160a01b0380831660008181526001602052604090205490911690620008a6903383856200151a565b505050565b600080670de0b6b3a7640000620008c28562000fd4565b620008ce908562001efe565b620008da919062001f18565b9050670de0b6b3a764000060025482620008f5919062001efe565b62000901919062001f18565b949350505050565b6000620009168262000fd4565b92915050565b80806000036200093f57604051631b7db47f60e21b815260040160405180910390fd5b6001600160a01b0380841660009081526001602052604090205484911662000986576040516383ebfce760e01b81526001600160a01b0382166004820152602401620005ab565b6001600160a01b0380851660009081526001602090815260408083205481516339aa885b60e21b81529151941693849263e6aa216c92600480820193918290030181865afa158015620009dd573d6000803e3d6000fd5b505050506040513d601f19601f8201168201806040525081019062000a03919062001ece565b9050600081836001600160a01b0316633a01b9646040518163ffffffff1660e01b8152600401602060405180830381865afa15801562000a47573d6000803e3d6000fd5b505050506040513d601f19601f8201168201806040525081019062000a6d919062001ece565b62000a79908862001efe565b62000a85919062001f18565b9050866001600160a01b0316336001600160a01b03167f5548c837ab068cf56a2c2479df0882a4922fd203edb7517321831d95078c5f628860405162000acd91815260200190565b60405180910390a36040516340c10f1960e01b8152336004820152602481018290526001600160a01b038416906340c10f1990604401600060405180830381600087803b15801562000b1e57600080fd5b505af115801562000b33573d6000803e3d6000fd5b50505050600062000b458888620008ab565b604051635cf102d760e11b8152600481018290529091506001600160a01b0385169063b9e205ae90602401600060405180830381600087803b15801562000b8b57600080fd5b505af115801562000ba0573d6000803e3d6000fd5b5062000bbc925050506001600160a01b03891633868a6200151a565b5050505050505050565b62000bd06200157c565b62000bdb8262001625565b62000be782826200162f565b5050565b600062000bf7620016f6565b506000805160206200324c83398151915290565b828060000362000c2e57604051631b7db47f60e21b815260040160405180910390fd5b6001600160a01b0380861660009081526001602052604090205486911662000c75576040516383ebfce760e01b81526001600160a01b0382166004820152602401620005ab565b6001600160a01b038681166000818152600160205260408082205490516370a0823160e01b8152931660048401819052929091906370a0823190602401602060405180830381865afa15801562000cd0573d6000803e3d6000fd5b505050506040513d601f19601f8201168201806040525081019062000cf6919062001ece565b90508087111562000d255760405163374fa73360e01b81526004810182905260248101889052604401620005ab565b886001600160a01b03163b60000362000d5157604051639e70e7c560e01b815260040160405180910390fd5b600062000d5f8989620008ab565b604051635cf102d760e11b8152600481018290529091506001600160a01b0384169063b9e205ae90602401600060405180830381600087803b15801562000da557600080fd5b505af115801562000dba573d6000803e3d6000fd5b50505050886001600160a01b03168a6001600160a01b03167fbeeba37359a9db8ffa59be6f1cb1fed1e2a24b099a4799630876ddb8c87eedb98a848b8b60405162000e09949392919062001f64565b60405180910390a36001600160a01b0389811660009081526003602052604090819020805460ff1916600117905551634efecaa560e01b81528b82166004820152602481018a905290841690634efecaa590604401600060405180830381600087803b15801562000e7957600080fd5b505af115801562000e8e573d6000803e3d6000fd5b5050505062000eee898983338b8b60405160240162000eb39695949392919062001f86565b60408051601f198184030181529190526020810180516001600160e01b0316631b11d0ff60e01b1790526001600160a01b038c169062001740565b506040516370a0823160e01b81526001600160a01b038481166004830152600091908b16906370a0823190602401602060405180830381865afa15801562000f3a573d6000803e3d6000fd5b505050506040513d601f19601f8201168201806040525081019062000f60919062001ece565b905062000f6e828462001fcf565b81101562000fa75762000f82828462001fcf565b60405163020665a760e61b8152600481019190915260248101829052604401620005ab565b5050506001600160a01b039096166000908152600360205260409020805460ff1916905550505050505050565b6000805460405163bbe4f6db60e01b81526001600160a01b0384811660048301528392169063bbe4f6db90602401602060405180830381865afa15801562001020573d6000803e3d6000fd5b505050506040513d601f19601f8201168201806040525081019062001046919062001fe5565b9050806001600160a01b031663b7e7fdcc6040518163ffffffff1660e01b8152600401602060405180830381865afa15801562001087573d6000803e3d6000fd5b505050506040513d601f19601f82011682018060405250810190620010ad919062001ece565b9392505050565b620010be62001750565b620010ca6000620017ae565b565b6000620010d862001750565b8115620012f1576001600160a01b0383811660009081526001602052604090205416156200111957604051633cf2777d60e21b815260040160405180910390fd5b6000836001600160a01b03166306fdde036040518163ffffffff1660e01b8152600401600060405180830381865afa1580156200115a573d6000803e3d6000fd5b505050506040513d6000823e601f3d908101601f1916820160405262001184919081019062002005565b6040516020016200119691906200207c565b60405160208183030381529060405290506000846001600160a01b03166395d89b416040518163ffffffff1660e01b8152600401600060405180830381865afa158015620011e8573d6000803e3d6000fd5b505050506040513d6000823e601f3d908101601f1916820160405262001212919081019062002005565b604051602001620012249190620020b2565b6040516020818303038152906040529050600030868484604051620012499062001bd1565b620012589493929190620020de565b604051809103906000f08015801562001275573d6000803e3d6000fd5b506001600160a01b038088166000818152600160205260409081902080549385166001600160a01b0319909416841790555192935090917fe4af36088768226b78a1f394c84aec456100e7ca2b04e36783f8e9a7cc79a0c290620012de90891515815260200190565b60405180910390a3925062000916915050565b6001600160a01b038084166000818152600160205260409081902080546001600160a01b0319811690915590519216918291907fe4af36088768226b78a1f394c84aec456100e7ca2b04e36783f8e9a7cc79a0c2906200135690871515815260200190565b60405180910390a39392505050565b7ff0c57e16840df040f15088dc2f81fe391c3923bec73e23a9662efc9c229c6a008054600160401b810460ff16159067ffffffffffffffff16600081158015620013ac5750825b905060008267ffffffffffffffff166001148015620013ca5750303b155b905081158015620013d9575080155b15620013f85760405163f92ee8a960e01b815260040160405180910390fd5b845467ffffffffffffffff1916600117855583156200142357845460ff60401b1916600160401b1785555b6200142e336200181f565b6200143862001834565b62001443866200183e565b660aa87bee53800060025583156200149557845460ff60401b19168555604051600181527fc7f505b2f371ae2175ee4913f4499e1f2633a7b5936321eed1cdaeb6115181d29060200160405180910390a15b505050505050565b620014a762001750565b670de0b6b3a7640000811115620014d15760405163958939ad60e01b815260040160405180910390fd5b600255565b620014e062001750565b6001600160a01b0381166200150c57604051631e4fbdf760e01b815260006004820152602401620005ab565b6200151781620017ae565b50565b604080516001600160a01b0385811660248301528416604482015260648082018490528251808303909101815260849091019091526020810180516001600160e01b03166323b872dd60e01b1790526200157690859062001853565b50505050565b306001600160a01b037f00000000000000000000000000000000000000000000000000000000000000001614806200160657507f00000000000000000000000000000000000000000000000000000000000000006001600160a01b0316620015fa6000805160206200324c833981519152546001600160a01b031690565b6001600160a01b031614155b15620010ca5760405163703e46dd60e11b815260040160405180910390fd5b6200151762001750565b816001600160a01b03166352d1902d6040518163ffffffff1660e01b8152600401602060405180830381865afa9250505080156200168c575060408051601f3d908101601f19168201909252620016899181019062001ece565b60015b620016b657604051634c9c8ce360e01b81526001600160a01b0383166004820152602401620005ab565b6000805160206200324c8339815191528114620016ea57604051632a87526960e21b815260048101829052602401620005ab565b620008a68383620018bd565b306001600160a01b037f00000000000000000000000000000000000000000000000000000000000000001614620010ca5760405163703e46dd60e11b815260040160405180910390fd5b6060620010ad838360006200191a565b33620017837f9016d09d72d40fdae2fd8ceac6b6234c7706214fd39c1cd1e609a0528c199300546001600160a01b031690565b6001600160a01b031614620010ca5760405163118cdaa760e01b8152336004820152602401620005ab565b7f9016d09d72d40fdae2fd8ceac6b6234c7706214fd39c1cd1e609a0528c19930080546001600160a01b031981166001600160a01b03848116918217845560405192169182907f8be0079c531659141344cd1fd0a4f28419497f9722a3daafe3b4186f6b6457e090600090a3505050565b62001829620019bf565b620015178162001a09565b620010ca620019bf565b62001848620019bf565b620015178162001a13565b60006200186a6001600160a01b0384168362001740565b90508051600014158015620018925750808060200190518101906200189091906200212b565b155b15620008a657604051635274afe760e01b81526001600160a01b0384166004820152602401620005ab565b620018c88262001a3f565b6040516001600160a01b038316907fbc7cd75a20ee27fd9adebab32041f755214dbc6bffa90cc0225b39da2e5c2d3b90600090a28051156200191057620008a6828262001aa7565b62000be762001b23565b606081471015620019415760405163cd78605960e01b8152306004820152602401620005ab565b600080856001600160a01b031684866040516200195f91906200214b565b60006040518083038185875af1925050503d80600081146200199e576040519150601f19603f3d011682016040523d82523d6000602084013e620019a3565b606091505b5091509150620019b586838362001b43565b9695505050505050565b7ff0c57e16840df040f15088dc2f81fe391c3923bec73e23a9662efc9c229c6a0054600160401b900460ff16620010ca57604051631afcd79f60e31b815260040160405180910390fd5b620014e0620019bf565b62001a1d620019bf565b600080546001600160a01b0319166001600160a01b0392909216919091179055565b806001600160a01b03163b60000362001a7757604051634c9c8ce360e01b81526001600160a01b0382166004820152602401620005ab565b6000805160206200324c83398151915280546001600160a01b0319166001600160a01b0392909216919091179055565b6060600080846001600160a01b03168460405162001ac691906200214b565b600060405180830381855af49150503d806000811462001b03576040519150601f19603f3d011682016040523d82523d6000602084013e62001b08565b606091505b509150915062001b1a85838362001b43565b95945050505050565b3415620010ca5760405163b398979f60e01b815260040160405180910390fd5b60608262001b5c5762001b568262001ba7565b620010ad565b815115801562001b7457506001600160a01b0384163b155b1562001b9f57604051639996b31560e01b81526001600160a01b0385166004820152602401620005ab565b5080620010ad565b80511562001bb85780518082602001fd5b604051630a12f52160e11b815260040160405180910390fd5b6110e2806200216a83390190565b6001600160a01b03811681146200151757600080fd5b6000806040838503121562001c0957600080fd5b823562001c168162001bdf565b946020939093013593505050565b60006020828403121562001c3757600080fd5b8135620010ad8162001bdf565b634e487b7160e01b600052604160045260246000fd5b604051601f8201601f1916810167ffffffffffffffff8111828210171562001c865762001c8662001c44565b604052919050565b600067ffffffffffffffff82111562001cab5762001cab62001c44565b50601f01601f191660200190565b6000806040838503121562001ccd57600080fd5b823562001cda8162001bdf565b9150602083013567ffffffffffffffff81111562001cf757600080fd5b8301601f8101851362001d0957600080fd5b803562001d2062001d1a8262001c8e565b62001c5a565b81815286602083850101111562001d3657600080fd5b816020840160208301376000602083830101528093505050509250929050565b60008060008060006080868803121562001d6f57600080fd5b853562001d7c8162001bdf565b9450602086013562001d8e8162001bdf565b935060408601359250606086013567ffffffffffffffff8082111562001db357600080fd5b818801915088601f83011262001dc857600080fd5b81358181111562001dd857600080fd5b89602082850101111562001deb57600080fd5b9699959850939650602001949392505050565b80151581146200151757600080fd5b6000806040838503121562001e2157600080fd5b823562001e2e8162001bdf565b9150602083013562001e408162001dfe565b809150509250929050565b60005b8381101562001e6857818101518382015260200162001e4e565b50506000910152565b6000815180845262001e8b81602086016020860162001e4b565b601f01601f19169290920160200192915050565b602081526000620010ad602083018462001e71565b60006020828403121562001ec757600080fd5b5035919050565b60006020828403121562001ee157600080fd5b5051919050565b634e487b7160e01b600052601160045260246000fd5b808202811582820484141762000916576200091662001ee8565b60008262001f3657634e487b7160e01b600052601260045260246000fd5b500490565b81835281816020850137506000828201602090810191909152601f909101601f19169091010190565b848152836020820152606060408201526000620019b560608301848662001f3b565b6001600160a01b03878116825260208201879052604082018690528416606082015260a06080820181905260009062001fc3908301848662001f3b565b98975050505050505050565b8082018082111562000916576200091662001ee8565b60006020828403121562001ff857600080fd5b8151620010ad8162001bdf565b6000602082840312156200201857600080fd5b815167ffffffffffffffff8111156200203057600080fd5b8201601f810184136200204257600080fd5b80516200205362001d1a8262001c8e565b8181528560208385010111156200206957600080fd5b62001b1a82602083016020860162001e4b565b6b02a343ab73232b92637b0b7160a51b815260008251620020a581600c85016020870162001e4b565b91909101600c0192915050565b611d1b60f21b815260008251620020d181600285016020870162001e4b565b9190910160020192915050565b6001600160a01b038581168252841660208201526080604082018190526000906200210c9083018562001e71565b828103606084015262002120818562001e71565b979650505050505050565b6000602082840312156200213e57600080fd5b8151620010ad8162001dfe565b600082516200215f81846020870162001e4b565b919091019291505056fe60c06040523480156200001157600080fd5b50604051620010e2380380620010e28339810160408190526200003491620001af565b81816003620000448382620002d3565b506004620000538282620002d3565b50859150506001600160a01b0381166200008057604051639f1301a560e01b815260040160405180910390fd5b836001600160a01b038116620000a957604051639f1301a560e01b815260040160405180910390fd5b5050506001600160a01b0392831660a0525016608052670de0b6b3a76400006005556200039f565b6001600160a01b0381168114620000e757600080fd5b50565b634e487b7160e01b600052604160045260246000fd5b600082601f8301126200011257600080fd5b81516001600160401b03808211156200012f576200012f620000ea565b604051601f8301601f19908116603f011681019082821181831017156200015a576200015a620000ea565b816040528381526020925086838588010111156200017757600080fd5b600091505b838210156200019b57858201830151818301840152908201906200017c565b600093810190920192909252949350505050565b60008060008060808587031215620001c657600080fd5b8451620001d381620000d1565b6020860151909450620001e681620000d1565b60408601519093506001600160401b03808211156200020457600080fd5b620002128883890162000100565b935060608701519150808211156200022957600080fd5b50620002388782880162000100565b91505092959194509250565b600181811c908216806200025957607f821691505b6020821081036200027a57634e487b7160e01b600052602260045260246000fd5b50919050565b601f821115620002ce57600081815260208120601f850160051c81016020861015620002a95750805b601f850160051c820191505b81811015620002ca57828155600101620002b5565b5050505b505050565b81516001600160401b03811115620002ef57620002ef620000ea565b620003078162000300845462000244565b8462000280565b602080601f8311600181146200033f5760008415620003265750858301515b600019600386901b1c1916600185901b178555620002ca565b600085815260208120601f198616915b8281101562000370578886015182559484019460019091019084016200034f565b50858210156200038f5787850151600019600388901b60f8161c191681555b5050505050600190811b01905550565b60805160a051610d01620003e160003960008181610370015281816103c70152818161045301526104b40152600081816101ef01526104120152610d016000f3fe608060405234801561001057600080fd5b50600436106101005760003560e01c806370a0823111610097578063a9059cbb11610066578063a9059cbb1461022c578063b9e205ae1461023f578063dd62ed3e14610252578063e6aa216c1461028b57600080fd5b806370a08231146101b157806395d89b41146101da5780639816f473146101e25780639dc29fac1461021957600080fd5b8063313ce567116100d3578063313ce5671461016b5780633a01b9641461017a57806340c10f19146101895780634efecaa51461019e57600080fd5b806306fdde0314610105578063095ea7b31461012357806318160ddd1461014657806323b872dd14610158575b600080fd5b61010d610293565b60405161011a9190610ad5565b60405180910390f35b610136610131366004610b24565b610325565b604051901515815260200161011a565b6002545b60405190815260200161011a565b610136610166366004610b4e565b61033f565b6040516012815260200161011a565b61014a670de0b6b3a764000081565b61019c610197366004610b24565b610365565b005b61019c6101ac366004610b24565b6103bc565b61014a6101bf366004610b8a565b6001600160a01b031660009081526020819052604090205490565b61010d610439565b6040516001600160a01b037f000000000000000000000000000000000000000000000000000000000000000016815260200161011a565b61019c610227366004610b24565b610448565b61013661023a366004610b24565b61049b565b61019c61024d366004610ba5565b6104a9565b61014a610260366004610bbe565b6001600160a01b03918216600090815260016020908152604080832093909416825291909152205490565b60055461014a565b6060600380546102a290610bf1565b80601f01602080910402602001604051908101604052809291908181526020018280546102ce90610bf1565b801561031b5780601f106102f05761010080835404028352916020019161031b565b820191906000526020600020905b8154815290600101906020018083116102fe57829003601f168201915b5050505050905090565b60003361033381858561059b565b60019150505b92915050565b60003361034d8582856105ad565b61035885858561062b565b60019150505b9392505050565b336001600160a01b037f000000000000000000000000000000000000000000000000000000000000000016146103ae5760405163148a1bb160e21b815260040160405180910390fd5b6103b8828261068a565b5050565b336001600160a01b037f000000000000000000000000000000000000000000000000000000000000000016146104055760405163148a1bb160e21b815260040160405180910390fd5b6103b86001600160a01b037f00000000000000000000000000000000000000000000000000000000000000001683836106c0565b6060600480546102a290610bf1565b336001600160a01b037f000000000000000000000000000000000000000000000000000000000000000016146104915760405163148a1bb160e21b815260040160405180910390fd5b6103b88282610712565b60003361033381858561062b565b336001600160a01b037f000000000000000000000000000000000000000000000000000000000000000016146104f25760405163148a1bb160e21b815260040160405180910390fd5b60006104fd60025490565b8261050760025490565b6105119190610c41565b60055461051e9190610c54565b6105289190610c6b565b9050600554811161055f57600554604051630b05a25f60e21b81526004810191909152602481018290526044015b60405180910390fd5b60058190556040518181527f388f446e9526fe5c9af20a5919b342370c8a7c0cb05245afe1e545658fa3cdba9060200160405180910390a15050565b6105a88383836001610748565b505050565b6001600160a01b038381166000908152600160209081526040808320938616835292905220546000198114610625578181101561061657604051637dc7a0d960e11b81526001600160a01b03841660048201526024810182905260448101839052606401610556565b61062584848484036000610748565b50505050565b6001600160a01b03831661065557604051634b637e8f60e11b815260006004820152602401610556565b6001600160a01b03821661067f5760405163ec442f0560e01b815260006004820152602401610556565b6105a883838361081d565b6001600160a01b0382166106b45760405163ec442f0560e01b815260006004820152602401610556565b6103b86000838361081d565b604080516001600160a01b038416602482015260448082018490528251808303909101815260649091019091526020810180516001600160e01b031663a9059cbb60e01b1790526105a8908490610947565b6001600160a01b03821661073c57604051634b637e8f60e11b815260006004820152602401610556565b6103b88260008361081d565b6001600160a01b0384166107725760405163e602df0560e01b815260006004820152602401610556565b6001600160a01b03831661079c57604051634a1406b160e11b815260006004820152602401610556565b6001600160a01b038085166000908152600160209081526040808320938716835292905220829055801561062557826001600160a01b0316846001600160a01b03167f8c5be1e5ebec7d5bd14f71427d1e84f3dd0314c0f7b2291e5b200ac8c7c3b9258460405161080f91815260200190565b60405180910390a350505050565b6001600160a01b03831661084857806002600082825461083d9190610c41565b909155506108ba9050565b6001600160a01b0383166000908152602081905260409020548181101561089b5760405163391434e360e21b81526001600160a01b03851660048201526024810182905260448101839052606401610556565b6001600160a01b03841660009081526020819052604090209082900390555b6001600160a01b0382166108d6576002805482900390556108f5565b6001600160a01b03821660009081526020819052604090208054820190555b816001600160a01b0316836001600160a01b03167fddf252ad1be2c89b69c2b068fc378daa952ba7f163c4a11628f55a4df523b3ef8360405161093a91815260200190565b60405180910390a3505050565b600061095c6001600160a01b038416836109aa565b9050805160001415801561098157508080602001905181019061097f9190610c8d565b155b156105a857604051635274afe760e01b81526001600160a01b0384166004820152602401610556565b606061035e8383600084600080856001600160a01b031684866040516109d09190610caf565b60006040518083038185875af1925050503d8060008114610a0d576040519150601f19603f3d011682016040523d82523d6000602084013e610a12565b606091505b5091509150610a22868383610a2c565b9695505050505050565b606082610a4157610a3c82610a88565b61035e565b8151158015610a5857506001600160a01b0384163b155b15610a8157604051639996b31560e01b81526001600160a01b0385166004820152602401610556565b508061035e565b805115610a985780518082602001fd5b604051630a12f52160e11b815260040160405180910390fd5b60005b83811015610acc578181015183820152602001610ab4565b50506000910152565b6020815260008251806020840152610af4816040850160208701610ab1565b601f01601f19169190910160400192915050565b80356001600160a01b0381168114610b1f57600080fd5b919050565b60008060408385031215610b3757600080fd5b610b4083610b08565b946020939093013593505050565b600080600060608486031215610b6357600080fd5b610b6c84610b08565b9250610b7a60208501610b08565b9150604084013590509250925092565b600060208284031215610b9c57600080fd5b61035e82610b08565b600060208284031215610bb757600080fd5b5035919050565b60008060408385031215610bd157600080fd5b610bda83610b08565b9150610be860208401610b08565b90509250929050565b600181811c90821680610c0557607f821691505b602082108103610c2557634e487b7160e01b600052602260045260246000fd5b50919050565b634e487b7160e01b600052601160045260246000fd5b8082018082111561033957610339610c2b565b808202811582820484141761033957610339610c2b565b600082610c8857634e487b7160e01b600052601260045260246000fd5b500490565b600060208284031215610c9f57600080fd5b8151801515811461035e57600080fd5b60008251610cc1818460208701610ab1565b919091019291505056fea26469706673582212206ac032168befc9cc390924e8c0301578a5dead3cb91ca937b1ad0d1ab0a85b7c64736f6c63430008140033360894a13ba1a3210667c828492db98dca3e2076cc3735a920a3ca505d382bbca264697066735822122086a8d2ff3f7e7af37294bbaf2abd1dce59ce06570b854ba00643ae5041d7003564736f6c63430008140033","opcodes":"PUSH1 0xA0 PUSH1 0x40 MSTORE ADDRESS PUSH1 0x80 MSTORE CALLVALUE DUP1 ISZERO PUSH2 0x14 JUMPI PUSH1 0x0 DUP1 REVERT JUMPDEST POP PUSH2 0x1D PUSH2 0x22 JUMP JUMPDEST PUSH2 0xD4 JUMP JUMPDEST PUSH32 0xF0C57E16840DF040F15088DC2F81FE391C3923BEC73E23A9662EFC9C229C6A00 DUP1 SLOAD PUSH9 0x10000000000000000 SWAP1 DIV PUSH1 0xFF AND ISZERO PUSH2 0x72 JUMPI PUSH1 0x40 MLOAD PUSH4 0xF92EE8A9 PUSH1 0xE0 SHL DUP2 MSTORE PUSH1 0x4 ADD PUSH1 0x40 MLOAD DUP1 SWAP2 SUB SWAP1 REVERT JUMPDEST DUP1 SLOAD PUSH1 0x1 PUSH1 0x1 PUSH1 0x40 SHL SUB SWAP1 DUP2 AND EQ PUSH2 0xD1 JUMPI DUP1 SLOAD PUSH1 0x1 PUSH1 0x1 PUSH1 0x40 SHL SUB NOT AND PUSH1 0x1 PUSH1 0x1 PUSH1 0x40 SHL SUB SWAP1 DUP2 OR DUP3 SSTORE PUSH1 0x40 MLOAD SWAP1 DUP2 MSTORE PUSH32 0xC7F505B2F371AE2175EE4913F4499E1F2633A7B5936321EED1CDAEB6115181D2 SWAP1 PUSH1 0x20 ADD PUSH1 0x40 MLOAD DUP1 SWAP2 SUB SWAP1 LOG1 JUMPDEST POP JUMP JUMPDEST PUSH1 0x80 MLOAD PUSH2 0x32A1 PUSH3 0xFE PUSH1 0x0 CODECOPY PUSH1 0x0 DUP2 DUP2 PUSH2 0x1587 ADD MSTORE DUP2 DUP2 PUSH2 0x15B1 ADD MSTORE PUSH2 0x1701 ADD MSTORE PUSH2 0x32A1 PUSH1 0x0 RETURN INVALID PUSH1 0x80 PUSH1 0x40 MSTORE PUSH1 0x4 CALLDATASIZE LT PUSH3 0x15B JUMPI PUSH1 0x0 CALLDATALOAD PUSH1 0xE0 SHR DUP1 PUSH4 0x70A1ED89 GT PUSH3 0xC5 JUMPI DUP1 PUSH4 0xC4D66DE8 GT PUSH3 0x78 JUMPI DUP1 PUSH4 0xC4D66DE8 EQ PUSH3 0x463 JUMPI DUP1 PUSH4 0xCBE230C3 EQ PUSH3 0x488 JUMPI DUP1 PUSH4 0xCED72F87 EQ PUSH3 0x4C7 JUMPI DUP1 PUSH4 0xD8566874 EQ PUSH3 0x4DE JUMPI DUP1 PUSH4 0xE63A391F EQ PUSH3 0x503 JUMPI DUP1 PUSH4 0xF2FDE38B EQ PUSH3 0x521 JUMPI PUSH1 0x0 DUP1 REVERT JUMPDEST DUP1 PUSH4 0x70A1ED89 EQ PUSH3 0x360 JUMPI DUP1 PUSH4 0x715018A6 EQ PUSH3 0x385 JUMPI DUP1 PUSH4 0x8AAA2284 EQ PUSH3 0x39D JUMPI DUP1 PUSH4 0x8DA5CB5B EQ PUSH3 0x3C2 JUMPI DUP1 PUSH4 0x8F3443CB EQ PUSH3 0x401 JUMPI DUP1 PUSH4 0xAD3CB1CC EQ PUSH3 0x421 JUMPI PUSH1 0x0 DUP1 REVERT JUMPDEST DUP1 PUSH4 0x46638B10 GT PUSH3 0x11E JUMPI DUP1 PUSH4 0x46638B10 EQ PUSH3 0x257 JUMPI DUP1 PUSH4 0x47E7EF24 EQ PUSH3 0x2AD JUMPI DUP1 PUSH4 0x4F1EF286 EQ PUSH3 0x2D2 JUMPI DUP1 PUSH4 0x52D1902D EQ PUSH3 0x2E9 JUMPI DUP1 PUSH4 0x63AD2C41 EQ PUSH3 0x301 JUMPI DUP1 PUSH4 0x67EBD738 EQ PUSH3 0x326 JUMPI PUSH1 0x0 DUP1 REVERT JUMPDEST DUP1 PUSH4 0x1E9A6950 EQ PUSH3 0x160 JUMPI DUP1 PUSH4 0x22867D78 EQ PUSH3 0x187 JUMPI DUP1 PUSH4 0x2D85A7DB EQ PUSH3 0x1AC JUMPI DUP1 PUSH4 0x396ECD78 EQ PUSH3 0x1E4 JUMPI DUP1 PUSH4 0x41976E09 EQ PUSH3 0x232 JUMPI JUMPDEST PUSH1 0x0 DUP1 REVERT JUMPDEST CALLVALUE DUP1 ISZERO PUSH3 0x16D JUMPI PUSH1 0x0 DUP1 REVERT JUMPDEST POP PUSH3 0x185 PUSH3 0x17F CALLDATASIZE PUSH1 0x4 PUSH3 0x1BF5 JUMP JUMPDEST PUSH3 0x546 JUMP JUMPDEST STOP JUMPDEST CALLVALUE DUP1 ISZERO PUSH3 0x194 JUMPI PUSH1 0x0 DUP1 REVERT JUMPDEST POP PUSH3 0x185 PUSH3 0x1A6 CALLDATASIZE PUSH1 0x4 PUSH3 0x1BF5 JUMP JUMPDEST PUSH3 0x840 JUMP JUMPDEST CALLVALUE DUP1 ISZERO PUSH3 0x1B9 JUMPI PUSH1 0x0 DUP1 REVERT JUMPDEST POP PUSH3 0x1D1 PUSH3 0x1CB CALLDATASIZE PUSH1 0x4 PUSH3 0x1BF5 JUMP JUMPDEST PUSH3 0x8AB JUMP JUMPDEST PUSH1 0x40 MLOAD SWAP1 DUP2 MSTORE PUSH1 0x20 ADD JUMPDEST PUSH1 0x40 MLOAD DUP1 SWAP2 SUB SWAP1 RETURN JUMPDEST CALLVALUE DUP1 ISZERO PUSH3 0x1F1 JUMPI PUSH1 0x0 DUP1 REVERT JUMPDEST POP PUSH3 0x221 PUSH3 0x203 CALLDATASIZE PUSH1 0x4 PUSH3 0x1C24 JUMP JUMPDEST PUSH1 0x1 PUSH1 0x1 PUSH1 0xA0 SHL SUB AND PUSH1 0x0 SWAP1 DUP2 MSTORE PUSH1 0x3 PUSH1 0x20 MSTORE PUSH1 0x40 SWAP1 KECCAK256 SLOAD PUSH1 0xFF AND SWAP1 JUMP JUMPDEST PUSH1 0x40 MLOAD SWAP1 ISZERO ISZERO DUP2 MSTORE PUSH1 0x20 ADD PUSH3 0x1DB JUMP JUMPDEST CALLVALUE DUP1 ISZERO PUSH3 0x23F JUMPI PUSH1 0x0 DUP1 REVERT JUMPDEST POP PUSH3 0x1D1 PUSH3 0x251 CALLDATASIZE PUSH1 0x4 PUSH3 0x1C24 JUMP JUMPDEST PUSH3 0x909 JUMP JUMPDEST CALLVALUE DUP1 ISZERO PUSH3 0x264 JUMPI PUSH1 0x0 DUP1 REVERT JUMPDEST POP PUSH3 0x294 PUSH3 0x276 CALLDATASIZE PUSH1 0x4 PUSH3 0x1C24 JUMP JUMPDEST PUSH1 0x1 PUSH1 0x1 PUSH1 0xA0 SHL SUB SWAP1 DUP2 AND PUSH1 0x0 SWAP1 DUP2 MSTORE PUSH1 0x1 PUSH1 0x20 MSTORE PUSH1 0x40 SWAP1 KECCAK256 SLOAD AND SWAP1 JUMP JUMPDEST PUSH1 0x40 MLOAD PUSH1 0x1 PUSH1 0x1 PUSH1 0xA0 SHL SUB SWAP1 SWAP2 AND DUP2 MSTORE PUSH1 0x20 ADD PUSH3 0x1DB JUMP JUMPDEST CALLVALUE DUP1 ISZERO PUSH3 0x2BA JUMPI PUSH1 0x0 DUP1 REVERT JUMPDEST POP PUSH3 0x185 PUSH3 0x2CC CALLDATASIZE PUSH1 0x4 PUSH3 0x1BF5 JUMP JUMPDEST PUSH3 0x91C JUMP JUMPDEST PUSH3 0x185 PUSH3 0x2E3 CALLDATASIZE PUSH1 0x4 PUSH3 0x1CB9 JUMP JUMPDEST PUSH3 0xBC6 JUMP JUMPDEST CALLVALUE DUP1 ISZERO PUSH3 0x2F6 JUMPI PUSH1 0x0 DUP1 REVERT JUMPDEST POP PUSH3 0x1D1 PUSH3 0xBEB JUMP JUMPDEST CALLVALUE DUP1 ISZERO PUSH3 0x30E JUMPI PUSH1 0x0 DUP1 REVERT JUMPDEST POP PUSH3 0x185 PUSH3 0x320 CALLDATASIZE PUSH1 0x4 PUSH3 0x1D56 JUMP JUMPDEST PUSH3 0xC0B JUMP JUMPDEST CALLVALUE DUP1 ISZERO PUSH3 0x333 JUMPI PUSH1 0x0 DUP1 REVERT JUMPDEST POP PUSH3 0x294 PUSH3 0x345 CALLDATASIZE PUSH1 0x4 PUSH3 0x1C24 JUMP JUMPDEST PUSH1 0x1 PUSH1 0x20 MSTORE PUSH1 0x0 SWAP1 DUP2 MSTORE PUSH1 0x40 SWAP1 KECCAK256 SLOAD PUSH1 0x1 PUSH1 0x1 PUSH1 0xA0 SHL SUB AND DUP2 JUMP JUMPDEST CALLVALUE DUP1 ISZERO PUSH3 0x36D JUMPI PUSH1 0x0 DUP1 REVERT JUMPDEST POP PUSH3 0x1D1 PUSH3 0x37F CALLDATASIZE PUSH1 0x4 PUSH3 0x1C24 JUMP JUMPDEST PUSH3 0xFD4 JUMP JUMPDEST CALLVALUE DUP1 ISZERO PUSH3 0x392 JUMPI PUSH1 0x0 DUP1 REVERT JUMPDEST POP PUSH3 0x185 PUSH3 0x10B4 JUMP JUMPDEST CALLVALUE DUP1 ISZERO PUSH3 0x3AA JUMPI PUSH1 0x0 DUP1 REVERT JUMPDEST POP PUSH3 0x294 PUSH3 0x3BC CALLDATASIZE PUSH1 0x4 PUSH3 0x1E0D JUMP JUMPDEST PUSH3 0x10CC JUMP JUMPDEST CALLVALUE DUP1 ISZERO PUSH3 0x3CF JUMPI PUSH1 0x0 DUP1 REVERT JUMPDEST POP PUSH32 0x9016D09D72D40FDAE2FD8CEAC6B6234C7706214FD39C1CD1E609A0528C199300 SLOAD PUSH1 0x1 PUSH1 0x1 PUSH1 0xA0 SHL SUB AND PUSH3 0x294 JUMP JUMPDEST CALLVALUE DUP1 ISZERO PUSH3 0x40E JUMPI PUSH1 0x0 DUP1 REVERT JUMPDEST POP PUSH1 0x0 SLOAD PUSH1 0x1 PUSH1 0x1 PUSH1 0xA0 SHL SUB AND PUSH3 0x294 JUMP JUMPDEST CALLVALUE DUP1 ISZERO PUSH3 0x42E JUMPI PUSH1 0x0 DUP1 REVERT JUMPDEST POP PUSH3 0x454 PUSH1 0x40 MLOAD DUP1 PUSH1 0x40 ADD PUSH1 0x40 MSTORE DUP1 PUSH1 0x5 DUP2 MSTORE PUSH1 0x20 ADD PUSH5 0x352E302E3 PUSH1 0xDC SHL DUP2 MSTORE POP DUP2 JUMP JUMPDEST PUSH1 0x40 MLOAD PUSH3 0x1DB SWAP2 SWAP1 PUSH3 0x1E9F JUMP JUMPDEST CALLVALUE DUP1 ISZERO PUSH3 0x470 JUMPI PUSH1 0x0 DUP1 REVERT JUMPDEST POP PUSH3 0x185 PUSH3 0x482 CALLDATASIZE PUSH1 0x4 PUSH3 0x1C24 JUMP JUMPDEST PUSH3 0x1365 JUMP JUMPDEST CALLVALUE DUP1 ISZERO PUSH3 0x495 JUMPI PUSH1 0x0 DUP1 REVERT JUMPDEST POP PUSH3 0x221 PUSH3 0x4A7 CALLDATASIZE PUSH1 0x4 PUSH3 0x1C24 JUMP JUMPDEST PUSH1 0x1 PUSH1 0x1 PUSH1 0xA0 SHL SUB SWAP1 DUP2 AND PUSH1 0x0 SWAP1 DUP2 MSTORE PUSH1 0x1 PUSH1 0x20 MSTORE PUSH1 0x40 SWAP1 KECCAK256 SLOAD AND ISZERO ISZERO SWAP1 JUMP JUMPDEST CALLVALUE DUP1 ISZERO PUSH3 0x4D4 JUMPI PUSH1 0x0 DUP1 REVERT JUMPDEST POP PUSH1 0x2 SLOAD PUSH3 0x1D1 JUMP JUMPDEST CALLVALUE DUP1 ISZERO PUSH3 0x4EB JUMPI PUSH1 0x0 DUP1 REVERT JUMPDEST POP PUSH3 0x185 PUSH3 0x4FD CALLDATASIZE PUSH1 0x4 PUSH3 0x1EB4 JUMP JUMPDEST PUSH3 0x149D JUMP JUMPDEST CALLVALUE DUP1 ISZERO PUSH3 0x510 JUMPI PUSH1 0x0 DUP1 REVERT JUMPDEST POP PUSH3 0x1D1 PUSH8 0xDE0B6B3A7640000 DUP2 JUMP JUMPDEST CALLVALUE DUP1 ISZERO PUSH3 0x52E JUMPI PUSH1 0x0 DUP1 REVERT JUMPDEST POP PUSH3 0x185 PUSH3 0x540 CALLDATASIZE PUSH1 0x4 PUSH3 0x1C24 JUMP JUMPDEST PUSH3 0x14D6 JUMP JUMPDEST DUP1 DUP1 PUSH1 0x0 SUB PUSH3 0x569 JUMPI PUSH1 0x40 MLOAD PUSH4 0x1B7DB47F PUSH1 0xE2 SHL DUP2 MSTORE PUSH1 0x4 ADD PUSH1 0x40 MLOAD DUP1 SWAP2 SUB SWAP1 REVERT JUMPDEST PUSH1 0x1 PUSH1 0x1 PUSH1 0xA0 SHL SUB DUP1 DUP5 AND PUSH1 0x0 SWAP1 DUP2 MSTORE PUSH1 0x1 PUSH1 0x20 MSTORE PUSH1 0x40 SWAP1 KECCAK256 SLOAD DUP5 SWAP2 AND PUSH3 0x5B4 JUMPI PUSH1 0x40 MLOAD PUSH4 0x83EBFCE7 PUSH1 0xE0 SHL DUP2 MSTORE PUSH1 0x1 PUSH1 0x1 PUSH1 0xA0 SHL SUB DUP3 AND PUSH1 0x4 DUP3 ADD MSTORE PUSH1 0x24 ADD JUMPDEST PUSH1 0x40 MLOAD DUP1 SWAP2 SUB SWAP1 REVERT JUMPDEST PUSH1 0x1 PUSH1 0x1 PUSH1 0xA0 SHL SUB DUP1 DUP6 AND PUSH1 0x0 SWAP1 DUP2 MSTORE PUSH1 0x1 PUSH1 0x20 SWAP1 DUP2 MSTORE PUSH1 0x40 DUP1 DUP4 KECCAK256 SLOAD DUP2 MLOAD PUSH4 0x39AA885B PUSH1 0xE2 SHL DUP2 MSTORE SWAP2 MLOAD SWAP5 AND SWAP4 DUP5 SWAP3 PUSH4 0xE6AA216C SWAP3 PUSH1 0x4 DUP1 DUP3 ADD SWAP4 SWAP2 DUP3 SWAP1 SUB ADD DUP2 DUP7 GAS STATICCALL ISZERO DUP1 ISZERO PUSH3 0x60B JUMPI RETURNDATASIZE PUSH1 0x0 DUP1 RETURNDATACOPY RETURNDATASIZE PUSH1 0x0 REVERT JUMPDEST POP POP POP POP PUSH1 0x40 MLOAD RETURNDATASIZE PUSH1 0x1F NOT PUSH1 0x1F DUP3 ADD AND DUP3 ADD DUP1 PUSH1 0x40 MSTORE POP DUP2 ADD SWAP1 PUSH3 0x631 SWAP2 SWAP1 PUSH3 0x1ECE JUMP JUMPDEST SWAP1 POP PUSH1 0x0 NOT DUP6 SUB PUSH3 0x6AB JUMPI PUSH1 0x40 MLOAD PUSH4 0x70A08231 PUSH1 0xE0 SHL DUP2 MSTORE CALLER PUSH1 0x4 DUP3 ADD MSTORE PUSH1 0x1 PUSH1 0x1 PUSH1 0xA0 SHL SUB DUP4 AND SWAP1 PUSH4 0x70A08231 SWAP1 PUSH1 0x24 ADD PUSH1 0x20 PUSH1 0x40 MLOAD DUP1 DUP4 SUB DUP2 DUP7 GAS STATICCALL ISZERO DUP1 ISZERO PUSH3 0x682 JUMPI RETURNDATASIZE PUSH1 0x0 DUP1 RETURNDATACOPY RETURNDATASIZE PUSH1 0x0 REVERT JUMPDEST POP POP POP POP PUSH1 0x40 MLOAD RETURNDATASIZE PUSH1 0x1F NOT PUSH1 0x1F DUP3 ADD AND DUP3 ADD DUP1 PUSH1 0x40 MSTORE POP DUP2 ADD SWAP1 PUSH3 0x6A8 SWAP2 SWAP1 PUSH3 0x1ECE JUMP JUMPDEST SWAP5 POP JUMPDEST PUSH1 0x0 DUP3 PUSH1 0x1 PUSH1 0x1 PUSH1 0xA0 SHL SUB AND PUSH4 0x3A01B964 PUSH1 0x40 MLOAD DUP2 PUSH4 0xFFFFFFFF AND PUSH1 0xE0 SHL DUP2 MSTORE PUSH1 0x4 ADD PUSH1 0x20 PUSH1 0x40 MLOAD DUP1 DUP4 SUB DUP2 DUP7 GAS STATICCALL ISZERO DUP1 ISZERO PUSH3 0x6EC JUMPI RETURNDATASIZE PUSH1 0x0 DUP1 RETURNDATACOPY RETURNDATASIZE PUSH1 0x0 REVERT JUMPDEST POP POP POP POP PUSH1 0x40 MLOAD RETURNDATASIZE PUSH1 0x1F NOT PUSH1 0x1F DUP3 ADD AND DUP3 ADD DUP1 PUSH1 0x40 MSTORE POP DUP2 ADD SWAP1 PUSH3 0x712 SWAP2 SWAP1 PUSH3 0x1ECE JUMP JUMPDEST PUSH3 0x71E DUP4 DUP9 PUSH3 0x1EFE JUMP JUMPDEST PUSH3 0x72A SWAP2 SWAP1 PUSH3 0x1F18 JUMP JUMPDEST PUSH1 0x40 DUP1 MLOAD DUP9 DUP2 MSTORE PUSH1 0x20 DUP2 ADD DUP4 SWAP1 MSTORE SWAP2 SWAP3 POP PUSH1 0x1 PUSH1 0x1 PUSH1 0xA0 SHL SUB DUP10 AND SWAP2 CALLER SWAP2 PUSH32 0x5CDF07AD0FC222442720B108E3ED4C4640F0FADC2AB2253E66F259A0FEA83480 SWAP2 ADD PUSH1 0x40 MLOAD DUP1 SWAP2 SUB SWAP1 LOG3 PUSH1 0x40 MLOAD PUSH4 0x2770A7EB PUSH1 0xE2 SHL DUP2 MSTORE CALLER PUSH1 0x4 DUP3 ADD MSTORE PUSH1 0x24 DUP2 ADD DUP8 SWAP1 MSTORE PUSH1 0x1 PUSH1 0x1 PUSH1 0xA0 SHL SUB DUP5 AND SWAP1 PUSH4 0x9DC29FAC SWAP1 PUSH1 0x44 ADD PUSH1 0x0 PUSH1 0x40 MLOAD DUP1 DUP4 SUB DUP2 PUSH1 0x0 DUP8 DUP1 EXTCODESIZE ISZERO DUP1 ISZERO PUSH3 0x7BC JUMPI PUSH1 0x0 DUP1 REVERT JUMPDEST POP GAS CALL ISZERO DUP1 ISZERO PUSH3 0x7D1 JUMPI RETURNDATASIZE PUSH1 0x0 DUP1 RETURNDATACOPY RETURNDATASIZE PUSH1 0x0 REVERT JUMPDEST POP POP PUSH1 0x40 MLOAD PUSH4 0x4EFECAA5 PUSH1 0xE0 SHL DUP2 MSTORE CALLER PUSH1 0x4 DUP3 ADD MSTORE PUSH1 0x24 DUP2 ADD DUP5 SWAP1 MSTORE PUSH1 0x1 PUSH1 0x1 PUSH1 0xA0 SHL SUB DUP7 AND SWAP3 POP PUSH4 0x4EFECAA5 SWAP2 POP PUSH1 0x44 ADD PUSH1 0x0 PUSH1 0x40 MLOAD DUP1 DUP4 SUB DUP2 PUSH1 0x0 DUP8 DUP1 EXTCODESIZE ISZERO DUP1 ISZERO PUSH3 0x81E JUMPI PUSH1 0x0 DUP1 REVERT JUMPDEST POP GAS CALL ISZERO DUP1 ISZERO PUSH3 0x833 JUMPI RETURNDATASIZE PUSH1 0x0 DUP1 RETURNDATACOPY RETURNDATASIZE PUSH1 0x0 REVERT JUMPDEST POP POP POP POP POP POP POP POP POP POP POP JUMP JUMPDEST PUSH1 0x1 PUSH1 0x1 PUSH1 0xA0 SHL SUB DUP3 AND PUSH1 0x0 SWAP1 DUP2 MSTORE PUSH1 0x3 PUSH1 0x20 MSTORE PUSH1 0x40 SWAP1 KECCAK256 SLOAD PUSH1 0xFF AND PUSH3 0x87A JUMPI PUSH1 0x40 MLOAD PUSH4 0x39DD70C3 PUSH1 0xE0 SHL DUP2 MSTORE PUSH1 0x4 ADD PUSH1 0x40 MLOAD DUP1 SWAP2 SUB SWAP1 REVERT JUMPDEST PUSH1 0x1 PUSH1 0x1 PUSH1 0xA0 SHL SUB DUP1 DUP4 AND PUSH1 0x0 DUP2 DUP2 MSTORE PUSH1 0x1 PUSH1 0x20 MSTORE PUSH1 0x40 SWAP1 KECCAK256 SLOAD SWAP1 SWAP2 AND SWAP1 PUSH3 0x8A6 SWAP1 CALLER DUP4 DUP6 PUSH3 0x151A JUMP JUMPDEST POP POP POP JUMP JUMPDEST PUSH1 0x0 DUP1 PUSH8 0xDE0B6B3A7640000 PUSH3 0x8C2 DUP6 PUSH3 0xFD4 JUMP JUMPDEST PUSH3 0x8CE SWAP1 DUP6 PUSH3 0x1EFE JUMP JUMPDEST PUSH3 0x8DA SWAP2 SWAP1 PUSH3 0x1F18 JUMP JUMPDEST SWAP1 POP PUSH8 0xDE0B6B3A7640000 PUSH1 0x2 SLOAD DUP3 PUSH3 0x8F5 SWAP2 SWAP1 PUSH3 0x1EFE JUMP JUMPDEST PUSH3 0x901 SWAP2 SWAP1 PUSH3 0x1F18 JUMP JUMPDEST SWAP5 SWAP4 POP POP POP POP JUMP JUMPDEST PUSH1 0x0 PUSH3 0x916 DUP3 PUSH3 0xFD4 JUMP JUMPDEST SWAP3 SWAP2 POP POP JUMP JUMPDEST DUP1 DUP1 PUSH1 0x0 SUB PUSH3 0x93F JUMPI PUSH1 0x40 MLOAD PUSH4 0x1B7DB47F PUSH1 0xE2 SHL DUP2 MSTORE PUSH1 0x4 ADD PUSH1 0x40 MLOAD DUP1 SWAP2 SUB SWAP1 REVERT JUMPDEST PUSH1 0x1 PUSH1 0x1 PUSH1 0xA0 SHL SUB DUP1 DUP5 AND PUSH1 0x0 SWAP1 DUP2 MSTORE PUSH1 0x1 PUSH1 0x20 MSTORE PUSH1 0x40 SWAP1 KECCAK256 SLOAD DUP5 SWAP2 AND PUSH3 0x986 JUMPI PUSH1 0x40 MLOAD PUSH4 0x83EBFCE7 PUSH1 0xE0 SHL DUP2 MSTORE PUSH1 0x1 PUSH1 0x1 PUSH1 0xA0 SHL SUB DUP3 AND PUSH1 0x4 DUP3 ADD MSTORE PUSH1 0x24 ADD PUSH3 0x5AB JUMP JUMPDEST PUSH1 0x1 PUSH1 0x1 PUSH1 0xA0 SHL SUB DUP1 DUP6 AND PUSH1 0x0 SWAP1 DUP2 MSTORE PUSH1 0x1 PUSH1 0x20 SWAP1 DUP2 MSTORE PUSH1 0x40 DUP1 DUP4 KECCAK256 SLOAD DUP2 MLOAD PUSH4 0x39AA885B PUSH1 0xE2 SHL DUP2 MSTORE SWAP2 MLOAD SWAP5 AND SWAP4 DUP5 SWAP3 PUSH4 0xE6AA216C SWAP3 PUSH1 0x4 DUP1 DUP3 ADD SWAP4 SWAP2 DUP3 SWAP1 SUB ADD DUP2 DUP7 GAS STATICCALL ISZERO DUP1 ISZERO PUSH3 0x9DD JUMPI RETURNDATASIZE PUSH1 0x0 DUP1 RETURNDATACOPY RETURNDATASIZE PUSH1 0x0 REVERT JUMPDEST POP POP POP POP PUSH1 0x40 MLOAD RETURNDATASIZE PUSH1 0x1F NOT PUSH1 0x1F DUP3 ADD AND DUP3 ADD DUP1 PUSH1 0x40 MSTORE POP DUP2 ADD SWAP1 PUSH3 0xA03 SWAP2 SWAP1 PUSH3 0x1ECE JUMP JUMPDEST SWAP1 POP PUSH1 0x0 DUP2 DUP4 PUSH1 0x1 PUSH1 0x1 PUSH1 0xA0 SHL SUB AND PUSH4 0x3A01B964 PUSH1 0x40 MLOAD DUP2 PUSH4 0xFFFFFFFF AND PUSH1 0xE0 SHL DUP2 MSTORE PUSH1 0x4 ADD PUSH1 0x20 PUSH1 0x40 MLOAD DUP1 DUP4 SUB DUP2 DUP7 GAS STATICCALL ISZERO DUP1 ISZERO PUSH3 0xA47 JUMPI RETURNDATASIZE PUSH1 0x0 DUP1 RETURNDATACOPY RETURNDATASIZE PUSH1 0x0 REVERT JUMPDEST POP POP POP POP PUSH1 0x40 MLOAD RETURNDATASIZE PUSH1 0x1F NOT PUSH1 0x1F DUP3 ADD AND DUP3 ADD DUP1 PUSH1 0x40 MSTORE POP DUP2 ADD SWAP1 PUSH3 0xA6D SWAP2 SWAP1 PUSH3 0x1ECE JUMP JUMPDEST PUSH3 0xA79 SWAP1 DUP9 PUSH3 0x1EFE JUMP JUMPDEST PUSH3 0xA85 SWAP2 SWAP1 PUSH3 0x1F18 JUMP JUMPDEST SWAP1 POP DUP7 PUSH1 0x1 PUSH1 0x1 PUSH1 0xA0 SHL SUB AND CALLER PUSH1 0x1 PUSH1 0x1 PUSH1 0xA0 SHL SUB AND PUSH32 0x5548C837AB068CF56A2C2479DF0882A4922FD203EDB7517321831D95078C5F62 DUP9 PUSH1 0x40 MLOAD PUSH3 0xACD SWAP2 DUP2 MSTORE PUSH1 0x20 ADD SWAP1 JUMP JUMPDEST PUSH1 0x40 MLOAD DUP1 SWAP2 SUB SWAP1 LOG3 PUSH1 0x40 MLOAD PUSH4 0x40C10F19 PUSH1 0xE0 SHL DUP2 MSTORE CALLER PUSH1 0x4 DUP3 ADD MSTORE PUSH1 0x24 DUP2 ADD DUP3 SWAP1 MSTORE PUSH1 0x1 PUSH1 0x1 PUSH1 0xA0 SHL SUB DUP5 AND SWAP1 PUSH4 0x40C10F19 SWAP1 PUSH1 0x44 ADD PUSH1 0x0 PUSH1 0x40 MLOAD DUP1 DUP4 SUB DUP2 PUSH1 0x0 DUP8 DUP1 EXTCODESIZE ISZERO DUP1 ISZERO PUSH3 0xB1E JUMPI PUSH1 0x0 DUP1 REVERT JUMPDEST POP GAS CALL ISZERO DUP1 ISZERO PUSH3 0xB33 JUMPI RETURNDATASIZE PUSH1 0x0 DUP1 RETURNDATACOPY RETURNDATASIZE PUSH1 0x0 REVERT JUMPDEST POP POP POP POP PUSH1 0x0 PUSH3 0xB45 DUP9 DUP9 PUSH3 0x8AB JUMP JUMPDEST PUSH1 0x40 MLOAD PUSH4 0x5CF102D7 PUSH1 0xE1 SHL DUP2 MSTORE PUSH1 0x4 DUP2 ADD DUP3 SWAP1 MSTORE SWAP1 SWAP2 POP PUSH1 0x1 PUSH1 0x1 PUSH1 0xA0 SHL SUB DUP6 AND SWAP1 PUSH4 0xB9E205AE SWAP1 PUSH1 0x24 ADD PUSH1 0x0 PUSH1 0x40 MLOAD DUP1 DUP4 SUB DUP2 PUSH1 0x0 DUP8 DUP1 EXTCODESIZE ISZERO DUP1 ISZERO PUSH3 0xB8B JUMPI PUSH1 0x0 DUP1 REVERT JUMPDEST POP GAS CALL ISZERO DUP1 ISZERO PUSH3 0xBA0 JUMPI RETURNDATASIZE PUSH1 0x0 DUP1 RETURNDATACOPY RETURNDATASIZE PUSH1 0x0 REVERT JUMPDEST POP PUSH3 0xBBC SWAP3 POP POP POP PUSH1 0x1 PUSH1 0x1 PUSH1 0xA0 SHL SUB DUP10 AND CALLER DUP7 DUP11 PUSH3 0x151A JUMP JUMPDEST POP POP POP POP POP POP POP POP JUMP JUMPDEST PUSH3 0xBD0 PUSH3 0x157C JUMP JUMPDEST PUSH3 0xBDB DUP3 PUSH3 0x1625 JUMP JUMPDEST PUSH3 0xBE7 DUP3 DUP3 PUSH3 0x162F JUMP JUMPDEST POP POP JUMP JUMPDEST PUSH1 0x0 PUSH3 0xBF7 PUSH3 0x16F6 JUMP JUMPDEST POP PUSH1 0x0 DUP1 MLOAD PUSH1 0x20 PUSH3 0x324C DUP4 CODECOPY DUP2 MLOAD SWAP2 MSTORE SWAP1 JUMP JUMPDEST DUP3 DUP1 PUSH1 0x0 SUB PUSH3 0xC2E JUMPI PUSH1 0x40 MLOAD PUSH4 0x1B7DB47F PUSH1 0xE2 SHL DUP2 MSTORE PUSH1 0x4 ADD PUSH1 0x40 MLOAD DUP1 SWAP2 SUB SWAP1 REVERT JUMPDEST PUSH1 0x1 PUSH1 0x1 PUSH1 0xA0 SHL SUB DUP1 DUP7 AND PUSH1 0x0 SWAP1 DUP2 MSTORE PUSH1 0x1 PUSH1 0x20 MSTORE PUSH1 0x40 SWAP1 KECCAK256 SLOAD DUP7 SWAP2 AND PUSH3 0xC75 JUMPI PUSH1 0x40 MLOAD PUSH4 0x83EBFCE7 PUSH1 0xE0 SHL DUP2 MSTORE PUSH1 0x1 PUSH1 0x1 PUSH1 0xA0 SHL SUB DUP3 AND PUSH1 0x4 DUP3 ADD MSTORE PUSH1 0x24 ADD PUSH3 0x5AB JUMP JUMPDEST PUSH1 0x1 PUSH1 0x1 PUSH1 0xA0 SHL SUB DUP7 DUP2 AND PUSH1 0x0 DUP2 DUP2 MSTORE PUSH1 0x1 PUSH1 0x20 MSTORE PUSH1 0x40 DUP1 DUP3 KECCAK256 SLOAD SWAP1 MLOAD PUSH4 0x70A08231 PUSH1 0xE0 SHL DUP2 MSTORE SWAP4 AND PUSH1 0x4 DUP5 ADD DUP2 SWAP1 MSTORE SWAP3 SWAP1 SWAP2 SWAP1 PUSH4 0x70A08231 SWAP1 PUSH1 0x24 ADD PUSH1 0x20 PUSH1 0x40 MLOAD DUP1 DUP4 SUB DUP2 DUP7 GAS STATICCALL ISZERO DUP1 ISZERO PUSH3 0xCD0 JUMPI RETURNDATASIZE PUSH1 0x0 DUP1 RETURNDATACOPY RETURNDATASIZE PUSH1 0x0 REVERT JUMPDEST POP POP POP POP PUSH1 0x40 MLOAD RETURNDATASIZE PUSH1 0x1F NOT PUSH1 0x1F DUP3 ADD AND DUP3 ADD DUP1 PUSH1 0x40 MSTORE POP DUP2 ADD SWAP1 PUSH3 0xCF6 SWAP2 SWAP1 PUSH3 0x1ECE JUMP JUMPDEST SWAP1 POP DUP1 DUP8 GT ISZERO PUSH3 0xD25 JUMPI PUSH1 0x40 MLOAD PUSH4 0x374FA733 PUSH1 0xE0 SHL DUP2 MSTORE PUSH1 0x4 DUP2 ADD DUP3 SWAP1 MSTORE PUSH1 0x24 DUP2 ADD DUP9 SWAP1 MSTORE PUSH1 0x44 ADD PUSH3 0x5AB JUMP JUMPDEST DUP9 PUSH1 0x1 PUSH1 0x1 PUSH1 0xA0 SHL SUB AND EXTCODESIZE PUSH1 0x0 SUB PUSH3 0xD51 JUMPI PUSH1 0x40 MLOAD PUSH4 0x9E70E7C5 PUSH1 0xE0 SHL DUP2 MSTORE PUSH1 0x4 ADD PUSH1 0x40 MLOAD DUP1 SWAP2 SUB SWAP1 REVERT JUMPDEST PUSH1 0x0 PUSH3 0xD5F DUP10 DUP10 PUSH3 0x8AB JUMP JUMPDEST PUSH1 0x40 MLOAD PUSH4 0x5CF102D7 PUSH1 0xE1 SHL DUP2 MSTORE PUSH1 0x4 DUP2 ADD DUP3 SWAP1 MSTORE SWAP1 SWAP2 POP PUSH1 0x1 PUSH1 0x1 PUSH1 0xA0 SHL SUB DUP5 AND SWAP1 PUSH4 0xB9E205AE SWAP1 PUSH1 0x24 ADD PUSH1 0x0 PUSH1 0x40 MLOAD DUP1 DUP4 SUB DUP2 PUSH1 0x0 DUP8 DUP1 EXTCODESIZE ISZERO DUP1 ISZERO PUSH3 0xDA5 JUMPI PUSH1 0x0 DUP1 REVERT JUMPDEST POP GAS CALL ISZERO DUP1 ISZERO PUSH3 0xDBA JUMPI RETURNDATASIZE PUSH1 0x0 DUP1 RETURNDATACOPY RETURNDATASIZE PUSH1 0x0 REVERT JUMPDEST POP POP POP POP DUP9 PUSH1 0x1 PUSH1 0x1 PUSH1 0xA0 SHL SUB AND DUP11 PUSH1 0x1 PUSH1 0x1 PUSH1 0xA0 SHL SUB AND PUSH32 0xBEEBA37359A9DB8FFA59BE6F1CB1FED1E2A24B099A4799630876DDB8C87EEDB9 DUP11 DUP5 DUP12 DUP12 PUSH1 0x40 MLOAD PUSH3 0xE09 SWAP5 SWAP4 SWAP3 SWAP2 SWAP1 PUSH3 0x1F64 JUMP JUMPDEST PUSH1 0x40 MLOAD DUP1 SWAP2 SUB SWAP1 LOG3 PUSH1 0x1 PUSH1 0x1 PUSH1 0xA0 SHL SUB DUP10 DUP2 AND PUSH1 0x0 SWAP1 DUP2 MSTORE PUSH1 0x3 PUSH1 0x20 MSTORE PUSH1 0x40 SWAP1 DUP2 SWAP1 KECCAK256 DUP1 SLOAD PUSH1 0xFF NOT AND PUSH1 0x1 OR SWAP1 SSTORE MLOAD PUSH4 0x4EFECAA5 PUSH1 0xE0 SHL DUP2 MSTORE DUP12 DUP3 AND PUSH1 0x4 DUP3 ADD MSTORE PUSH1 0x24 DUP2 ADD DUP11 SWAP1 MSTORE SWAP1 DUP5 AND SWAP1 PUSH4 0x4EFECAA5 SWAP1 PUSH1 0x44 ADD PUSH1 0x0 PUSH1 0x40 MLOAD DUP1 DUP4 SUB DUP2 PUSH1 0x0 DUP8 DUP1 EXTCODESIZE ISZERO DUP1 ISZERO PUSH3 0xE79 JUMPI PUSH1 0x0 DUP1 REVERT JUMPDEST POP GAS CALL ISZERO DUP1 ISZERO PUSH3 0xE8E JUMPI RETURNDATASIZE PUSH1 0x0 DUP1 RETURNDATACOPY RETURNDATASIZE PUSH1 0x0 REVERT JUMPDEST POP POP POP POP PUSH3 0xEEE DUP10 DUP10 DUP4 CALLER DUP12 DUP12 PUSH1 0x40 MLOAD PUSH1 0x24 ADD PUSH3 0xEB3 SWAP7 SWAP6 SWAP5 SWAP4 SWAP3 SWAP2 SWAP1 PUSH3 0x1F86 JUMP JUMPDEST PUSH1 0x40 DUP1 MLOAD PUSH1 0x1F NOT DUP2 DUP5 SUB ADD DUP2 MSTORE SWAP2 SWAP1 MSTORE PUSH1 0x20 DUP2 ADD DUP1 MLOAD PUSH1 0x1 PUSH1 0x1 PUSH1 0xE0 SHL SUB AND PUSH4 0x1B11D0FF PUSH1 0xE0 SHL OR SWAP1 MSTORE PUSH1 0x1 PUSH1 0x1 PUSH1 0xA0 SHL SUB DUP13 AND SWAP1 PUSH3 0x1740 JUMP JUMPDEST POP PUSH1 0x40 MLOAD PUSH4 0x70A08231 PUSH1 0xE0 SHL DUP2 MSTORE PUSH1 0x1 PUSH1 0x1 PUSH1 0xA0 SHL SUB DUP5 DUP2 AND PUSH1 0x4 DUP4 ADD MSTORE PUSH1 0x0 SWAP2 SWAP1 DUP12 AND SWAP1 PUSH4 0x70A08231 SWAP1 PUSH1 0x24 ADD PUSH1 0x20 PUSH1 0x40 MLOAD DUP1 DUP4 SUB DUP2 DUP7 GAS STATICCALL ISZERO DUP1 ISZERO PUSH3 0xF3A JUMPI RETURNDATASIZE PUSH1 0x0 DUP1 RETURNDATACOPY RETURNDATASIZE PUSH1 0x0 REVERT JUMPDEST POP POP POP POP PUSH1 0x40 MLOAD RETURNDATASIZE PUSH1 0x1F NOT PUSH1 0x1F DUP3 ADD AND DUP3 ADD DUP1 PUSH1 0x40 MSTORE POP DUP2 ADD SWAP1 PUSH3 0xF60 SWAP2 SWAP1 PUSH3 0x1ECE JUMP JUMPDEST SWAP1 POP PUSH3 0xF6E DUP3 DUP5 PUSH3 0x1FCF JUMP JUMPDEST DUP2 LT ISZERO PUSH3 0xFA7 JUMPI PUSH3 0xF82 DUP3 DUP5 PUSH3 0x1FCF JUMP JUMPDEST PUSH1 0x40 MLOAD PUSH4 0x20665A7 PUSH1 0xE6 SHL DUP2 MSTORE PUSH1 0x4 DUP2 ADD SWAP2 SWAP1 SWAP2 MSTORE PUSH1 0x24 DUP2 ADD DUP3 SWAP1 MSTORE PUSH1 0x44 ADD PUSH3 0x5AB JUMP JUMPDEST POP POP POP PUSH1 0x1 PUSH1 0x1 PUSH1 0xA0 SHL SUB SWAP1 SWAP7 AND PUSH1 0x0 SWAP1 DUP2 MSTORE PUSH1 0x3 PUSH1 0x20 MSTORE PUSH1 0x40 SWAP1 KECCAK256 DUP1 SLOAD PUSH1 0xFF NOT AND SWAP1 SSTORE POP POP POP POP POP POP POP JUMP JUMPDEST PUSH1 0x0 DUP1 SLOAD PUSH1 0x40 MLOAD PUSH4 0xBBE4F6DB PUSH1 0xE0 SHL DUP2 MSTORE PUSH1 0x1 PUSH1 0x1 PUSH1 0xA0 SHL SUB DUP5 DUP2 AND PUSH1 0x4 DUP4 ADD MSTORE DUP4 SWAP3 AND SWAP1 PUSH4 0xBBE4F6DB SWAP1 PUSH1 0x24 ADD PUSH1 0x20 PUSH1 0x40 MLOAD DUP1 DUP4 SUB DUP2 DUP7 GAS STATICCALL ISZERO DUP1 ISZERO PUSH3 0x1020 JUMPI RETURNDATASIZE PUSH1 0x0 DUP1 RETURNDATACOPY RETURNDATASIZE PUSH1 0x0 REVERT JUMPDEST POP POP POP POP PUSH1 0x40 MLOAD RETURNDATASIZE PUSH1 0x1F NOT PUSH1 0x1F DUP3 ADD AND DUP3 ADD DUP1 PUSH1 0x40 MSTORE POP DUP2 ADD SWAP1 PUSH3 0x1046 SWAP2 SWAP1 PUSH3 0x1FE5 JUMP JUMPDEST SWAP1 POP DUP1 PUSH1 0x1 PUSH1 0x1 PUSH1 0xA0 SHL SUB AND PUSH4 0xB7E7FDCC PUSH1 0x40 MLOAD DUP2 PUSH4 0xFFFFFFFF AND PUSH1 0xE0 SHL DUP2 MSTORE PUSH1 0x4 ADD PUSH1 0x20 PUSH1 0x40 MLOAD DUP1 DUP4 SUB DUP2 DUP7 GAS STATICCALL ISZERO DUP1 ISZERO PUSH3 0x1087 JUMPI RETURNDATASIZE PUSH1 0x0 DUP1 RETURNDATACOPY RETURNDATASIZE PUSH1 0x0 REVERT JUMPDEST POP POP POP POP PUSH1 0x40 MLOAD RETURNDATASIZE PUSH1 0x1F NOT PUSH1 0x1F DUP3 ADD AND DUP3 ADD DUP1 PUSH1 0x40 MSTORE POP DUP2 ADD SWAP1 PUSH3 0x10AD SWAP2 SWAP1 PUSH3 0x1ECE JUMP JUMPDEST SWAP4 SWAP3 POP POP POP JUMP JUMPDEST PUSH3 0x10BE PUSH3 0x1750 JUMP JUMPDEST PUSH3 0x10CA PUSH1 0x0 PUSH3 0x17AE JUMP JUMPDEST JUMP JUMPDEST PUSH1 0x0 PUSH3 0x10D8 PUSH3 0x1750 JUMP JUMPDEST DUP2 ISZERO PUSH3 0x12F1 JUMPI PUSH1 0x1 PUSH1 0x1 PUSH1 0xA0 SHL SUB DUP4 DUP2 AND PUSH1 0x0 SWAP1 DUP2 MSTORE PUSH1 0x1 PUSH1 0x20 MSTORE PUSH1 0x40 SWAP1 KECCAK256 SLOAD AND ISZERO PUSH3 0x1119 JUMPI PUSH1 0x40 MLOAD PUSH4 0x3CF2777D PUSH1 0xE2 SHL DUP2 MSTORE PUSH1 0x4 ADD PUSH1 0x40 MLOAD DUP1 SWAP2 SUB SWAP1 REVERT JUMPDEST PUSH1 0x0 DUP4 PUSH1 0x1 PUSH1 0x1 PUSH1 0xA0 SHL SUB AND PUSH4 0x6FDDE03 PUSH1 0x40 MLOAD DUP2 PUSH4 0xFFFFFFFF AND PUSH1 0xE0 SHL DUP2 MSTORE PUSH1 0x4 ADD PUSH1 0x0 PUSH1 0x40 MLOAD DUP1 DUP4 SUB DUP2 DUP7 GAS STATICCALL ISZERO DUP1 ISZERO PUSH3 0x115A JUMPI RETURNDATASIZE PUSH1 0x0 DUP1 RETURNDATACOPY RETURNDATASIZE PUSH1 0x0 REVERT JUMPDEST POP POP POP POP PUSH1 0x40 MLOAD RETURNDATASIZE PUSH1 0x0 DUP3 RETURNDATACOPY PUSH1 0x1F RETURNDATASIZE SWAP1 DUP2 ADD PUSH1 0x1F NOT AND DUP3 ADD PUSH1 0x40 MSTORE PUSH3 0x1184 SWAP2 SWAP1 DUP2 ADD SWAP1 PUSH3 0x2005 JUMP JUMPDEST PUSH1 0x40 MLOAD PUSH1 0x20 ADD PUSH3 0x1196 SWAP2 SWAP1 PUSH3 0x207C JUMP JUMPDEST PUSH1 0x40 MLOAD PUSH1 0x20 DUP2 DUP4 SUB SUB DUP2 MSTORE SWAP1 PUSH1 0x40 MSTORE SWAP1 POP PUSH1 0x0 DUP5 PUSH1 0x1 PUSH1 0x1 PUSH1 0xA0 SHL SUB AND PUSH4 0x95D89B41 PUSH1 0x40 MLOAD DUP2 PUSH4 0xFFFFFFFF AND PUSH1 0xE0 SHL DUP2 MSTORE PUSH1 0x4 ADD PUSH1 0x0 PUSH1 0x40 MLOAD DUP1 DUP4 SUB DUP2 DUP7 GAS STATICCALL ISZERO DUP1 ISZERO PUSH3 0x11E8 JUMPI RETURNDATASIZE PUSH1 0x0 DUP1 RETURNDATACOPY RETURNDATASIZE PUSH1 0x0 REVERT JUMPDEST POP POP POP POP PUSH1 0x40 MLOAD RETURNDATASIZE PUSH1 0x0 DUP3 RETURNDATACOPY PUSH1 0x1F RETURNDATASIZE SWAP1 DUP2 ADD PUSH1 0x1F NOT AND DUP3 ADD PUSH1 0x40 MSTORE PUSH3 0x1212 SWAP2 SWAP1 DUP2 ADD SWAP1 PUSH3 0x2005 JUMP JUMPDEST PUSH1 0x40 MLOAD PUSH1 0x20 ADD PUSH3 0x1224 SWAP2 SWAP1 PUSH3 0x20B2 JUMP JUMPDEST PUSH1 0x40 MLOAD PUSH1 0x20 DUP2 DUP4 SUB SUB DUP2 MSTORE SWAP1 PUSH1 0x40 MSTORE SWAP1 POP PUSH1 0x0 ADDRESS DUP7 DUP5 DUP5 PUSH1 0x40 MLOAD PUSH3 0x1249 SWAP1 PUSH3 0x1BD1 JUMP JUMPDEST PUSH3 0x1258 SWAP5 SWAP4 SWAP3 SWAP2 SWAP1 PUSH3 0x20DE JUMP JUMPDEST PUSH1 0x40 MLOAD DUP1 SWAP2 SUB SWAP1 PUSH1 0x0 CREATE DUP1 ISZERO DUP1 ISZERO PUSH3 0x1275 JUMPI RETURNDATASIZE PUSH1 0x0 DUP1 RETURNDATACOPY RETURNDATASIZE PUSH1 0x0 REVERT JUMPDEST POP PUSH1 0x1 PUSH1 0x1 PUSH1 0xA0 SHL SUB DUP1 DUP9 AND PUSH1 0x0 DUP2 DUP2 MSTORE PUSH1 0x1 PUSH1 0x20 MSTORE PUSH1 0x40 SWAP1 DUP2 SWAP1 KECCAK256 DUP1 SLOAD SWAP4 DUP6 AND PUSH1 0x1 PUSH1 0x1 PUSH1 0xA0 SHL SUB NOT SWAP1 SWAP5 AND DUP5 OR SWAP1 SSTORE MLOAD SWAP3 SWAP4 POP SWAP1 SWAP2 PUSH32 0xE4AF36088768226B78A1F394C84AEC456100E7CA2B04E36783F8E9A7CC79A0C2 SWAP1 PUSH3 0x12DE SWAP1 DUP10 ISZERO ISZERO DUP2 MSTORE PUSH1 0x20 ADD SWAP1 JUMP JUMPDEST PUSH1 0x40 MLOAD DUP1 SWAP2 SUB SWAP1 LOG3 SWAP3 POP PUSH3 0x916 SWAP2 POP POP JUMP JUMPDEST PUSH1 0x1 PUSH1 0x1 PUSH1 0xA0 SHL SUB DUP1 DUP5 AND PUSH1 0x0 DUP2 DUP2 MSTORE PUSH1 0x1 PUSH1 0x20 MSTORE PUSH1 0x40 SWAP1 DUP2 SWAP1 KECCAK256 DUP1 SLOAD PUSH1 0x1 PUSH1 0x1 PUSH1 0xA0 SHL SUB NOT DUP2 AND SWAP1 SWAP2 SSTORE SWAP1 MLOAD SWAP3 AND SWAP2 DUP3 SWAP2 SWAP1 PUSH32 0xE4AF36088768226B78A1F394C84AEC456100E7CA2B04E36783F8E9A7CC79A0C2 SWAP1 PUSH3 0x1356 SWAP1 DUP8 ISZERO ISZERO DUP2 MSTORE PUSH1 0x20 ADD SWAP1 JUMP JUMPDEST PUSH1 0x40 MLOAD DUP1 SWAP2 SUB SWAP1 LOG3 SWAP4 SWAP3 POP POP POP JUMP JUMPDEST PUSH32 0xF0C57E16840DF040F15088DC2F81FE391C3923BEC73E23A9662EFC9C229C6A00 DUP1 SLOAD PUSH1 0x1 PUSH1 0x40 SHL DUP2 DIV PUSH1 0xFF AND ISZERO SWAP1 PUSH8 0xFFFFFFFFFFFFFFFF AND PUSH1 0x0 DUP2 ISZERO DUP1 ISZERO PUSH3 0x13AC JUMPI POP DUP3 JUMPDEST SWAP1 POP PUSH1 0x0 DUP3 PUSH8 0xFFFFFFFFFFFFFFFF AND PUSH1 0x1 EQ DUP1 ISZERO PUSH3 0x13CA JUMPI POP ADDRESS EXTCODESIZE ISZERO JUMPDEST SWAP1 POP DUP2 ISZERO DUP1 ISZERO PUSH3 0x13D9 JUMPI POP DUP1 ISZERO JUMPDEST ISZERO PUSH3 0x13F8 JUMPI PUSH1 0x40 MLOAD PUSH4 0xF92EE8A9 PUSH1 0xE0 SHL DUP2 MSTORE PUSH1 0x4 ADD PUSH1 0x40 MLOAD DUP1 SWAP2 SUB SWAP1 REVERT JUMPDEST DUP5 SLOAD PUSH8 0xFFFFFFFFFFFFFFFF NOT AND PUSH1 0x1 OR DUP6 SSTORE DUP4 ISZERO PUSH3 0x1423 JUMPI DUP5 SLOAD PUSH1 0xFF PUSH1 0x40 SHL NOT AND PUSH1 0x1 PUSH1 0x40 SHL OR DUP6 SSTORE JUMPDEST PUSH3 0x142E CALLER PUSH3 0x181F JUMP JUMPDEST PUSH3 0x1438 PUSH3 0x1834 JUMP JUMPDEST PUSH3 0x1443 DUP7 PUSH3 0x183E JUMP JUMPDEST PUSH7 0xAA87BEE538000 PUSH1 0x2 SSTORE DUP4 ISZERO PUSH3 0x1495 JUMPI DUP5 SLOAD PUSH1 0xFF PUSH1 0x40 SHL NOT AND DUP6 SSTORE PUSH1 0x40 MLOAD PUSH1 0x1 DUP2 MSTORE PUSH32 0xC7F505B2F371AE2175EE4913F4499E1F2633A7B5936321EED1CDAEB6115181D2 SWAP1 PUSH1 0x20 ADD PUSH1 0x40 MLOAD DUP1 SWAP2 SUB SWAP1 LOG1 JUMPDEST POP POP POP POP POP POP JUMP JUMPDEST PUSH3 0x14A7 PUSH3 0x1750 JUMP JUMPDEST PUSH8 0xDE0B6B3A7640000 DUP2 GT ISZERO PUSH3 0x14D1 JUMPI PUSH1 0x40 MLOAD PUSH4 0x958939AD PUSH1 0xE0 SHL DUP2 MSTORE PUSH1 0x4 ADD PUSH1 0x40 MLOAD DUP1 SWAP2 SUB SWAP1 REVERT JUMPDEST PUSH1 0x2 SSTORE JUMP JUMPDEST PUSH3 0x14E0 PUSH3 0x1750 JUMP JUMPDEST PUSH1 0x1 PUSH1 0x1 PUSH1 0xA0 SHL SUB DUP2 AND PUSH3 0x150C JUMPI PUSH1 0x40 MLOAD PUSH4 0x1E4FBDF7 PUSH1 0xE0 SHL DUP2 MSTORE PUSH1 0x0 PUSH1 0x4 DUP3 ADD MSTORE PUSH1 0x24 ADD PUSH3 0x5AB JUMP JUMPDEST PUSH3 0x1517 DUP2 PUSH3 0x17AE JUMP JUMPDEST POP JUMP JUMPDEST PUSH1 0x40 DUP1 MLOAD PUSH1 0x1 PUSH1 0x1 PUSH1 0xA0 SHL SUB DUP6 DUP2 AND PUSH1 0x24 DUP4 ADD MSTORE DUP5 AND PUSH1 0x44 DUP3 ADD MSTORE PUSH1 0x64 DUP1 DUP3 ADD DUP5 SWAP1 MSTORE DUP3 MLOAD DUP1 DUP4 SUB SWAP1 SWAP2 ADD DUP2 MSTORE PUSH1 0x84 SWAP1 SWAP2 ADD SWAP1 SWAP2 MSTORE PUSH1 0x20 DUP2 ADD DUP1 MLOAD PUSH1 0x1 PUSH1 0x1 PUSH1 0xE0 SHL SUB AND PUSH4 0x23B872DD PUSH1 0xE0 SHL OR SWAP1 MSTORE PUSH3 0x1576 SWAP1 DUP6 SWAP1 PUSH3 0x1853 JUMP JUMPDEST POP POP POP POP JUMP JUMPDEST ADDRESS PUSH1 0x1 PUSH1 0x1 PUSH1 0xA0 SHL SUB PUSH32 0x0 AND EQ DUP1 PUSH3 0x1606 JUMPI POP PUSH32 0x0 PUSH1 0x1 PUSH1 0x1 PUSH1 0xA0 SHL SUB AND PUSH3 0x15FA PUSH1 0x0 DUP1 MLOAD PUSH1 0x20 PUSH3 0x324C DUP4 CODECOPY DUP2 MLOAD SWAP2 MSTORE SLOAD PUSH1 0x1 PUSH1 0x1 PUSH1 0xA0 SHL SUB AND SWAP1 JUMP JUMPDEST PUSH1 0x1 PUSH1 0x1 PUSH1 0xA0 SHL SUB AND EQ ISZERO JUMPDEST ISZERO PUSH3 0x10CA JUMPI PUSH1 0x40 MLOAD PUSH4 0x703E46DD PUSH1 0xE1 SHL DUP2 MSTORE PUSH1 0x4 ADD PUSH1 0x40 MLOAD DUP1 SWAP2 SUB SWAP1 REVERT JUMPDEST PUSH3 0x1517 PUSH3 0x1750 JUMP JUMPDEST DUP2 PUSH1 0x1 PUSH1 0x1 PUSH1 0xA0 SHL SUB AND PUSH4 0x52D1902D PUSH1 0x40 MLOAD DUP2 PUSH4 0xFFFFFFFF AND PUSH1 0xE0 SHL DUP2 MSTORE PUSH1 0x4 ADD PUSH1 0x20 PUSH1 0x40 MLOAD DUP1 DUP4 SUB DUP2 DUP7 GAS STATICCALL SWAP3 POP POP POP DUP1 ISZERO PUSH3 0x168C JUMPI POP PUSH1 0x40 DUP1 MLOAD PUSH1 0x1F RETURNDATASIZE SWAP1 DUP2 ADD PUSH1 0x1F NOT AND DUP3 ADD SWAP1 SWAP3 MSTORE PUSH3 0x1689 SWAP2 DUP2 ADD SWAP1 PUSH3 0x1ECE JUMP JUMPDEST PUSH1 0x1 JUMPDEST PUSH3 0x16B6 JUMPI PUSH1 0x40 MLOAD PUSH4 0x4C9C8CE3 PUSH1 0xE0 SHL DUP2 MSTORE PUSH1 0x1 PUSH1 0x1 PUSH1 0xA0 SHL SUB DUP4 AND PUSH1 0x4 DUP3 ADD MSTORE PUSH1 0x24 ADD PUSH3 0x5AB JUMP JUMPDEST PUSH1 0x0 DUP1 MLOAD PUSH1 0x20 PUSH3 0x324C DUP4 CODECOPY DUP2 MLOAD SWAP2 MSTORE DUP2 EQ PUSH3 0x16EA JUMPI PUSH1 0x40 MLOAD PUSH4 0x2A875269 PUSH1 0xE2 SHL DUP2 MSTORE PUSH1 0x4 DUP2 ADD DUP3 SWAP1 MSTORE PUSH1 0x24 ADD PUSH3 0x5AB JUMP JUMPDEST PUSH3 0x8A6 DUP4 DUP4 PUSH3 0x18BD JUMP JUMPDEST ADDRESS PUSH1 0x1 PUSH1 0x1 PUSH1 0xA0 SHL SUB PUSH32 0x0 AND EQ PUSH3 0x10CA JUMPI PUSH1 0x40 MLOAD PUSH4 0x703E46DD PUSH1 0xE1 SHL DUP2 MSTORE PUSH1 0x4 ADD PUSH1 0x40 MLOAD DUP1 SWAP2 SUB SWAP1 REVERT JUMPDEST PUSH1 0x60 PUSH3 0x10AD DUP4 DUP4 PUSH1 0x0 PUSH3 0x191A JUMP JUMPDEST CALLER PUSH3 0x1783 PUSH32 0x9016D09D72D40FDAE2FD8CEAC6B6234C7706214FD39C1CD1E609A0528C199300 SLOAD PUSH1 0x1 PUSH1 0x1 PUSH1 0xA0 SHL SUB AND SWAP1 JUMP JUMPDEST PUSH1 0x1 PUSH1 0x1 PUSH1 0xA0 SHL SUB AND EQ PUSH3 0x10CA JUMPI PUSH1 0x40 MLOAD PUSH4 0x118CDAA7 PUSH1 0xE0 SHL DUP2 MSTORE CALLER PUSH1 0x4 DUP3 ADD MSTORE PUSH1 0x24 ADD PUSH3 0x5AB JUMP JUMPDEST PUSH32 0x9016D09D72D40FDAE2FD8CEAC6B6234C7706214FD39C1CD1E609A0528C199300 DUP1 SLOAD PUSH1 0x1 PUSH1 0x1 PUSH1 0xA0 SHL SUB NOT DUP2 AND PUSH1 0x1 PUSH1 0x1 PUSH1 0xA0 SHL SUB DUP5 DUP2 AND SWAP2 DUP3 OR DUP5 SSTORE PUSH1 0x40 MLOAD SWAP3 AND SWAP2 DUP3 SWAP1 PUSH32 0x8BE0079C531659141344CD1FD0A4F28419497F9722A3DAAFE3B4186F6B6457E0 SWAP1 PUSH1 0x0 SWAP1 LOG3 POP POP POP JUMP JUMPDEST PUSH3 0x1829 PUSH3 0x19BF JUMP JUMPDEST PUSH3 0x1517 DUP2 PUSH3 0x1A09 JUMP JUMPDEST PUSH3 0x10CA PUSH3 0x19BF JUMP JUMPDEST PUSH3 0x1848 PUSH3 0x19BF JUMP JUMPDEST PUSH3 0x1517 DUP2 PUSH3 0x1A13 JUMP JUMPDEST PUSH1 0x0 PUSH3 0x186A PUSH1 0x1 PUSH1 0x1 PUSH1 0xA0 SHL SUB DUP5 AND DUP4 PUSH3 0x1740 JUMP JUMPDEST SWAP1 POP DUP1 MLOAD PUSH1 0x0 EQ ISZERO DUP1 ISZERO PUSH3 0x1892 JUMPI POP DUP1 DUP1 PUSH1 0x20 ADD SWAP1 MLOAD DUP2 ADD SWAP1 PUSH3 0x1890 SWAP2 SWAP1 PUSH3 0x212B JUMP JUMPDEST ISZERO JUMPDEST ISZERO PUSH3 0x8A6 JUMPI PUSH1 0x40 MLOAD PUSH4 0x5274AFE7 PUSH1 0xE0 SHL DUP2 MSTORE PUSH1 0x1 PUSH1 0x1 PUSH1 0xA0 SHL SUB DUP5 AND PUSH1 0x4 DUP3 ADD MSTORE PUSH1 0x24 ADD PUSH3 0x5AB JUMP JUMPDEST PUSH3 0x18C8 DUP3 PUSH3 0x1A3F JUMP JUMPDEST PUSH1 0x40 MLOAD PUSH1 0x1 PUSH1 0x1 PUSH1 0xA0 SHL SUB DUP4 AND SWAP1 PUSH32 0xBC7CD75A20EE27FD9ADEBAB32041F755214DBC6BFFA90CC0225B39DA2E5C2D3B SWAP1 PUSH1 0x0 SWAP1 LOG2 DUP1 MLOAD ISZERO PUSH3 0x1910 JUMPI PUSH3 0x8A6 DUP3 DUP3 PUSH3 0x1AA7 JUMP JUMPDEST PUSH3 0xBE7 PUSH3 0x1B23 JUMP JUMPDEST PUSH1 0x60 DUP2 SELFBALANCE LT ISZERO PUSH3 0x1941 JUMPI PUSH1 0x40 MLOAD PUSH4 0xCD786059 PUSH1 0xE0 SHL DUP2 MSTORE ADDRESS PUSH1 0x4 DUP3 ADD MSTORE PUSH1 0x24 ADD PUSH3 0x5AB JUMP JUMPDEST PUSH1 0x0 DUP1 DUP6 PUSH1 0x1 PUSH1 0x1 PUSH1 0xA0 SHL SUB AND DUP5 DUP7 PUSH1 0x40 MLOAD PUSH3 0x195F SWAP2 SWAP1 PUSH3 0x214B JUMP JUMPDEST PUSH1 0x0 PUSH1 0x40 MLOAD DUP1 DUP4 SUB DUP2 DUP6 DUP8 GAS CALL SWAP3 POP POP POP RETURNDATASIZE DUP1 PUSH1 0x0 DUP2 EQ PUSH3 0x199E JUMPI PUSH1 0x40 MLOAD SWAP2 POP PUSH1 0x1F NOT PUSH1 0x3F RETURNDATASIZE ADD AND DUP3 ADD PUSH1 0x40 MSTORE RETURNDATASIZE DUP3 MSTORE RETURNDATASIZE PUSH1 0x0 PUSH1 0x20 DUP5 ADD RETURNDATACOPY PUSH3 0x19A3 JUMP JUMPDEST PUSH1 0x60 SWAP2 POP JUMPDEST POP SWAP2 POP SWAP2 POP PUSH3 0x19B5 DUP7 DUP4 DUP4 PUSH3 0x1B43 JUMP JUMPDEST SWAP7 SWAP6 POP POP POP POP POP POP JUMP JUMPDEST PUSH32 0xF0C57E16840DF040F15088DC2F81FE391C3923BEC73E23A9662EFC9C229C6A00 SLOAD PUSH1 0x1 PUSH1 0x40 SHL SWAP1 DIV PUSH1 0xFF AND PUSH3 0x10CA JUMPI PUSH1 0x40 MLOAD PUSH4 0x1AFCD79F PUSH1 0xE3 SHL DUP2 MSTORE PUSH1 0x4 ADD PUSH1 0x40 MLOAD DUP1 SWAP2 SUB SWAP1 REVERT JUMPDEST PUSH3 0x14E0 PUSH3 0x19BF JUMP JUMPDEST PUSH3 0x1A1D PUSH3 0x19BF JUMP JUMPDEST PUSH1 0x0 DUP1 SLOAD PUSH1 0x1 PUSH1 0x1 PUSH1 0xA0 SHL SUB NOT AND PUSH1 0x1 PUSH1 0x1 PUSH1 0xA0 SHL SUB SWAP3 SWAP1 SWAP3 AND SWAP2 SWAP1 SWAP2 OR SWAP1 SSTORE JUMP JUMPDEST DUP1 PUSH1 0x1 PUSH1 0x1 PUSH1 0xA0 SHL SUB AND EXTCODESIZE PUSH1 0x0 SUB PUSH3 0x1A77 JUMPI PUSH1 0x40 MLOAD PUSH4 0x4C9C8CE3 PUSH1 0xE0 SHL DUP2 MSTORE PUSH1 0x1 PUSH1 0x1 PUSH1 0xA0 SHL SUB DUP3 AND PUSH1 0x4 DUP3 ADD MSTORE PUSH1 0x24 ADD PUSH3 0x5AB JUMP JUMPDEST PUSH1 0x0 DUP1 MLOAD PUSH1 0x20 PUSH3 0x324C DUP4 CODECOPY DUP2 MLOAD SWAP2 MSTORE DUP1 SLOAD PUSH1 0x1 PUSH1 0x1 PUSH1 0xA0 SHL SUB NOT AND PUSH1 0x1 PUSH1 0x1 PUSH1 0xA0 SHL SUB SWAP3 SWAP1 SWAP3 AND SWAP2 SWAP1 SWAP2 OR SWAP1 SSTORE JUMP JUMPDEST PUSH1 0x60 PUSH1 0x0 DUP1 DUP5 PUSH1 0x1 PUSH1 0x1 PUSH1 0xA0 SHL SUB AND DUP5 PUSH1 0x40 MLOAD PUSH3 0x1AC6 SWAP2 SWAP1 PUSH3 0x214B JUMP JUMPDEST PUSH1 0x0 PUSH1 0x40 MLOAD DUP1 DUP4 SUB DUP2 DUP6 GAS DELEGATECALL SWAP2 POP POP RETURNDATASIZE DUP1 PUSH1 0x0 DUP2 EQ PUSH3 0x1B03 JUMPI PUSH1 0x40 MLOAD SWAP2 POP PUSH1 0x1F NOT PUSH1 0x3F RETURNDATASIZE ADD AND DUP3 ADD PUSH1 0x40 MSTORE RETURNDATASIZE DUP3 MSTORE RETURNDATASIZE PUSH1 0x0 PUSH1 0x20 DUP5 ADD RETURNDATACOPY PUSH3 0x1B08 JUMP JUMPDEST PUSH1 0x60 SWAP2 POP JUMPDEST POP SWAP2 POP SWAP2 POP PUSH3 0x1B1A DUP6 DUP4 DUP4 PUSH3 0x1B43 JUMP JUMPDEST SWAP6 SWAP5 POP POP POP POP POP JUMP JUMPDEST CALLVALUE ISZERO PUSH3 0x10CA JUMPI PUSH1 0x40 MLOAD PUSH4 0xB398979F PUSH1 0xE0 SHL DUP2 MSTORE PUSH1 0x4 ADD PUSH1 0x40 MLOAD DUP1 SWAP2 SUB SWAP1 REVERT JUMPDEST PUSH1 0x60 DUP3 PUSH3 0x1B5C JUMPI PUSH3 0x1B56 DUP3 PUSH3 0x1BA7 JUMP JUMPDEST PUSH3 0x10AD JUMP JUMPDEST DUP2 MLOAD ISZERO DUP1 ISZERO PUSH3 0x1B74 JUMPI POP PUSH1 0x1 PUSH1 0x1 PUSH1 0xA0 SHL SUB DUP5 AND EXTCODESIZE ISZERO JUMPDEST ISZERO PUSH3 0x1B9F JUMPI PUSH1 0x40 MLOAD PUSH4 0x9996B315 PUSH1 0xE0 SHL DUP2 MSTORE PUSH1 0x1 PUSH1 0x1 PUSH1 0xA0 SHL SUB DUP6 AND PUSH1 0x4 DUP3 ADD MSTORE PUSH1 0x24 ADD PUSH3 0x5AB JUMP JUMPDEST POP DUP1 PUSH3 0x10AD JUMP JUMPDEST DUP1 MLOAD ISZERO PUSH3 0x1BB8 JUMPI DUP1 MLOAD DUP1 DUP3 PUSH1 0x20 ADD REVERT JUMPDEST PUSH1 0x40 MLOAD PUSH4 0xA12F521 PUSH1 0xE1 SHL DUP2 MSTORE PUSH1 0x4 ADD PUSH1 0x40 MLOAD DUP1 SWAP2 SUB SWAP1 REVERT JUMPDEST PUSH2 0x10E2 DUP1 PUSH3 0x216A DUP4 CODECOPY ADD SWAP1 JUMP JUMPDEST PUSH1 0x1 PUSH1 0x1 PUSH1 0xA0 SHL SUB DUP2 AND DUP2 EQ PUSH3 0x1517 JUMPI PUSH1 0x0 DUP1 REVERT JUMPDEST PUSH1 0x0 DUP1 PUSH1 0x40 DUP4 DUP6 SUB SLT ISZERO PUSH3 0x1C09 JUMPI PUSH1 0x0 DUP1 REVERT JUMPDEST DUP3 CALLDATALOAD PUSH3 0x1C16 DUP2 PUSH3 0x1BDF JUMP JUMPDEST SWAP5 PUSH1 0x20 SWAP4 SWAP1 SWAP4 ADD CALLDATALOAD SWAP4 POP POP POP JUMP JUMPDEST PUSH1 0x0 PUSH1 0x20 DUP3 DUP5 SUB SLT ISZERO PUSH3 0x1C37 JUMPI PUSH1 0x0 DUP1 REVERT JUMPDEST DUP2 CALLDATALOAD PUSH3 0x10AD DUP2 PUSH3 0x1BDF JUMP JUMPDEST PUSH4 0x4E487B71 PUSH1 0xE0 SHL PUSH1 0x0 MSTORE PUSH1 0x41 PUSH1 0x4 MSTORE PUSH1 0x24 PUSH1 0x0 REVERT JUMPDEST PUSH1 0x40 MLOAD PUSH1 0x1F DUP3 ADD PUSH1 0x1F NOT AND DUP2 ADD PUSH8 0xFFFFFFFFFFFFFFFF DUP2 GT DUP3 DUP3 LT OR ISZERO PUSH3 0x1C86 JUMPI PUSH3 0x1C86 PUSH3 0x1C44 JUMP JUMPDEST PUSH1 0x40 MSTORE SWAP2 SWAP1 POP JUMP JUMPDEST PUSH1 0x0 PUSH8 0xFFFFFFFFFFFFFFFF DUP3 GT ISZERO PUSH3 0x1CAB JUMPI PUSH3 0x1CAB PUSH3 0x1C44 JUMP JUMPDEST POP PUSH1 0x1F ADD PUSH1 0x1F NOT AND PUSH1 0x20 ADD SWAP1 JUMP JUMPDEST PUSH1 0x0 DUP1 PUSH1 0x40 DUP4 DUP6 SUB SLT ISZERO PUSH3 0x1CCD JUMPI PUSH1 0x0 DUP1 REVERT JUMPDEST DUP3 CALLDATALOAD PUSH3 0x1CDA DUP2 PUSH3 0x1BDF JUMP JUMPDEST SWAP2 POP PUSH1 0x20 DUP4 ADD CALLDATALOAD PUSH8 0xFFFFFFFFFFFFFFFF DUP2 GT ISZERO PUSH3 0x1CF7 JUMPI PUSH1 0x0 DUP1 REVERT JUMPDEST DUP4 ADD PUSH1 0x1F DUP2 ADD DUP6 SGT PUSH3 0x1D09 JUMPI PUSH1 0x0 DUP1 REVERT JUMPDEST DUP1 CALLDATALOAD PUSH3 0x1D20 PUSH3 0x1D1A DUP3 PUSH3 0x1C8E JUMP JUMPDEST PUSH3 0x1C5A JUMP JUMPDEST DUP2 DUP2 MSTORE DUP7 PUSH1 0x20 DUP4 DUP6 ADD ADD GT ISZERO PUSH3 0x1D36 JUMPI PUSH1 0x0 DUP1 REVERT JUMPDEST DUP2 PUSH1 0x20 DUP5 ADD PUSH1 0x20 DUP4 ADD CALLDATACOPY PUSH1 0x0 PUSH1 0x20 DUP4 DUP4 ADD ADD MSTORE DUP1 SWAP4 POP POP POP POP SWAP3 POP SWAP3 SWAP1 POP JUMP JUMPDEST PUSH1 0x0 DUP1 PUSH1 0x0 DUP1 PUSH1 0x0 PUSH1 0x80 DUP7 DUP9 SUB SLT ISZERO PUSH3 0x1D6F JUMPI PUSH1 0x0 DUP1 REVERT JUMPDEST DUP6 CALLDATALOAD PUSH3 0x1D7C DUP2 PUSH3 0x1BDF JUMP JUMPDEST SWAP5 POP PUSH1 0x20 DUP7 ADD CALLDATALOAD PUSH3 0x1D8E DUP2 PUSH3 0x1BDF JUMP JUMPDEST SWAP4 POP PUSH1 0x40 DUP7 ADD CALLDATALOAD SWAP3 POP PUSH1 0x60 DUP7 ADD CALLDATALOAD PUSH8 0xFFFFFFFFFFFFFFFF DUP1 DUP3 GT ISZERO PUSH3 0x1DB3 JUMPI PUSH1 0x0 DUP1 REVERT JUMPDEST DUP2 DUP9 ADD SWAP2 POP DUP9 PUSH1 0x1F DUP4 ADD SLT PUSH3 0x1DC8 JUMPI PUSH1 0x0 DUP1 REVERT JUMPDEST DUP2 CALLDATALOAD DUP2 DUP2 GT ISZERO PUSH3 0x1DD8 JUMPI PUSH1 0x0 DUP1 REVERT JUMPDEST DUP10 PUSH1 0x20 DUP3 DUP6 ADD ADD GT ISZERO PUSH3 0x1DEB JUMPI PUSH1 0x0 DUP1 REVERT JUMPDEST SWAP7 SWAP10 SWAP6 SWAP9 POP SWAP4 SWAP7 POP PUSH1 0x20 ADD SWAP5 SWAP4 SWAP3 POP POP POP JUMP JUMPDEST DUP1 ISZERO ISZERO DUP2 EQ PUSH3 0x1517 JUMPI PUSH1 0x0 DUP1 REVERT JUMPDEST PUSH1 0x0 DUP1 PUSH1 0x40 DUP4 DUP6 SUB SLT ISZERO PUSH3 0x1E21 JUMPI PUSH1 0x0 DUP1 REVERT JUMPDEST DUP3 CALLDATALOAD PUSH3 0x1E2E DUP2 PUSH3 0x1BDF JUMP JUMPDEST SWAP2 POP PUSH1 0x20 DUP4 ADD CALLDATALOAD PUSH3 0x1E40 DUP2 PUSH3 0x1DFE JUMP JUMPDEST DUP1 SWAP2 POP POP SWAP3 POP SWAP3 SWAP1 POP JUMP JUMPDEST PUSH1 0x0 JUMPDEST DUP4 DUP2 LT ISZERO PUSH3 0x1E68 JUMPI DUP2 DUP2 ADD MLOAD DUP4 DUP3 ADD MSTORE PUSH1 0x20 ADD PUSH3 0x1E4E JUMP JUMPDEST POP POP PUSH1 0x0 SWAP2 ADD MSTORE JUMP JUMPDEST PUSH1 0x0 DUP2 MLOAD DUP1 DUP5 MSTORE PUSH3 0x1E8B DUP2 PUSH1 0x20 DUP7 ADD PUSH1 0x20 DUP7 ADD PUSH3 0x1E4B JUMP JUMPDEST PUSH1 0x1F ADD PUSH1 0x1F NOT AND SWAP3 SWAP1 SWAP3 ADD PUSH1 0x20 ADD SWAP3 SWAP2 POP POP JUMP JUMPDEST PUSH1 0x20 DUP2 MSTORE PUSH1 0x0 PUSH3 0x10AD PUSH1 0x20 DUP4 ADD DUP5 PUSH3 0x1E71 JUMP JUMPDEST PUSH1 0x0 PUSH1 0x20 DUP3 DUP5 SUB SLT ISZERO PUSH3 0x1EC7 JUMPI PUSH1 0x0 DUP1 REVERT JUMPDEST POP CALLDATALOAD SWAP2 SWAP1 POP JUMP JUMPDEST PUSH1 0x0 PUSH1 0x20 DUP3 DUP5 SUB SLT ISZERO PUSH3 0x1EE1 JUMPI PUSH1 0x0 DUP1 REVERT JUMPDEST POP MLOAD SWAP2 SWAP1 POP JUMP JUMPDEST PUSH4 0x4E487B71 PUSH1 0xE0 SHL PUSH1 0x0 MSTORE PUSH1 0x11 PUSH1 0x4 MSTORE PUSH1 0x24 PUSH1 0x0 REVERT JUMPDEST DUP1 DUP3 MUL DUP2 ISZERO DUP3 DUP3 DIV DUP5 EQ OR PUSH3 0x916 JUMPI PUSH3 0x916 PUSH3 0x1EE8 JUMP JUMPDEST PUSH1 0x0 DUP3 PUSH3 0x1F36 JUMPI PUSH4 0x4E487B71 PUSH1 0xE0 SHL PUSH1 0x0 MSTORE PUSH1 0x12 PUSH1 0x4 MSTORE PUSH1 0x24 PUSH1 0x0 REVERT JUMPDEST POP DIV SWAP1 JUMP JUMPDEST DUP2 DUP4 MSTORE DUP2 DUP2 PUSH1 0x20 DUP6 ADD CALLDATACOPY POP PUSH1 0x0 DUP3 DUP3 ADD PUSH1 0x20 SWAP1 DUP2 ADD SWAP2 SWAP1 SWAP2 MSTORE PUSH1 0x1F SWAP1 SWAP2 ADD PUSH1 0x1F NOT AND SWAP1 SWAP2 ADD ADD SWAP1 JUMP JUMPDEST DUP5 DUP2 MSTORE DUP4 PUSH1 0x20 DUP3 ADD MSTORE PUSH1 0x60 PUSH1 0x40 DUP3 ADD MSTORE PUSH1 0x0 PUSH3 0x19B5 PUSH1 0x60 DUP4 ADD DUP5 DUP7 PUSH3 0x1F3B JUMP JUMPDEST PUSH1 0x1 PUSH1 0x1 PUSH1 0xA0 SHL SUB DUP8 DUP2 AND DUP3 MSTORE PUSH1 0x20 DUP3 ADD DUP8 SWAP1 MSTORE PUSH1 0x40 DUP3 ADD DUP7 SWAP1 MSTORE DUP5 AND PUSH1 0x60 DUP3 ADD MSTORE PUSH1 0xA0 PUSH1 0x80 DUP3 ADD DUP2 SWAP1 MSTORE PUSH1 0x0 SWAP1 PUSH3 0x1FC3 SWAP1 DUP4 ADD DUP5 DUP7 PUSH3 0x1F3B JUMP JUMPDEST SWAP9 SWAP8 POP POP POP POP POP POP POP POP JUMP JUMPDEST DUP1 DUP3 ADD DUP1 DUP3 GT ISZERO PUSH3 0x916 JUMPI PUSH3 0x916 PUSH3 0x1EE8 JUMP JUMPDEST PUSH1 0x0 PUSH1 0x20 DUP3 DUP5 SUB SLT ISZERO PUSH3 0x1FF8 JUMPI PUSH1 0x0 DUP1 REVERT JUMPDEST DUP2 MLOAD PUSH3 0x10AD DUP2 PUSH3 0x1BDF JUMP JUMPDEST PUSH1 0x0 PUSH1 0x20 DUP3 DUP5 SUB SLT ISZERO PUSH3 0x2018 JUMPI PUSH1 0x0 DUP1 REVERT JUMPDEST DUP2 MLOAD PUSH8 0xFFFFFFFFFFFFFFFF DUP2 GT ISZERO PUSH3 0x2030 JUMPI PUSH1 0x0 DUP1 REVERT JUMPDEST DUP3 ADD PUSH1 0x1F DUP2 ADD DUP5 SGT PUSH3 0x2042 JUMPI PUSH1 0x0 DUP1 REVERT JUMPDEST DUP1 MLOAD PUSH3 0x2053 PUSH3 0x1D1A DUP3 PUSH3 0x1C8E JUMP JUMPDEST DUP2 DUP2 MSTORE DUP6 PUSH1 0x20 DUP4 DUP6 ADD ADD GT ISZERO PUSH3 0x2069 JUMPI PUSH1 0x0 DUP1 REVERT JUMPDEST PUSH3 0x1B1A DUP3 PUSH1 0x20 DUP4 ADD PUSH1 0x20 DUP7 ADD PUSH3 0x1E4B JUMP JUMPDEST PUSH12 0x2A343AB73232B92637B0B71 PUSH1 0xA5 SHL DUP2 MSTORE PUSH1 0x0 DUP3 MLOAD PUSH3 0x20A5 DUP2 PUSH1 0xC DUP6 ADD PUSH1 0x20 DUP8 ADD PUSH3 0x1E4B JUMP JUMPDEST SWAP2 SWAP1 SWAP2 ADD PUSH1 0xC ADD SWAP3 SWAP2 POP POP JUMP JUMPDEST PUSH2 0x1D1B PUSH1 0xF2 SHL DUP2 MSTORE PUSH1 0x0 DUP3 MLOAD PUSH3 0x20D1 DUP2 PUSH1 0x2 DUP6 ADD PUSH1 0x20 DUP8 ADD PUSH3 0x1E4B JUMP JUMPDEST SWAP2 SWAP1 SWAP2 ADD PUSH1 0x2 ADD SWAP3 SWAP2 POP POP JUMP JUMPDEST PUSH1 0x1 PUSH1 0x1 PUSH1 0xA0 SHL SUB DUP6 DUP2 AND DUP3 MSTORE DUP5 AND PUSH1 0x20 DUP3 ADD MSTORE PUSH1 0x80 PUSH1 0x40 DUP3 ADD DUP2 SWAP1 MSTORE PUSH1 0x0 SWAP1 PUSH3 0x210C SWAP1 DUP4 ADD DUP6 PUSH3 0x1E71 JUMP JUMPDEST DUP3 DUP2 SUB PUSH1 0x60 DUP5 ADD MSTORE PUSH3 0x2120 DUP2 DUP6 PUSH3 0x1E71 JUMP JUMPDEST SWAP8 SWAP7 POP POP POP POP POP POP POP JUMP JUMPDEST PUSH1 0x0 PUSH1 0x20 DUP3 DUP5 SUB SLT ISZERO PUSH3 0x213E JUMPI PUSH1 0x0 DUP1 REVERT JUMPDEST DUP2 MLOAD PUSH3 0x10AD DUP2 PUSH3 0x1DFE JUMP JUMPDEST PUSH1 0x0 DUP3 MLOAD PUSH3 0x215F DUP2 DUP5 PUSH1 0x20 DUP8 ADD PUSH3 0x1E4B JUMP JUMPDEST SWAP2 SWAP1 SWAP2 ADD SWAP3 SWAP2 POP POP JUMP INVALID PUSH1 0xC0 PUSH1 0x40 MSTORE CALLVALUE DUP1 ISZERO PUSH3 0x11 JUMPI PUSH1 0x0 DUP1 REVERT JUMPDEST POP PUSH1 0x40 MLOAD PUSH3 0x10E2 CODESIZE SUB DUP1 PUSH3 0x10E2 DUP4 CODECOPY DUP2 ADD PUSH1 0x40 DUP2 SWAP1 MSTORE PUSH3 0x34 SWAP2 PUSH3 0x1AF JUMP JUMPDEST DUP2 DUP2 PUSH1 0x3 PUSH3 0x44 DUP4 DUP3 PUSH3 0x2D3 JUMP JUMPDEST POP PUSH1 0x4 PUSH3 0x53 DUP3 DUP3 PUSH3 0x2D3 JUMP JUMPDEST POP DUP6 SWAP2 POP POP PUSH1 0x1 PUSH1 0x1 PUSH1 0xA0 SHL SUB DUP2 AND PUSH3 0x80 JUMPI PUSH1 0x40 MLOAD PUSH4 0x9F1301A5 PUSH1 0xE0 SHL DUP2 MSTORE PUSH1 0x4 ADD PUSH1 0x40 MLOAD DUP1 SWAP2 SUB SWAP1 REVERT JUMPDEST DUP4 PUSH1 0x1 PUSH1 0x1 PUSH1 0xA0 SHL SUB DUP2 AND PUSH3 0xA9 JUMPI PUSH1 0x40 MLOAD PUSH4 0x9F1301A5 PUSH1 0xE0 SHL DUP2 MSTORE PUSH1 0x4 ADD PUSH1 0x40 MLOAD DUP1 SWAP2 SUB SWAP1 REVERT JUMPDEST POP POP POP PUSH1 0x1 PUSH1 0x1 PUSH1 0xA0 SHL SUB SWAP3 DUP4 AND PUSH1 0xA0 MSTORE POP AND PUSH1 0x80 MSTORE PUSH8 0xDE0B6B3A7640000 PUSH1 0x5 SSTORE PUSH3 0x39F JUMP JUMPDEST PUSH1 0x1 PUSH1 0x1 PUSH1 0xA0 SHL SUB DUP2 AND DUP2 EQ PUSH3 0xE7 JUMPI PUSH1 0x0 DUP1 REVERT JUMPDEST POP JUMP JUMPDEST PUSH4 0x4E487B71 PUSH1 0xE0 SHL PUSH1 0x0 MSTORE PUSH1 0x41 PUSH1 0x4 MSTORE PUSH1 0x24 PUSH1 0x0 REVERT JUMPDEST PUSH1 0x0 DUP3 PUSH1 0x1F DUP4 ADD SLT PUSH3 0x112 JUMPI PUSH1 0x0 DUP1 REVERT JUMPDEST DUP2 MLOAD PUSH1 0x1 PUSH1 0x1 PUSH1 0x40 SHL SUB DUP1 DUP3 GT ISZERO PUSH3 0x12F JUMPI PUSH3 0x12F PUSH3 0xEA JUMP JUMPDEST PUSH1 0x40 MLOAD PUSH1 0x1F DUP4 ADD PUSH1 0x1F NOT SWAP1 DUP2 AND PUSH1 0x3F ADD AND DUP2 ADD SWAP1 DUP3 DUP3 GT DUP2 DUP4 LT OR ISZERO PUSH3 0x15A JUMPI PUSH3 0x15A PUSH3 0xEA JUMP JUMPDEST DUP2 PUSH1 0x40 MSTORE DUP4 DUP2 MSTORE PUSH1 0x20 SWAP3 POP DUP7 DUP4 DUP6 DUP9 ADD ADD GT ISZERO PUSH3 0x177 JUMPI PUSH1 0x0 DUP1 REVERT JUMPDEST PUSH1 0x0 SWAP2 POP JUMPDEST DUP4 DUP3 LT ISZERO PUSH3 0x19B JUMPI DUP6 DUP3 ADD DUP4 ADD MLOAD DUP2 DUP4 ADD DUP5 ADD MSTORE SWAP1 DUP3 ADD SWAP1 PUSH3 0x17C JUMP JUMPDEST PUSH1 0x0 SWAP4 DUP2 ADD SWAP1 SWAP3 ADD SWAP3 SWAP1 SWAP3 MSTORE SWAP5 SWAP4 POP POP POP POP JUMP JUMPDEST PUSH1 0x0 DUP1 PUSH1 0x0 DUP1 PUSH1 0x80 DUP6 DUP8 SUB SLT ISZERO PUSH3 0x1C6 JUMPI PUSH1 0x0 DUP1 REVERT JUMPDEST DUP5 MLOAD PUSH3 0x1D3 DUP2 PUSH3 0xD1 JUMP JUMPDEST PUSH1 0x20 DUP7 ADD MLOAD SWAP1 SWAP5 POP PUSH3 0x1E6 DUP2 PUSH3 0xD1 JUMP JUMPDEST PUSH1 0x40 DUP7 ADD MLOAD SWAP1 SWAP4 POP PUSH1 0x1 PUSH1 0x1 PUSH1 0x40 SHL SUB DUP1 DUP3 GT ISZERO PUSH3 0x204 JUMPI PUSH1 0x0 DUP1 REVERT JUMPDEST PUSH3 0x212 DUP9 DUP4 DUP10 ADD PUSH3 0x100 JUMP JUMPDEST SWAP4 POP PUSH1 0x60 DUP8 ADD MLOAD SWAP2 POP DUP1 DUP3 GT ISZERO PUSH3 0x229 JUMPI PUSH1 0x0 DUP1 REVERT JUMPDEST POP PUSH3 0x238 DUP8 DUP3 DUP9 ADD PUSH3 0x100 JUMP JUMPDEST SWAP2 POP POP SWAP3 SWAP6 SWAP2 SWAP5 POP SWAP3 POP JUMP JUMPDEST PUSH1 0x1 DUP2 DUP2 SHR SWAP1 DUP3 AND DUP1 PUSH3 0x259 JUMPI PUSH1 0x7F DUP3 AND SWAP2 POP JUMPDEST PUSH1 0x20 DUP3 LT DUP2 SUB PUSH3 0x27A JUMPI PUSH4 0x4E487B71 PUSH1 0xE0 SHL PUSH1 0x0 MSTORE PUSH1 0x22 PUSH1 0x4 MSTORE PUSH1 0x24 PUSH1 0x0 REVERT JUMPDEST POP SWAP2 SWAP1 POP JUMP JUMPDEST PUSH1 0x1F DUP3 GT ISZERO PUSH3 0x2CE JUMPI PUSH1 0x0 DUP2 DUP2 MSTORE PUSH1 0x20 DUP2 KECCAK256 PUSH1 0x1F DUP6 ADD PUSH1 0x5 SHR DUP2 ADD PUSH1 0x20 DUP7 LT ISZERO PUSH3 0x2A9 JUMPI POP DUP1 JUMPDEST PUSH1 0x1F DUP6 ADD PUSH1 0x5 SHR DUP3 ADD SWAP2 POP JUMPDEST DUP2 DUP2 LT ISZERO PUSH3 0x2CA JUMPI DUP3 DUP2 SSTORE PUSH1 0x1 ADD PUSH3 0x2B5 JUMP JUMPDEST POP POP POP JUMPDEST POP POP POP JUMP JUMPDEST DUP2 MLOAD PUSH1 0x1 PUSH1 0x1 PUSH1 0x40 SHL SUB DUP2 GT ISZERO PUSH3 0x2EF JUMPI PUSH3 0x2EF PUSH3 0xEA JUMP JUMPDEST PUSH3 0x307 DUP2 PUSH3 0x300 DUP5 SLOAD PUSH3 0x244 JUMP JUMPDEST DUP5 PUSH3 0x280 JUMP JUMPDEST PUSH1 0x20 DUP1 PUSH1 0x1F DUP4 GT PUSH1 0x1 DUP2 EQ PUSH3 0x33F JUMPI PUSH1 0x0 DUP5 ISZERO PUSH3 0x326 JUMPI POP DUP6 DUP4 ADD MLOAD JUMPDEST PUSH1 0x0 NOT PUSH1 0x3 DUP7 SWAP1 SHL SHR NOT AND PUSH1 0x1 DUP6 SWAP1 SHL OR DUP6 SSTORE PUSH3 0x2CA JUMP JUMPDEST PUSH1 0x0 DUP6 DUP2 MSTORE PUSH1 0x20 DUP2 KECCAK256 PUSH1 0x1F NOT DUP7 AND SWAP2 JUMPDEST DUP3 DUP2 LT ISZERO PUSH3 0x370 JUMPI DUP9 DUP7 ADD MLOAD DUP3 SSTORE SWAP5 DUP5 ADD SWAP5 PUSH1 0x1 SWAP1 SWAP2 ADD SWAP1 DUP5 ADD PUSH3 0x34F JUMP JUMPDEST POP DUP6 DUP3 LT ISZERO PUSH3 0x38F JUMPI DUP8 DUP6 ADD MLOAD PUSH1 0x0 NOT PUSH1 0x3 DUP9 SWAP1 SHL PUSH1 0xF8 AND SHR NOT AND DUP2 SSTORE JUMPDEST POP POP POP POP POP PUSH1 0x1 SWAP1 DUP2 SHL ADD SWAP1 SSTORE POP JUMP JUMPDEST PUSH1 0x80 MLOAD PUSH1 0xA0 MLOAD PUSH2 0xD01 PUSH3 0x3E1 PUSH1 0x0 CODECOPY PUSH1 0x0 DUP2 DUP2 PUSH2 0x370 ADD MSTORE DUP2 DUP2 PUSH2 0x3C7 ADD MSTORE DUP2 DUP2 PUSH2 0x453 ADD MSTORE PUSH2 0x4B4 ADD MSTORE PUSH1 0x0 DUP2 DUP2 PUSH2 0x1EF ADD MSTORE PUSH2 0x412 ADD MSTORE PUSH2 0xD01 PUSH1 0x0 RETURN INVALID PUSH1 0x80 PUSH1 0x40 MSTORE CALLVALUE DUP1 ISZERO PUSH2 0x10 JUMPI PUSH1 0x0 DUP1 REVERT JUMPDEST POP PUSH1 0x4 CALLDATASIZE LT PUSH2 0x100 JUMPI PUSH1 0x0 CALLDATALOAD PUSH1 0xE0 SHR DUP1 PUSH4 0x70A08231 GT PUSH2 0x97 JUMPI DUP1 PUSH4 0xA9059CBB GT PUSH2 0x66 JUMPI DUP1 PUSH4 0xA9059CBB EQ PUSH2 0x22C JUMPI DUP1 PUSH4 0xB9E205AE EQ PUSH2 0x23F JUMPI DUP1 PUSH4 0xDD62ED3E EQ PUSH2 0x252 JUMPI DUP1 PUSH4 0xE6AA216C EQ PUSH2 0x28B JUMPI PUSH1 0x0 DUP1 REVERT JUMPDEST DUP1 PUSH4 0x70A08231 EQ PUSH2 0x1B1 JUMPI DUP1 PUSH4 0x95D89B41 EQ PUSH2 0x1DA JUMPI DUP1 PUSH4 0x9816F473 EQ PUSH2 0x1E2 JUMPI DUP1 PUSH4 0x9DC29FAC EQ PUSH2 0x219 JUMPI PUSH1 0x0 DUP1 REVERT JUMPDEST DUP1 PUSH4 0x313CE567 GT PUSH2 0xD3 JUMPI DUP1 PUSH4 0x313CE567 EQ PUSH2 0x16B JUMPI DUP1 PUSH4 0x3A01B964 EQ PUSH2 0x17A JUMPI DUP1 PUSH4 0x40C10F19 EQ PUSH2 0x189 JUMPI DUP1 PUSH4 0x4EFECAA5 EQ PUSH2 0x19E JUMPI PUSH1 0x0 DUP1 REVERT JUMPDEST DUP1 PUSH4 0x6FDDE03 EQ PUSH2 0x105 JUMPI DUP1 PUSH4 0x95EA7B3 EQ PUSH2 0x123 JUMPI DUP1 PUSH4 0x18160DDD EQ PUSH2 0x146 JUMPI DUP1 PUSH4 0x23B872DD EQ PUSH2 0x158 JUMPI JUMPDEST PUSH1 0x0 DUP1 REVERT JUMPDEST PUSH2 0x10D PUSH2 0x293 JUMP JUMPDEST PUSH1 0x40 MLOAD PUSH2 0x11A SWAP2 SWAP1 PUSH2 0xAD5 JUMP JUMPDEST PUSH1 0x40 MLOAD DUP1 SWAP2 SUB SWAP1 RETURN JUMPDEST PUSH2 0x136 PUSH2 0x131 CALLDATASIZE PUSH1 0x4 PUSH2 0xB24 JUMP JUMPDEST PUSH2 0x325 JUMP JUMPDEST PUSH1 0x40 MLOAD SWAP1 ISZERO ISZERO DUP2 MSTORE PUSH1 0x20 ADD PUSH2 0x11A JUMP JUMPDEST PUSH1 0x2 SLOAD JUMPDEST PUSH1 0x40 MLOAD SWAP1 DUP2 MSTORE PUSH1 0x20 ADD PUSH2 0x11A JUMP JUMPDEST PUSH2 0x136 PUSH2 0x166 CALLDATASIZE PUSH1 0x4 PUSH2 0xB4E JUMP JUMPDEST PUSH2 0x33F JUMP JUMPDEST PUSH1 0x40 MLOAD PUSH1 0x12 DUP2 MSTORE PUSH1 0x20 ADD PUSH2 0x11A JUMP JUMPDEST PUSH2 0x14A PUSH8 0xDE0B6B3A7640000 DUP2 JUMP JUMPDEST PUSH2 0x19C PUSH2 0x197 CALLDATASIZE PUSH1 0x4 PUSH2 0xB24 JUMP JUMPDEST PUSH2 0x365 JUMP JUMPDEST STOP JUMPDEST PUSH2 0x19C PUSH2 0x1AC CALLDATASIZE PUSH1 0x4 PUSH2 0xB24 JUMP JUMPDEST PUSH2 0x3BC JUMP JUMPDEST PUSH2 0x14A PUSH2 0x1BF CALLDATASIZE PUSH1 0x4 PUSH2 0xB8A JUMP JUMPDEST PUSH1 0x1 PUSH1 0x1 PUSH1 0xA0 SHL SUB AND PUSH1 0x0 SWAP1 DUP2 MSTORE PUSH1 0x20 DUP2 SWAP1 MSTORE PUSH1 0x40 SWAP1 KECCAK256 SLOAD SWAP1 JUMP JUMPDEST PUSH2 0x10D PUSH2 0x439 JUMP JUMPDEST PUSH1 0x40 MLOAD PUSH1 0x1 PUSH1 0x1 PUSH1 0xA0 SHL SUB PUSH32 0x0 AND DUP2 MSTORE PUSH1 0x20 ADD PUSH2 0x11A JUMP JUMPDEST PUSH2 0x19C PUSH2 0x227 CALLDATASIZE PUSH1 0x4 PUSH2 0xB24 JUMP JUMPDEST PUSH2 0x448 JUMP JUMPDEST PUSH2 0x136 PUSH2 0x23A CALLDATASIZE PUSH1 0x4 PUSH2 0xB24 JUMP JUMPDEST PUSH2 0x49B JUMP JUMPDEST PUSH2 0x19C PUSH2 0x24D CALLDATASIZE PUSH1 0x4 PUSH2 0xBA5 JUMP JUMPDEST PUSH2 0x4A9 JUMP JUMPDEST PUSH2 0x14A PUSH2 0x260 CALLDATASIZE PUSH1 0x4 PUSH2 0xBBE JUMP JUMPDEST PUSH1 0x1 PUSH1 0x1 PUSH1 0xA0 SHL SUB SWAP2 DUP3 AND PUSH1 0x0 SWAP1 DUP2 MSTORE PUSH1 0x1 PUSH1 0x20 SWAP1 DUP2 MSTORE PUSH1 0x40 DUP1 DUP4 KECCAK256 SWAP4 SWAP1 SWAP5 AND DUP3 MSTORE SWAP2 SWAP1 SWAP2 MSTORE KECCAK256 SLOAD SWAP1 JUMP JUMPDEST PUSH1 0x5 SLOAD PUSH2 0x14A JUMP JUMPDEST PUSH1 0x60 PUSH1 0x3 DUP1 SLOAD PUSH2 0x2A2 SWAP1 PUSH2 0xBF1 JUMP JUMPDEST DUP1 PUSH1 0x1F ADD PUSH1 0x20 DUP1 SWAP2 DIV MUL PUSH1 0x20 ADD PUSH1 0x40 MLOAD SWAP1 DUP2 ADD PUSH1 0x40 MSTORE DUP1 SWAP3 SWAP2 SWAP1 DUP2 DUP2 MSTORE PUSH1 0x20 ADD DUP3 DUP1 SLOAD PUSH2 0x2CE SWAP1 PUSH2 0xBF1 JUMP JUMPDEST DUP1 ISZERO PUSH2 0x31B JUMPI DUP1 PUSH1 0x1F LT PUSH2 0x2F0 JUMPI PUSH2 0x100 DUP1 DUP4 SLOAD DIV MUL DUP4 MSTORE SWAP2 PUSH1 0x20 ADD SWAP2 PUSH2 0x31B JUMP JUMPDEST DUP3 ADD SWAP2 SWAP1 PUSH1 0x0 MSTORE PUSH1 0x20 PUSH1 0x0 KECCAK256 SWAP1 JUMPDEST DUP2 SLOAD DUP2 MSTORE SWAP1 PUSH1 0x1 ADD SWAP1 PUSH1 0x20 ADD DUP1 DUP4 GT PUSH2 0x2FE JUMPI DUP3 SWAP1 SUB PUSH1 0x1F AND DUP3 ADD SWAP2 JUMPDEST POP POP POP POP POP SWAP1 POP SWAP1 JUMP JUMPDEST PUSH1 0x0 CALLER PUSH2 0x333 DUP2 DUP6 DUP6 PUSH2 0x59B JUMP JUMPDEST PUSH1 0x1 SWAP2 POP POP JUMPDEST SWAP3 SWAP2 POP POP JUMP JUMPDEST PUSH1 0x0 CALLER PUSH2 0x34D DUP6 DUP3 DUP6 PUSH2 0x5AD JUMP JUMPDEST PUSH2 0x358 DUP6 DUP6 DUP6 PUSH2 0x62B JUMP JUMPDEST PUSH1 0x1 SWAP2 POP POP JUMPDEST SWAP4 SWAP3 POP POP POP JUMP JUMPDEST CALLER PUSH1 0x1 PUSH1 0x1 PUSH1 0xA0 SHL SUB PUSH32 0x0 AND EQ PUSH2 0x3AE JUMPI PUSH1 0x40 MLOAD PUSH4 0x148A1BB1 PUSH1 0xE2 SHL DUP2 MSTORE PUSH1 0x4 ADD PUSH1 0x40 MLOAD DUP1 SWAP2 SUB SWAP1 REVERT JUMPDEST PUSH2 0x3B8 DUP3 DUP3 PUSH2 0x68A JUMP JUMPDEST POP POP JUMP JUMPDEST CALLER PUSH1 0x1 PUSH1 0x1 PUSH1 0xA0 SHL SUB PUSH32 0x0 AND EQ PUSH2 0x405 JUMPI PUSH1 0x40 MLOAD PUSH4 0x148A1BB1 PUSH1 0xE2 SHL DUP2 MSTORE PUSH1 0x4 ADD PUSH1 0x40 MLOAD DUP1 SWAP2 SUB SWAP1 REVERT JUMPDEST PUSH2 0x3B8 PUSH1 0x1 PUSH1 0x1 PUSH1 0xA0 SHL SUB PUSH32 0x0 AND DUP4 DUP4 PUSH2 0x6C0 JUMP JUMPDEST PUSH1 0x60 PUSH1 0x4 DUP1 SLOAD PUSH2 0x2A2 SWAP1 PUSH2 0xBF1 JUMP JUMPDEST CALLER PUSH1 0x1 PUSH1 0x1 PUSH1 0xA0 SHL SUB PUSH32 0x0 AND EQ PUSH2 0x491 JUMPI PUSH1 0x40 MLOAD PUSH4 0x148A1BB1 PUSH1 0xE2 SHL DUP2 MSTORE PUSH1 0x4 ADD PUSH1 0x40 MLOAD DUP1 SWAP2 SUB SWAP1 REVERT JUMPDEST PUSH2 0x3B8 DUP3 DUP3 PUSH2 0x712 JUMP JUMPDEST PUSH1 0x0 CALLER PUSH2 0x333 DUP2 DUP6 DUP6 PUSH2 0x62B JUMP JUMPDEST CALLER PUSH1 0x1 PUSH1 0x1 PUSH1 0xA0 SHL SUB PUSH32 0x0 AND EQ PUSH2 0x4F2 JUMPI PUSH1 0x40 MLOAD PUSH4 0x148A1BB1 PUSH1 0xE2 SHL DUP2 MSTORE PUSH1 0x4 ADD PUSH1 0x40 MLOAD DUP1 SWAP2 SUB SWAP1 REVERT JUMPDEST PUSH1 0x0 PUSH2 0x4FD PUSH1 0x2 SLOAD SWAP1 JUMP JUMPDEST DUP3 PUSH2 0x507 PUSH1 0x2 SLOAD SWAP1 JUMP JUMPDEST PUSH2 0x511 SWAP2 SWAP1 PUSH2 0xC41 JUMP JUMPDEST PUSH1 0x5 SLOAD PUSH2 0x51E SWAP2 SWAP1 PUSH2 0xC54 JUMP JUMPDEST PUSH2 0x528 SWAP2 SWAP1 PUSH2 0xC6B JUMP JUMPDEST SWAP1 POP PUSH1 0x5 SLOAD DUP2 GT PUSH2 0x55F JUMPI PUSH1 0x5 SLOAD PUSH1 0x40 MLOAD PUSH4 0xB05A25F PUSH1 0xE2 SHL DUP2 MSTORE PUSH1 0x4 DUP2 ADD SWAP2 SWAP1 SWAP2 MSTORE PUSH1 0x24 DUP2 ADD DUP3 SWAP1 MSTORE PUSH1 0x44 ADD JUMPDEST PUSH1 0x40 MLOAD DUP1 SWAP2 SUB SWAP1 REVERT JUMPDEST PUSH1 0x5 DUP2 SWAP1 SSTORE PUSH1 0x40 MLOAD DUP2 DUP2 MSTORE PUSH32 0x388F446E9526FE5C9AF20A5919B342370C8A7C0CB05245AFE1E545658FA3CDBA SWAP1 PUSH1 0x20 ADD PUSH1 0x40 MLOAD DUP1 SWAP2 SUB SWAP1 LOG1 POP POP JUMP JUMPDEST PUSH2 0x5A8 DUP4 DUP4 DUP4 PUSH1 0x1 PUSH2 0x748 JUMP JUMPDEST POP POP POP JUMP JUMPDEST PUSH1 0x1 PUSH1 0x1 PUSH1 0xA0 SHL SUB DUP4 DUP2 AND PUSH1 0x0 SWAP1 DUP2 MSTORE PUSH1 0x1 PUSH1 0x20 SWAP1 DUP2 MSTORE PUSH1 0x40 DUP1 DUP4 KECCAK256 SWAP4 DUP7 AND DUP4 MSTORE SWAP3 SWAP1 MSTORE KECCAK256 SLOAD PUSH1 0x0 NOT DUP2 EQ PUSH2 0x625 JUMPI DUP2 DUP2 LT ISZERO PUSH2 0x616 JUMPI PUSH1 0x40 MLOAD PUSH4 0x7DC7A0D9 PUSH1 0xE1 SHL DUP2 MSTORE PUSH1 0x1 PUSH1 0x1 PUSH1 0xA0 SHL SUB DUP5 AND PUSH1 0x4 DUP3 ADD MSTORE PUSH1 0x24 DUP2 ADD DUP3 SWAP1 MSTORE PUSH1 0x44 DUP2 ADD DUP4 SWAP1 MSTORE PUSH1 0x64 ADD PUSH2 0x556 JUMP JUMPDEST PUSH2 0x625 DUP5 DUP5 DUP5 DUP5 SUB PUSH1 0x0 PUSH2 0x748 JUMP JUMPDEST POP POP POP POP JUMP JUMPDEST PUSH1 0x1 PUSH1 0x1 PUSH1 0xA0 SHL SUB DUP4 AND PUSH2 0x655 JUMPI PUSH1 0x40 MLOAD PUSH4 0x4B637E8F PUSH1 0xE1 SHL DUP2 MSTORE PUSH1 0x0 PUSH1 0x4 DUP3 ADD MSTORE PUSH1 0x24 ADD PUSH2 0x556 JUMP JUMPDEST PUSH1 0x1 PUSH1 0x1 PUSH1 0xA0 SHL SUB DUP3 AND PUSH2 0x67F JUMPI PUSH1 0x40 MLOAD PUSH4 0xEC442F05 PUSH1 0xE0 SHL DUP2 MSTORE PUSH1 0x0 PUSH1 0x4 DUP3 ADD MSTORE PUSH1 0x24 ADD PUSH2 0x556 JUMP JUMPDEST PUSH2 0x5A8 DUP4 DUP4 DUP4 PUSH2 0x81D JUMP JUMPDEST PUSH1 0x1 PUSH1 0x1 PUSH1 0xA0 SHL SUB DUP3 AND PUSH2 0x6B4 JUMPI PUSH1 0x40 MLOAD PUSH4 0xEC442F05 PUSH1 0xE0 SHL DUP2 MSTORE PUSH1 0x0 PUSH1 0x4 DUP3 ADD MSTORE PUSH1 0x24 ADD PUSH2 0x556 JUMP JUMPDEST PUSH2 0x3B8 PUSH1 0x0 DUP4 DUP4 PUSH2 0x81D JUMP JUMPDEST PUSH1 0x40 DUP1 MLOAD PUSH1 0x1 PUSH1 0x1 PUSH1 0xA0 SHL SUB DUP5 AND PUSH1 0x24 DUP3 ADD MSTORE PUSH1 0x44 DUP1 DUP3 ADD DUP5 SWAP1 MSTORE DUP3 MLOAD DUP1 DUP4 SUB SWAP1 SWAP2 ADD DUP2 MSTORE PUSH1 0x64 SWAP1 SWAP2 ADD SWAP1 SWAP2 MSTORE PUSH1 0x20 DUP2 ADD DUP1 MLOAD PUSH1 0x1 PUSH1 0x1 PUSH1 0xE0 SHL SUB AND PUSH4 0xA9059CBB PUSH1 0xE0 SHL OR SWAP1 MSTORE PUSH2 0x5A8 SWAP1 DUP5 SWAP1 PUSH2 0x947 JUMP JUMPDEST PUSH1 0x1 PUSH1 0x1 PUSH1 0xA0 SHL SUB DUP3 AND PUSH2 0x73C JUMPI PUSH1 0x40 MLOAD PUSH4 0x4B637E8F PUSH1 0xE1 SHL DUP2 MSTORE PUSH1 0x0 PUSH1 0x4 DUP3 ADD MSTORE PUSH1 0x24 ADD PUSH2 0x556 JUMP JUMPDEST PUSH2 0x3B8 DUP3 PUSH1 0x0 DUP4 PUSH2 0x81D JUMP JUMPDEST PUSH1 0x1 PUSH1 0x1 PUSH1 0xA0 SHL SUB DUP5 AND PUSH2 0x772 JUMPI PUSH1 0x40 MLOAD PUSH4 0xE602DF05 PUSH1 0xE0 SHL DUP2 MSTORE PUSH1 0x0 PUSH1 0x4 DUP3 ADD MSTORE PUSH1 0x24 ADD PUSH2 0x556 JUMP JUMPDEST PUSH1 0x1 PUSH1 0x1 PUSH1 0xA0 SHL SUB DUP4 AND PUSH2 0x79C JUMPI PUSH1 0x40 MLOAD PUSH4 0x4A1406B1 PUSH1 0xE1 SHL DUP2 MSTORE PUSH1 0x0 PUSH1 0x4 DUP3 ADD MSTORE PUSH1 0x24 ADD PUSH2 0x556 JUMP JUMPDEST PUSH1 0x1 PUSH1 0x1 PUSH1 0xA0 SHL SUB DUP1 DUP6 AND PUSH1 0x0 SWAP1 DUP2 MSTORE PUSH1 0x1 PUSH1 0x20 SWAP1 DUP2 MSTORE PUSH1 0x40 DUP1 DUP4 KECCAK256 SWAP4 DUP8 AND DUP4 MSTORE SWAP3 SWAP1 MSTORE KECCAK256 DUP3 SWAP1 SSTORE DUP1 ISZERO PUSH2 0x625 JUMPI DUP3 PUSH1 0x1 PUSH1 0x1 PUSH1 0xA0 SHL SUB AND DUP5 PUSH1 0x1 PUSH1 0x1 PUSH1 0xA0 SHL SUB AND PUSH32 0x8C5BE1E5EBEC7D5BD14F71427D1E84F3DD0314C0F7B2291E5B200AC8C7C3B925 DUP5 PUSH1 0x40 MLOAD PUSH2 0x80F SWAP2 DUP2 MSTORE PUSH1 0x20 ADD SWAP1 JUMP JUMPDEST PUSH1 0x40 MLOAD DUP1 SWAP2 SUB SWAP1 LOG3 POP POP POP POP JUMP JUMPDEST PUSH1 0x1 PUSH1 0x1 PUSH1 0xA0 SHL SUB DUP4 AND PUSH2 0x848 JUMPI DUP1 PUSH1 0x2 PUSH1 0x0 DUP3 DUP3 SLOAD PUSH2 0x83D SWAP2 SWAP1 PUSH2 0xC41 JUMP JUMPDEST SWAP1 SWAP2 SSTORE POP PUSH2 0x8BA SWAP1 POP JUMP JUMPDEST PUSH1 0x1 PUSH1 0x1 PUSH1 0xA0 SHL SUB DUP4 AND PUSH1 0x0 SWAP1 DUP2 MSTORE PUSH1 0x20 DUP2 SWAP1 MSTORE PUSH1 0x40 SWAP1 KECCAK256 SLOAD DUP2 DUP2 LT ISZERO PUSH2 0x89B JUMPI PUSH1 0x40 MLOAD PUSH4 0x391434E3 PUSH1 0xE2 SHL DUP2 MSTORE PUSH1 0x1 PUSH1 0x1 PUSH1 0xA0 SHL SUB DUP6 AND PUSH1 0x4 DUP3 ADD MSTORE PUSH1 0x24 DUP2 ADD DUP3 SWAP1 MSTORE PUSH1 0x44 DUP2 ADD DUP4 SWAP1 MSTORE PUSH1 0x64 ADD PUSH2 0x556 JUMP JUMPDEST PUSH1 0x1 PUSH1 0x1 PUSH1 0xA0 SHL SUB DUP5 AND PUSH1 0x0 SWAP1 DUP2 MSTORE PUSH1 0x20 DUP2 SWAP1 MSTORE PUSH1 0x40 SWAP1 KECCAK256 SWAP1 DUP3 SWAP1 SUB SWAP1 SSTORE JUMPDEST PUSH1 0x1 PUSH1 0x1 PUSH1 0xA0 SHL SUB DUP3 AND PUSH2 0x8D6 JUMPI PUSH1 0x2 DUP1 SLOAD DUP3 SWAP1 SUB SWAP1 SSTORE PUSH2 0x8F5 JUMP JUMPDEST PUSH1 0x1 PUSH1 0x1 PUSH1 0xA0 SHL SUB DUP3 AND PUSH1 0x0 SWAP1 DUP2 MSTORE PUSH1 0x20 DUP2 SWAP1 MSTORE PUSH1 0x40 SWAP1 KECCAK256 DUP1 SLOAD DUP3 ADD SWAP1 SSTORE JUMPDEST DUP2 PUSH1 0x1 PUSH1 0x1 PUSH1 0xA0 SHL SUB AND DUP4 PUSH1 0x1 PUSH1 0x1 PUSH1 0xA0 SHL SUB AND PUSH32 0xDDF252AD1BE2C89B69C2B068FC378DAA952BA7F163C4A11628F55A4DF523B3EF DUP4 PUSH1 0x40 MLOAD PUSH2 0x93A SWAP2 DUP2 MSTORE PUSH1 0x20 ADD SWAP1 JUMP JUMPDEST PUSH1 0x40 MLOAD DUP1 SWAP2 SUB SWAP1 LOG3 POP POP POP JUMP JUMPDEST PUSH1 0x0 PUSH2 0x95C PUSH1 0x1 PUSH1 0x1 PUSH1 0xA0 SHL SUB DUP5 AND DUP4 PUSH2 0x9AA JUMP JUMPDEST SWAP1 POP DUP1 MLOAD PUSH1 0x0 EQ ISZERO DUP1 ISZERO PUSH2 0x981 JUMPI POP DUP1 DUP1 PUSH1 0x20 ADD SWAP1 MLOAD DUP2 ADD SWAP1 PUSH2 0x97F SWAP2 SWAP1 PUSH2 0xC8D JUMP JUMPDEST ISZERO JUMPDEST ISZERO PUSH2 0x5A8 JUMPI PUSH1 0x40 MLOAD PUSH4 0x5274AFE7 PUSH1 0xE0 SHL DUP2 MSTORE PUSH1 0x1 PUSH1 0x1 PUSH1 0xA0 SHL SUB DUP5 AND PUSH1 0x4 DUP3 ADD MSTORE PUSH1 0x24 ADD PUSH2 0x556 JUMP JUMPDEST PUSH1 0x60 PUSH2 0x35E DUP4 DUP4 PUSH1 0x0 DUP5 PUSH1 0x0 DUP1 DUP6 PUSH1 0x1 PUSH1 0x1 PUSH1 0xA0 SHL SUB AND DUP5 DUP7 PUSH1 0x40 MLOAD PUSH2 0x9D0 SWAP2 SWAP1 PUSH2 0xCAF JUMP JUMPDEST PUSH1 0x0 PUSH1 0x40 MLOAD DUP1 DUP4 SUB DUP2 DUP6 DUP8 GAS CALL SWAP3 POP POP POP RETURNDATASIZE DUP1 PUSH1 0x0 DUP2 EQ PUSH2 0xA0D JUMPI PUSH1 0x40 MLOAD SWAP2 POP PUSH1 0x1F NOT PUSH1 0x3F RETURNDATASIZE ADD AND DUP3 ADD PUSH1 0x40 MSTORE RETURNDATASIZE DUP3 MSTORE RETURNDATASIZE PUSH1 0x0 PUSH1 0x20 DUP5 ADD RETURNDATACOPY PUSH2 0xA12 JUMP JUMPDEST PUSH1 0x60 SWAP2 POP JUMPDEST POP SWAP2 POP SWAP2 POP PUSH2 0xA22 DUP7 DUP4 DUP4 PUSH2 0xA2C JUMP JUMPDEST SWAP7 SWAP6 POP POP POP POP POP POP JUMP JUMPDEST PUSH1 0x60 DUP3 PUSH2 0xA41 JUMPI PUSH2 0xA3C DUP3 PUSH2 0xA88 JUMP JUMPDEST PUSH2 0x35E JUMP JUMPDEST DUP2 MLOAD ISZERO DUP1 ISZERO PUSH2 0xA58 JUMPI POP PUSH1 0x1 PUSH1 0x1 PUSH1 0xA0 SHL SUB DUP5 AND EXTCODESIZE ISZERO JUMPDEST ISZERO PUSH2 0xA81 JUMPI PUSH1 0x40 MLOAD PUSH4 0x9996B315 PUSH1 0xE0 SHL DUP2 MSTORE PUSH1 0x1 PUSH1 0x1 PUSH1 0xA0 SHL SUB DUP6 AND PUSH1 0x4 DUP3 ADD MSTORE PUSH1 0x24 ADD PUSH2 0x556 JUMP JUMPDEST POP DUP1 PUSH2 0x35E JUMP JUMPDEST DUP1 MLOAD ISZERO PUSH2 0xA98 JUMPI DUP1 MLOAD DUP1 DUP3 PUSH1 0x20 ADD REVERT JUMPDEST PUSH1 0x40 MLOAD PUSH4 0xA12F521 PUSH1 0xE1 SHL DUP2 MSTORE PUSH1 0x4 ADD PUSH1 0x40 MLOAD DUP1 SWAP2 SUB SWAP1 REVERT JUMPDEST PUSH1 0x0 JUMPDEST DUP4 DUP2 LT ISZERO PUSH2 0xACC JUMPI DUP2 DUP2 ADD MLOAD DUP4 DUP3 ADD MSTORE PUSH1 0x20 ADD PUSH2 0xAB4 JUMP JUMPDEST POP POP PUSH1 0x0 SWAP2 ADD MSTORE JUMP JUMPDEST PUSH1 0x20 DUP2 MSTORE PUSH1 0x0 DUP3 MLOAD DUP1 PUSH1 0x20 DUP5 ADD MSTORE PUSH2 0xAF4 DUP2 PUSH1 0x40 DUP6 ADD PUSH1 0x20 DUP8 ADD PUSH2 0xAB1 JUMP JUMPDEST PUSH1 0x1F ADD PUSH1 0x1F NOT AND SWAP2 SWAP1 SWAP2 ADD PUSH1 0x40 ADD SWAP3 SWAP2 POP POP JUMP JUMPDEST DUP1 CALLDATALOAD PUSH1 0x1 PUSH1 0x1 PUSH1 0xA0 SHL SUB DUP2 AND DUP2 EQ PUSH2 0xB1F JUMPI PUSH1 0x0 DUP1 REVERT JUMPDEST SWAP2 SWAP1 POP JUMP JUMPDEST PUSH1 0x0 DUP1 PUSH1 0x40 DUP4 DUP6 SUB SLT ISZERO PUSH2 0xB37 JUMPI PUSH1 0x0 DUP1 REVERT JUMPDEST PUSH2 0xB40 DUP4 PUSH2 0xB08 JUMP JUMPDEST SWAP5 PUSH1 0x20 SWAP4 SWAP1 SWAP4 ADD CALLDATALOAD SWAP4 POP POP POP JUMP JUMPDEST PUSH1 0x0 DUP1 PUSH1 0x0 PUSH1 0x60 DUP5 DUP7 SUB SLT ISZERO PUSH2 0xB63 JUMPI PUSH1 0x0 DUP1 REVERT JUMPDEST PUSH2 0xB6C DUP5 PUSH2 0xB08 JUMP JUMPDEST SWAP3 POP PUSH2 0xB7A PUSH1 0x20 DUP6 ADD PUSH2 0xB08 JUMP JUMPDEST SWAP2 POP PUSH1 0x40 DUP5 ADD CALLDATALOAD SWAP1 POP SWAP3 POP SWAP3 POP SWAP3 JUMP JUMPDEST PUSH1 0x0 PUSH1 0x20 DUP3 DUP5 SUB SLT ISZERO PUSH2 0xB9C JUMPI PUSH1 0x0 DUP1 REVERT JUMPDEST PUSH2 0x35E DUP3 PUSH2 0xB08 JUMP JUMPDEST PUSH1 0x0 PUSH1 0x20 DUP3 DUP5 SUB SLT ISZERO PUSH2 0xBB7 JUMPI PUSH1 0x0 DUP1 REVERT JUMPDEST POP CALLDATALOAD SWAP2 SWAP1 POP JUMP JUMPDEST PUSH1 0x0 DUP1 PUSH1 0x40 DUP4 DUP6 SUB SLT ISZERO PUSH2 0xBD1 JUMPI PUSH1 0x0 DUP1 REVERT JUMPDEST PUSH2 0xBDA DUP4 PUSH2 0xB08 JUMP JUMPDEST SWAP2 POP PUSH2 0xBE8 PUSH1 0x20 DUP5 ADD PUSH2 0xB08 JUMP JUMPDEST SWAP1 POP SWAP3 POP SWAP3 SWAP1 POP JUMP JUMPDEST PUSH1 0x1 DUP2 DUP2 SHR SWAP1 DUP3 AND DUP1 PUSH2 0xC05 JUMPI PUSH1 0x7F DUP3 AND SWAP2 POP JUMPDEST PUSH1 0x20 DUP3 LT DUP2 SUB PUSH2 0xC25 JUMPI PUSH4 0x4E487B71 PUSH1 0xE0 SHL PUSH1 0x0 MSTORE PUSH1 0x22 PUSH1 0x4 MSTORE PUSH1 0x24 PUSH1 0x0 REVERT JUMPDEST POP SWAP2 SWAP1 POP JUMP JUMPDEST PUSH4 0x4E487B71 PUSH1 0xE0 SHL PUSH1 0x0 MSTORE PUSH1 0x11 PUSH1 0x4 MSTORE PUSH1 0x24 PUSH1 0x0 REVERT JUMPDEST DUP1 DUP3 ADD DUP1 DUP3 GT ISZERO PUSH2 0x339 JUMPI PUSH2 0x339 PUSH2 0xC2B JUMP JUMPDEST DUP1 DUP3 MUL DUP2 ISZERO DUP3 DUP3 DIV DUP5 EQ OR PUSH2 0x339 JUMPI PUSH2 0x339 PUSH2 0xC2B JUMP JUMPDEST PUSH1 0x0 DUP3 PUSH2 0xC88 JUMPI PUSH4 0x4E487B71 PUSH1 0xE0 SHL PUSH1 0x0 MSTORE PUSH1 0x12 PUSH1 0x4 MSTORE PUSH1 0x24 PUSH1 0x0 REVERT JUMPDEST POP DIV SWAP1 JUMP JUMPDEST PUSH1 0x0 PUSH1 0x20 DUP3 DUP5 SUB SLT ISZERO PUSH2 0xC9F JUMPI PUSH1 0x0 DUP1 REVERT JUMPDEST DUP2 MLOAD DUP1 ISZERO ISZERO DUP2 EQ PUSH2 0x35E JUMPI PUSH1 0x0 DUP1 REVERT JUMPDEST PUSH1 0x0 DUP3 MLOAD PUSH2 0xCC1 DUP2 DUP5 PUSH1 0x20 DUP8 ADD PUSH2 0xAB1 JUMP JUMPDEST SWAP2 SWAP1 SWAP2 ADD SWAP3 SWAP2 POP POP JUMP INVALID LOG2 PUSH5 0x6970667358 0x22 SLT KECCAK256 PUSH11 0xC032168BEFC9CC390924E8 0xC0 ADDRESS ISZERO PUSH25 0xA5DEAD3CB91CA937B1AD0D1AB0A85B7C64736F6C6343000814 STOP CALLER CALLDATASIZE ADDMOD SWAP5 LOG1 EXTCODESIZE LOG1 LOG3 0x21 MOD PUSH8 0xC828492DB98DCA3E KECCAK256 PUSH23 0xCC3735A920A3CA505D382BBCA264697066735822122086 0xA8 0xD2 SELFDESTRUCT EXTCODEHASH PUSH31 0x7AF37294BBAF2ABD1DCE59CE06570B854BA00643AE5041D7003564736F6C63 NUMBER STOP ADDMOD EQ STOP CALLER ","linkReferences":{}},"methodIdentifiers":{"FEE_PRECISION()":"e63a391f","UPGRADE_INTERFACE_VERSION()":"ad3cb1cc","deposit(address,uint256)":"47e7ef24","flashloan(address,address,uint256,bytes)":"63ad2c41","getAssetFromToken(address)":"46638b10","getCalculatedFee(address,uint256)":"2d85a7db","getFee()":"ced72f87","getPoolFactoryAddress()":"8f3443cb","getPrice(address)":"41976e09","getPriceInWeth(address)":"70a1ed89","initialize(address)":"c4d66de8","isAllowedToken(address)":"cbe230c3","isCurrentlyFlashLoaning(address)":"396ecd78","owner()":"8da5cb5b","proxiableUUID()":"52d1902d","redeem(address,uint256)":"1e9a6950","renounceOwnership()":"715018a6","repay(address,uint256)":"22867d78","s_tokenToAssetToken(address)":"67ebd738","setAllowedToken(address,bool)":"8aaa2284","transferOwnership(address)":"f2fde38b","updateFlashLoanFee(uint256)":"d8566874","upgradeToAndCall(address,bytes)":"4f1ef286"}}}}}