{"abi":[{"type":"function","name":"getPoolFactoryAddress","inputs":[],"outputs":[{"name":"","type":"address","internalType":"address"}],"stateMutability":"view"},{"type":"function","name":"getPrice","inputs":[{"name":"token","type":"address","internalType":"address"}],"outputs":[{"name":"","type":"uint256","internalType":"uint256"}],"stateMutability":"view"},{"type":"function","name":"getPriceInWeth","inputs":[{"name":"token","type":"address","internalType":"address"}],"outputs":[{"name":"","type":"uint256","internalType":"uint256"}],"stateMutability":"view"},{"type":"event","name":"Initialized","inputs":[{"name":"version","type":"uint64","indexed":false,"internalType":"uint64"}],"anonymous":false},{"type":"error","name":"InvalidInitialization","inputs":[]},{"type":"error","name":"NotInitializing","inputs":[]}],"bytecode":{"object":"0x608060405234801561001057600080fd5b50610226806100206000396000f3fe608060405234801561001057600080fd5b50600436106100415760003560e01c806341976e091461004657806370a1ed891461006c5780638f3443cb1461007f575b600080fd5b61005961005436600461019d565b61009a565b6040519081526020015b60405180910390f35b61005961007a36600461019d565b6100ab565b6000546040516001600160a01b039091168152602001610063565b60006100a5826100ab565b92915050565b6000805460405163bbe4f6db60e01b81526001600160a01b0384811660048301528392169063bbe4f6db90602401602060405180830381865afa1580156100f6573d6000803e3d6000fd5b505050506040513d601f19601f8201168201806040525081019061011a91906101ba565b9050806001600160a01b031663b7e7fdcc6040518163ffffffff1660e01b8152600401602060405180830381865afa15801561015a573d6000803e3d6000fd5b505050506040513d601f19601f8201168201806040525081019061017e91906101d7565b9392505050565b6001600160a01b038116811461019a57600080fd5b50565b6000602082840312156101af57600080fd5b813561017e81610185565b6000602082840312156101cc57600080fd5b815161017e81610185565b6000602082840312156101e957600080fd5b505191905056fea2646970667358221220eb6f21855e8b1700e4701c9645629f5faf4b168c619c283a795020cf64026eae64736f6c63430008140033","linkReferences":{}},"methodIdentifiers":{"getPoolFactoryAddress()":"8f3443cb","getPrice(address)":"41976e09","getPriceInWeth(address)":"70a1ed89"},"id":21}