{"abi":[{"type":"constructor","inputs":[{"name":"thunderLoan","type":"address","internalType":"address"},{"name":"underlying","type":"address","internalType":"contract IERC20"},{"name":"assetName","type":"string","internalType":"string"},{"name":"assetSymbol","type":"string","internalType":"string"}],"stateMutability":"nonpayable"},{"type":"function","name":"EXCHANGE_RATE_PRECISION","inputs":[],"outputs":[{"name":"","type":"uint256","internalType":"uint256"}],"stateMutability":"view"},{"type":"function","name":"allowance","inputs":[{"name":"owner","type":"address","internalType":"address"},{"name":"spender","type":"address","internalType":"address"}],"outputs":[{"name":"","type":"uint256","internalType":"uint256"}],"stateMutability":"view"},{"type":"function","name":"approve","inputs":[{"name":"spender","type":"address","internalType":"address"},{"name":"value","type":"uint256","internalType":"uint256"}],"outputs":[{"name":"","type":"bool","internalType":"bool"}],"stateMutability":"nonpayable"},{"type":"function","name":"balanceOf","inputs":[{"name":"account","type":"address","internalType":"address"}],"outputs":[{"name":"","type":"uint256","internalType":"uint256"}],"stateMutability":"view"},{"type":"function","name":"burn","inputs":[{"name":"account","type":"address","internalType":"address"},{"name":"amount","type":"uint256","internalType":"uint256"}],"outputs":[],"stateMutability":"nonpayable"},{"type":"function","name":"decimals","inputs":[],"outputs":[{"name":"","type":"uint8","internalType":"uint8"}],"stateMutability":"view"},{"type":"function","name":"getExchangeRate","inputs":[],"outputs":[{"name":"","type":"uint256","internalType":"uint256"}],"stateMutability":"view"},{"type":"function","name":"getUnderlying","inputs":[],"outputs":[{"name":"","type":"address","internalType":"contract IERC20"}],"stateMutability":"view"},{"type":"function","name":"mint","inputs":[{"name":"to","type":"address","internalType":"address"},{"name":"amount","type":"uint256","internalType":"uint256"}],"outputs":[],"stateMutability":"nonpayable"},{"type":"function","name":"name","inputs":[],"outputs":[{"name":"","type":"string","internalType":"string"}],"stateMutability":"view"},{"type":"function","name":"symbol","inputs":[],"outputs":[{"name":"","type":"string","internalType":"string"}],"stateMutability":"view"},{"type":"function","name":"totalSupply","inputs":[],"outputs":[{"name":"","type":"uint256","internalType":"uint256"}],"stateMutability":"view"},{"type":"function","name":"transfer","inputs":[{"name":"to","type":"address","internalType":"address"},{"name":"value","type":"uint256","internalType":"uint256"}],"outputs":[{"name":"","type":"bool","internalType":"bool"}],"stateMutability":"nonpayable"},{"type":"function","name":"transferFrom","inputs":[{"name":"from","type":"address","internalType":"address"},{"name":"to","type":"address","internalType":"address"},{"name":"value","type":"uint256","internalType":"uint256"}],"outputs":[{"name":"","type":"bool","internalType":"bool"}],"stateMutability":"nonpayable"},{"type":"function","name":"transferUnderlyingTo","inputs":[{"name":"to","type":"address","internalType":"address"},{"name":"amount","type":"uint256","internalType":"uint256"}],"outputs":[],"stateMutability":"nonpayable"},{"type":"function","name":"updateExchangeRate","inputs":[{"name":"fee","type":"uint256","internalType":"uint256"}],"outputs":[],"stateMutability":"nonpayable"},{"type":"event","name":"Approval","inputs":[{"name":"owner","type":"address","indexed":true,"internalType":"address"},{"name":"spender","type":"address","indexed":true,"internalType":"address"},{"name":"value","type":"uint256","indexed":false,"internalType":"uint256"}],"anonymous":false},{"type":"event","name":"ExchangeRateUpdated","inputs":[{"name":"newExchangeRate","type":"uint256","indexed":false,"internalType":"uint256"}],"anonymous":false},{"type":"event","name":"Transfer","inputs":[{"name":"from","type":"address","indexed":true,"internalType":"address"},{"name":"to","type":"address","indexed":true,"internalType":"address"},{"name":"value","type":"uint256","indexed":false,"internalType":"uint256"}],"anonymous":false},{"type":"error","name":"AddressEmptyCode","inputs":[{"name":"target","type":"address","internalType":"address"}]},{"type":"error","name":"AddressInsufficientBalance","inputs":[{"name":"account","type":"address","internalType":"address"}]},{"type":"error","name":"AssetToken__ExhangeRateCanOnlyIncrease","inputs":[{"name":"oldExchangeRate","type":"uint256","internalType":"uint256"},{"name":"newExchangeRate","type":"uint256","internalType":"uint256"}]},{"type":"error","name":"AssetToken__ZeroAddress","inputs":[]},{"type":"error","name":"AssetToken__onlyThunderLoan","inputs":[]},{"type":"error","name":"ERC20InsufficientAllowance","inputs":[{"name":"spender","type":"address","internalType":"address"},{"name":"allowance","type":"uint256","internalType":"uint256"},{"name":"needed","type":"uint256","internalType":"uint256"}]},{"type":"error","name":"ERC20InsufficientBalance","inputs":[{"name":"sender","type":"address","internalType":"address"},{"name":"balance","type":"uint256","internalType":"uint256"},{"name":"needed","type":"uint256","internalType":"uint256"}]},{"type":"error","name":"ERC20InvalidApprover","inputs":[{"name":"approver","type":"address","internalType":"address"}]},{"type":"error","name":"ERC20InvalidReceiver","inputs":[{"name":"receiver","type":"address","internalType":"address"}]},{"type":"error","name":"ERC20InvalidSender","inputs":[{"name":"sender","type":"address","internalType":"address"}]},{"type":"error","name":"ERC20InvalidSpender","inputs":[{"name":"spender","type":"address","internalType":"address"}]},{"type":"error","name":"FailedInnerCall","inputs":[]},{"type":"error","name":"SafeERC20FailedOperation","inputs":[{"name":"token","type":"address","internalType":"address"}]}],"bytecode":{"object":"0x60c06040523480156200001157600080fd5b50604051620010e2380380620010e28339810160408190526200003491620001af565b81816003620000448382620002d3565b506004620000538282620002d3565b50859150506001600160a01b0381166200008057604051639f1301a560e01b815260040160405180910390fd5b836001600160a01b038116620000a957604051639f1301a560e01b815260040160405180910390fd5b5050506001600160a01b0392831660a0525016608052670de0b6b3a76400006005556200039f565b6001600160a01b0381168114620000e757600080fd5b50565b634e487b7160e01b600052604160045260246000fd5b600082601f8301126200011257600080fd5b81516001600160401b03808211156200012f576200012f620000ea565b604051601f8301601f19908116603f011681019082821181831017156200015a576200015a620000ea565b816040528381526020925086838588010111156200017757600080fd5b600091505b838210156200019b57858201830151818301840152908201906200017c565b600093810190920192909252949350505050565b60008060008060808587031215620001c657600080fd5b8451620001d381620000d1565b6020860151909450620001e681620000d1565b60408601519093506001600160401b03808211156200020457600080fd5b620002128883890162000100565b935060608701519150808211156200022957600080fd5b50620002388782880162000100565b91505092959194509250565b600181811c908216806200025957607f821691505b6020821081036200027a57634e487b7160e01b600052602260045260246000fd5b50919050565b601f821115620002ce57600081815260208120601f850160051c81016020861015620002a95750805b601f850160051c820191505b81811015620002ca57828155600101620002b5565b5050505b505050565b81516001600160401b03811115620002ef57620002ef620000ea565b620003078162000300845462000244565b8462000280565b602080601f8311600181146200033f5760008415620003265750858301515b600019600386901b1c1916600185901b178555620002ca565b600085815260208120601f198616915b8281101562000370578886015182559484019460019091019084016200034f565b50858210156200038f5787850151600019600388901b60f8161c191681555b5050505050600190811b01905550565b60805160a051610d01620003e160003960008181610370015281816103c70152818161045301526104b40152600081816101ef01526104120152610d016000f3fe608060405234801561001057600080fd5b50600436106101005760003560e01c806370a0823111610097578063a9059cbb11610066578063a9059cbb1461022c578063b9e205ae1461023f578063dd62ed3e14610252578063e6aa216c1461028b57600080fd5b806370a08231146101b157806395d89b41146101da5780639816f473146101e25780639dc29fac1461021957600080fd5b8063313ce567116100d3578063313ce5671461016b5780633a01b9641461017a57806340c10f19146101895780634efecaa51461019e57600080fd5b806306fdde0314610105578063095ea7b31461012357806318160ddd1461014657806323b872dd14610158575b600080fd5b61010d610293565b60405161011a9190610ad5565b60405180910390f35b610136610131366004610b24565b610325565b604051901515815260200161011a565b6002545b60405190815260200161011a565b610136610166366004610b4e565b61033f565b6040516012815260200161011a565b61014a670de0b6b3a764000081565b61019c610197366004610b24565b610365565b005b61019c6101ac366004610b24565b6103bc565b61014a6101bf366004610b8a565b6001600160a01b031660009081526020819052604090205490565b61010d610439565b6040516001600160a01b037f000000000000000000000000000000000000000000000000000000000000000016815260200161011a565b61019c610227366004610b24565b610448565b61013661023a366004610b24565b61049b565b61019c61024d366004610ba5565b6104a9565b61014a610260366004610bbe565b6001600160a01b03918216600090815260016020908152604080832093909416825291909152205490565b60055461014a565b6060600380546102a290610bf1565b80601f01602080910402602001604051908101604052809291908181526020018280546102ce90610bf1565b801561031b5780601f106102f05761010080835404028352916020019161031b565b820191906000526020600020905b8154815290600101906020018083116102fe57829003601f168201915b5050505050905090565b60003361033381858561059b565b60019150505b92915050565b60003361034d8582856105ad565b61035885858561062b565b60019150505b9392505050565b336001600160a01b037f000000000000000000000000000000000000000000000000000000000000000016146103ae5760405163148a1bb160e21b815260040160405180910390fd5b6103b8828261068a565b5050565b336001600160a01b037f000000000000000000000000000000000000000000000000000000000000000016146104055760405163148a1bb160e21b815260040160405180910390fd5b6103b86001600160a01b037f00000000000000000000000000000000000000000000000000000000000000001683836106c0565b6060600480546102a290610bf1565b336001600160a01b037f000000000000000000000000000000000000000000000000000000000000000016146104915760405163148a1bb160e21b815260040160405180910390fd5b6103b88282610712565b60003361033381858561062b565b336001600160a01b037f000000000000000000000000000000000000000000000000000000000000000016146104f25760405163148a1bb160e21b815260040160405180910390fd5b60006104fd60025490565b8261050760025490565b6105119190610c41565b60055461051e9190610c54565b6105289190610c6b565b9050600554811161055f57600554604051630b05a25f60e21b81526004810191909152602481018290526044015b60405180910390fd5b60058190556040518181527f388f446e9526fe5c9af20a5919b342370c8a7c0cb05245afe1e545658fa3cdba9060200160405180910390a15050565b6105a88383836001610748565b505050565b6001600160a01b038381166000908152600160209081526040808320938616835292905220546000198114610625578181101561061657604051637dc7a0d960e11b81526001600160a01b03841660048201526024810182905260448101839052606401610556565b61062584848484036000610748565b50505050565b6001600160a01b03831661065557604051634b637e8f60e11b815260006004820152602401610556565b6001600160a01b03821661067f5760405163ec442f0560e01b815260006004820152602401610556565b6105a883838361081d565b6001600160a01b0382166106b45760405163ec442f0560e01b815260006004820152602401610556565b6103b86000838361081d565b604080516001600160a01b038416602482015260448082018490528251808303909101815260649091019091526020810180516001600160e01b031663a9059cbb60e01b1790526105a8908490610947565b6001600160a01b03821661073c57604051634b637e8f60e11b815260006004820152602401610556565b6103b88260008361081d565b6001600160a01b0384166107725760405163e602df0560e01b815260006004820152602401610556565b6001600160a01b03831661079c57604051634a1406b160e11b815260006004820152602401610556565b6001600160a01b038085166000908152600160209081526040808320938716835292905220829055801561062557826001600160a01b0316846001600160a01b03167f8c5be1e5ebec7d5bd14f71427d1e84f3dd0314c0f7b2291e5b200ac8c7c3b9258460405161080f91815260200190565b60405180910390a350505050565b6001600160a01b03831661084857806002600082825461083d9190610c41565b909155506108ba9050565b6001600160a01b0383166000908152602081905260409020548181101561089b5760405163391434e360e21b81526001600160a01b03851660048201526024810182905260448101839052606401610556565b6001600160a01b03841660009081526020819052604090209082900390555b6001600160a01b0382166108d6576002805482900390556108f5565b6001600160a01b03821660009081526020819052604090208054820190555b816001600160a01b0316836001600160a01b03167fddf252ad1be2c89b69c2b068fc378daa952ba7f163c4a11628f55a4df523b3ef8360405161093a91815260200190565b60405180910390a3505050565b600061095c6001600160a01b038416836109aa565b9050805160001415801561098157508080602001905181019061097f9190610c8d565b155b156105a857604051635274afe760e01b81526001600160a01b0384166004820152602401610556565b606061035e8383600084600080856001600160a01b031684866040516109d09190610caf565b60006040518083038185875af1925050503d8060008114610a0d576040519150601f19603f3d011682016040523d82523d6000602084013e610a12565b606091505b5091509150610a22868383610a2c565b9695505050505050565b606082610a4157610a3c82610a88565b61035e565b8151158015610a5857506001600160a01b0384163b155b15610a8157604051639996b31560e01b81526001600160a01b0385166004820152602401610556565b508061035e565b805115610a985780518082602001fd5b604051630a12f52160e11b815260040160405180910390fd5b60005b83811015610acc578181015183820152602001610ab4565b50506000910152565b6020815260008251806020840152610af4816040850160208701610ab1565b601f01601f19169190910160400192915050565b80356001600160a01b0381168114610b1f57600080fd5b919050565b60008060408385031215610b3757600080fd5b610b4083610b08565b946020939093013593505050565b600080600060608486031215610b6357600080fd5b610b6c84610b08565b9250610b7a60208501610b08565b9150604084013590509250925092565b600060208284031215610b9c57600080fd5b61035e82610b08565b600060208284031215610bb757600080fd5b5035919050565b60008060408385031215610bd157600080fd5b610bda83610b08565b9150610be860208401610b08565b90509250929050565b600181811c90821680610c0557607f821691505b602082108103610c2557634e487b7160e01b600052602260045260246000fd5b50919050565b634e487b7160e01b600052601160045260246000fd5b8082018082111561033957610339610c2b565b808202811582820484141761033957610339610c2b565b600082610c8857634e487b7160e01b600052601260045260246000fd5b500490565b600060208284031215610c9f57600080fd5b8151801515811461035e57600080fd5b60008251610cc1818460208701610ab1565b919091019291505056fea26469706673582212206ac032168befc9cc390924e8c0301578a5dead3cb91ca937b1ad0d1ab0a85b7c64736f6c63430008140033","linkReferences":{}},"methodIdentifiers":{"EXCHANGE_RATE_PRECISION()":"3a01b964","allowance(address,address)":"dd62ed3e","approve(address,uint256)":"095ea7b3","balanceOf(address)":"70a08231","burn(address,uint256)":"9dc29fac","decimals()":"313ce567","getExchangeRate()":"e6aa216c","getUnderlying()":"9816f473","mint(address,uint256)":"40c10f19","name()":"06fdde03","symbol()":"95d89b41","totalSupply()":"18160ddd","transfer(address,uint256)":"a9059cbb","transferFrom(address,address,uint256)":"23b872dd","transferUnderlyingTo(address,uint256)":"4efecaa5","updateExchangeRate(uint256)":"b9e205ae"},"id":20}